{
	"contracts/2-Smart_money/project.sol": {
		"SendWithdrawMoney": {
			"abi": [
				{
					"inputs": [],
					"name": "deposit",
					"outputs": [],
					"stateMutability": "payable",
					"type": "function"
				},
				{
					"inputs": [],
					"name": "getContractBalance",
					"outputs": [
						{
							"internalType": "uint256",
							"name": "",
							"type": "uint256"
						}
					],
					"stateMutability": "view",
					"type": "function"
				},
				{
					"inputs": [],
					"name": "getLastDepositInfo",
					"outputs": [
						{
							"internalType": "uint256",
							"name": "",
							"type": "uint256"
						}
					],
					"stateMutability": "view",
					"type": "function"
				},
				{
					"inputs": [],
					"name": "lastDepositAmount",
					"outputs": [
						{
							"internalType": "uint256",
							"name": "",
							"type": "uint256"
						}
					],
					"stateMutability": "view",
					"type": "function"
				},
				{
					"inputs": [],
					"name": "totalReceived",
					"outputs": [
						{
							"internalType": "uint256",
							"name": "",
							"type": "uint256"
						}
					],
					"stateMutability": "view",
					"type": "function"
				},
				{
					"inputs": [],
					"name": "withdrawAll",
					"outputs": [],
					"stateMutability": "nonpayable",
					"type": "function"
				},
				{
					"inputs": [
						{
							"internalType": "address payable",
							"name": "to",
							"type": "address"
						}
					],
					"name": "withdrawToAddress",
					"outputs": [],
					"stateMutability": "nonpayable",
					"type": "function"
				}
			],
			"devdoc": {
				"kind": "dev",
				"methods": {},
				"version": 1
			},
			"evm": {
				"assembly": "    /* \"contracts/2-Smart_money/project.sol\":57:758  contract SendWithdrawMoney {... */\n  mstore(0x40, 0x80)\n  callvalue\n  dup1\n  iszero\n  tag_1\n  jumpi\n  0x00\n  dup1\n  revert\ntag_1:\n  pop\n  dataSize(sub_0)\n  dup1\n  dataOffset(sub_0)\n  0x00\n  codecopy\n  0x00\n  return\nstop\n\nsub_0: assembly {\n        /* \"contracts/2-Smart_money/project.sol\":57:758  contract SendWithdrawMoney {... */\n      mstore(0x40, 0x80)\n      jumpi(tag_1, lt(calldatasize, 0x04))\n      shr(0xe0, calldataload(0x00))\n      dup1\n      0xa3c2c462\n      gt\n      tag_9\n      jumpi\n      dup1\n      0xa3c2c462\n      eq\n      tag_5\n      jumpi\n      dup1\n      0xa92bd72c\n      eq\n      tag_6\n      jumpi\n      dup1\n      0xd0e30db0\n      eq\n      tag_7\n      jumpi\n      dup1\n      0xda617df9\n      eq\n      tag_8\n      jumpi\n      jump(tag_1)\n    tag_9:\n      dup1\n      0x55b153e0\n      eq\n      tag_2\n      jumpi\n      dup1\n      0x6f9fb98a\n      eq\n      tag_3\n      jumpi\n      dup1\n      0x853828b6\n      eq\n      tag_4\n      jumpi\n    tag_1:\n      0x00\n      dup1\n      revert\n        /* \"contracts/2-Smart_money/project.sol\":122:151  uint public lastDepositAmount */\n    tag_2:\n      callvalue\n      dup1\n      iszero\n      tag_10\n      jumpi\n      0x00\n      dup1\n      revert\n    tag_10:\n      pop\n      tag_11\n      tag_12\n      jump\t// in\n    tag_11:\n      mload(0x40)\n      tag_13\n      swap2\n      swap1\n      tag_14\n      jump\t// in\n    tag_13:\n      mload(0x40)\n      dup1\n      swap2\n      sub\n      swap1\n      return\n        /* \"contracts/2-Smart_money/project.sol\":305:406  function getContractBalance() public view returns(uint) {... */\n    tag_3:\n      callvalue\n      dup1\n      iszero\n      tag_15\n      jumpi\n      0x00\n      dup1\n      revert\n    tag_15:\n      pop\n      tag_16\n      tag_17\n      jump\t// in\n    tag_16:\n      mload(0x40)\n      tag_18\n      swap2\n      swap1\n      tag_14\n      jump\t// in\n    tag_18:\n      mload(0x40)\n      dup1\n      swap2\n      sub\n      swap1\n      return\n        /* \"contracts/2-Smart_money/project.sol\":412:542  function withdrawAll() public {... */\n    tag_4:\n      callvalue\n      dup1\n      iszero\n      tag_19\n      jumpi\n      0x00\n      dup1\n      revert\n    tag_19:\n      pop\n      tag_20\n      tag_21\n      jump\t// in\n    tag_20:\n      stop\n        /* \"contracts/2-Smart_money/project.sol\":91:116  uint public totalReceived */\n    tag_5:\n      callvalue\n      dup1\n      iszero\n      tag_22\n      jumpi\n      0x00\n      dup1\n      revert\n    tag_22:\n      pop\n      tag_23\n      tag_24\n      jump\t// in\n    tag_23:\n      mload(0x40)\n      tag_25\n      swap2\n      swap1\n      tag_14\n      jump\t// in\n    tag_25:\n      mload(0x40)\n      dup1\n      swap2\n      sub\n      swap1\n      return\n        /* \"contracts/2-Smart_money/project.sol\":548:652  function withdrawToAddress(address payable to) public {... */\n    tag_6:\n      callvalue\n      dup1\n      iszero\n      tag_26\n      jumpi\n      0x00\n      dup1\n      revert\n    tag_26:\n      pop\n      tag_27\n      0x04\n      dup1\n      calldatasize\n      sub\n      dup2\n      add\n      swap1\n      tag_28\n      swap2\n      swap1\n      tag_29\n      jump\t// in\n    tag_28:\n      tag_30\n      jump\t// in\n    tag_27:\n      stop\n        /* \"contracts/2-Smart_money/project.sol\":183:299  function deposit() public payable {... */\n    tag_7:\n      tag_31\n      tag_32\n      jump\t// in\n    tag_31:\n      stop\n        /* \"contracts/2-Smart_money/project.sol\":658:756  function getLastDepositInfo() public view returns (uint) {... */\n    tag_8:\n      callvalue\n      dup1\n      iszero\n      tag_33\n      jumpi\n      0x00\n      dup1\n      revert\n    tag_33:\n      pop\n      tag_34\n      tag_35\n      jump\t// in\n    tag_34:\n      mload(0x40)\n      tag_36\n      swap2\n      swap1\n      tag_14\n      jump\t// in\n    tag_36:\n      mload(0x40)\n      dup1\n      swap2\n      sub\n      swap1\n      return\n        /* \"contracts/2-Smart_money/project.sol\":122:151  uint public lastDepositAmount */\n    tag_12:\n      sload(0x01)\n      dup2\n      jump\t// out\n        /* \"contracts/2-Smart_money/project.sol\":305:406  function getContractBalance() public view returns(uint) {... */\n    tag_17:\n        /* \"contracts/2-Smart_money/project.sol\":355:359  uint */\n      0x00\n        /* \"contracts/2-Smart_money/project.sol\":378:399  address(this).balance */\n      selfbalance\n        /* \"contracts/2-Smart_money/project.sol\":371:399  return address(this).balance */\n      swap1\n      pop\n        /* \"contracts/2-Smart_money/project.sol\":305:406  function getContractBalance() public view returns(uint) {... */\n      swap1\n      jump\t// out\n        /* \"contracts/2-Smart_money/project.sol\":412:542  function withdrawAll() public {... */\n    tag_21:\n        /* \"contracts/2-Smart_money/project.sol\":452:470  address payable to */\n      0x00\n        /* \"contracts/2-Smart_money/project.sol\":481:491  msg.sender */\n      caller\n        /* \"contracts/2-Smart_money/project.sol\":452:492  address payable to = payable(msg.sender) */\n      swap1\n      pop\n        /* \"contracts/2-Smart_money/project.sol\":502:504  to */\n      dup1\n        /* \"contracts/2-Smart_money/project.sol\":502:513  to.transfer */\n      0xffffffffffffffffffffffffffffffffffffffff\n      and\n        /* \"contracts/2-Smart_money/project.sol\":502:535  to.transfer(getContractBalance()) */\n      0x08fc\n        /* \"contracts/2-Smart_money/project.sol\":514:534  getContractBalance() */\n      tag_39\n        /* \"contracts/2-Smart_money/project.sol\":514:532  getContractBalance */\n      tag_17\n        /* \"contracts/2-Smart_money/project.sol\":514:534  getContractBalance() */\n      jump\t// in\n    tag_39:\n        /* \"contracts/2-Smart_money/project.sol\":502:535  to.transfer(getContractBalance()) */\n      swap1\n      dup2\n      iszero\n      mul\n      swap1\n      mload(0x40)\n      0x00\n      mload(0x40)\n      dup1\n      dup4\n      sub\n      dup2\n      dup6\n      dup9\n      dup9\n      call\n      swap4\n      pop\n      pop\n      pop\n      pop\n      iszero\n      dup1\n      iszero\n      tag_41\n      jumpi\n      returndatasize\n      0x00\n      dup1\n      returndatacopy\n      revert(0x00, returndatasize)\n    tag_41:\n      pop\n        /* \"contracts/2-Smart_money/project.sol\":442:542  {... */\n      pop\n        /* \"contracts/2-Smart_money/project.sol\":412:542  function withdrawAll() public {... */\n      jump\t// out\n        /* \"contracts/2-Smart_money/project.sol\":91:116  uint public totalReceived */\n    tag_24:\n      sload(0x00)\n      dup2\n      jump\t// out\n        /* \"contracts/2-Smart_money/project.sol\":548:652  function withdrawToAddress(address payable to) public {... */\n    tag_30:\n        /* \"contracts/2-Smart_money/project.sol\":612:614  to */\n      dup1\n        /* \"contracts/2-Smart_money/project.sol\":612:623  to.transfer */\n      0xffffffffffffffffffffffffffffffffffffffff\n      and\n        /* \"contracts/2-Smart_money/project.sol\":612:645  to.transfer(getContractBalance()) */\n      0x08fc\n        /* \"contracts/2-Smart_money/project.sol\":624:644  getContractBalance() */\n      tag_43\n        /* \"contracts/2-Smart_money/project.sol\":624:642  getContractBalance */\n      tag_17\n        /* \"contracts/2-Smart_money/project.sol\":624:644  getContractBalance() */\n      jump\t// in\n    tag_43:\n        /* \"contracts/2-Smart_money/project.sol\":612:645  to.transfer(getContractBalance()) */\n      swap1\n      dup2\n      iszero\n      mul\n      swap1\n      mload(0x40)\n      0x00\n      mload(0x40)\n      dup1\n      dup4\n      sub\n      dup2\n      dup6\n      dup9\n      dup9\n      call\n      swap4\n      pop\n      pop\n      pop\n      pop\n      iszero\n      dup1\n      iszero\n      tag_45\n      jumpi\n      returndatasize\n      0x00\n      dup1\n      returndatacopy\n      revert(0x00, returndatasize)\n    tag_45:\n      pop\n        /* \"contracts/2-Smart_money/project.sol\":548:652  function withdrawToAddress(address payable to) public {... */\n      pop\n      jump\t// out\n        /* \"contracts/2-Smart_money/project.sol\":183:299  function deposit() public payable {... */\n    tag_32:\n        /* \"contracts/2-Smart_money/project.sol\":244:253  msg.value */\n      callvalue\n        /* \"contracts/2-Smart_money/project.sol\":227:240  totalReceived */\n      0x00\n      dup1\n        /* \"contracts/2-Smart_money/project.sol\":227:253  totalReceived += msg.value */\n      dup3\n      dup3\n      sload\n      tag_47\n      swap2\n      swap1\n      tag_48\n      jump\t// in\n    tag_47:\n      swap3\n      pop\n      pop\n      dup2\n      swap1\n      sstore\n      pop\n        /* \"contracts/2-Smart_money/project.sol\":283:292  msg.value */\n      callvalue\n        /* \"contracts/2-Smart_money/project.sol\":263:280  lastDepositAmount */\n      0x01\n        /* \"contracts/2-Smart_money/project.sol\":263:292  lastDepositAmount = msg.value */\n      dup2\n      swap1\n      sstore\n      pop\n        /* \"contracts/2-Smart_money/project.sol\":183:299  function deposit() public payable {... */\n      jump\t// out\n        /* \"contracts/2-Smart_money/project.sol\":658:756  function getLastDepositInfo() public view returns (uint) {... */\n    tag_35:\n        /* \"contracts/2-Smart_money/project.sol\":709:713  uint */\n      0x00\n        /* \"contracts/2-Smart_money/project.sol\":732:749  lastDepositAmount */\n      sload(0x01)\n        /* \"contracts/2-Smart_money/project.sol\":725:749  return lastDepositAmount */\n      swap1\n      pop\n        /* \"contracts/2-Smart_money/project.sol\":658:756  function getLastDepositInfo() public view returns (uint) {... */\n      swap1\n      jump\t// out\n        /* \"#utility.yul\":7:84   */\n    tag_50:\n        /* \"#utility.yul\":44:51   */\n      0x00\n        /* \"#utility.yul\":73:78   */\n      dup2\n        /* \"#utility.yul\":62:78   */\n      swap1\n      pop\n        /* \"#utility.yul\":7:84   */\n      swap2\n      swap1\n      pop\n      jump\t// out\n        /* \"#utility.yul\":90:208   */\n    tag_51:\n        /* \"#utility.yul\":177:201   */\n      tag_63\n        /* \"#utility.yul\":195:200   */\n      dup2\n        /* \"#utility.yul\":177:201   */\n      tag_50\n      jump\t// in\n    tag_63:\n        /* \"#utility.yul\":172:175   */\n      dup3\n        /* \"#utility.yul\":165:202   */\n      mstore\n        /* \"#utility.yul\":90:208   */\n      pop\n      pop\n      jump\t// out\n        /* \"#utility.yul\":214:436   */\n    tag_14:\n        /* \"#utility.yul\":307:311   */\n      0x00\n        /* \"#utility.yul\":345:347   */\n      0x20\n        /* \"#utility.yul\":334:343   */\n      dup3\n        /* \"#utility.yul\":330:348   */\n      add\n        /* \"#utility.yul\":322:348   */\n      swap1\n      pop\n        /* \"#utility.yul\":358:429   */\n      tag_65\n        /* \"#utility.yul\":426:427   */\n      0x00\n        /* \"#utility.yul\":415:424   */\n      dup4\n        /* \"#utility.yul\":411:428   */\n      add\n        /* \"#utility.yul\":402:408   */\n      dup5\n        /* \"#utility.yul\":358:429   */\n      tag_51\n      jump\t// in\n    tag_65:\n        /* \"#utility.yul\":214:436   */\n      swap3\n      swap2\n      pop\n      pop\n      jump\t// out\n        /* \"#utility.yul\":523:640   */\n    tag_53:\n        /* \"#utility.yul\":632:633   */\n      0x00\n        /* \"#utility.yul\":629:630   */\n      dup1\n        /* \"#utility.yul\":622:634   */\n      revert\n        /* \"#utility.yul\":769:895   */\n    tag_55:\n        /* \"#utility.yul\":806:813   */\n      0x00\n        /* \"#utility.yul\":846:888   */\n      0xffffffffffffffffffffffffffffffffffffffff\n        /* \"#utility.yul\":839:844   */\n      dup3\n        /* \"#utility.yul\":835:889   */\n      and\n        /* \"#utility.yul\":824:889   */\n      swap1\n      pop\n        /* \"#utility.yul\":769:895   */\n      swap2\n      swap1\n      pop\n      jump\t// out\n        /* \"#utility.yul\":901:1005   */\n    tag_56:\n        /* \"#utility.yul\":946:953   */\n      0x00\n        /* \"#utility.yul\":975:999   */\n      tag_71\n        /* \"#utility.yul\":993:998   */\n      dup3\n        /* \"#utility.yul\":975:999   */\n      tag_55\n      jump\t// in\n    tag_71:\n        /* \"#utility.yul\":964:999   */\n      swap1\n      pop\n        /* \"#utility.yul\":901:1005   */\n      swap2\n      swap1\n      pop\n      jump\t// out\n        /* \"#utility.yul\":1011:1149   */\n    tag_57:\n        /* \"#utility.yul\":1092:1124   */\n      tag_73\n        /* \"#utility.yul\":1118:1123   */\n      dup2\n        /* \"#utility.yul\":1092:1124   */\n      tag_56\n      jump\t// in\n    tag_73:\n        /* \"#utility.yul\":1085:1090   */\n      dup2\n        /* \"#utility.yul\":1082:1125   */\n      eq\n        /* \"#utility.yul\":1072:1143   */\n      tag_74\n      jumpi\n        /* \"#utility.yul\":1139:1140   */\n      0x00\n        /* \"#utility.yul\":1136:1137   */\n      dup1\n        /* \"#utility.yul\":1129:1141   */\n      revert\n        /* \"#utility.yul\":1072:1143   */\n    tag_74:\n        /* \"#utility.yul\":1011:1149   */\n      pop\n      jump\t// out\n        /* \"#utility.yul\":1155:1310   */\n    tag_58:\n        /* \"#utility.yul\":1209:1214   */\n      0x00\n        /* \"#utility.yul\":1247:1253   */\n      dup2\n        /* \"#utility.yul\":1234:1254   */\n      calldataload\n        /* \"#utility.yul\":1225:1254   */\n      swap1\n      pop\n        /* \"#utility.yul\":1263:1304   */\n      tag_76\n        /* \"#utility.yul\":1298:1303   */\n      dup2\n        /* \"#utility.yul\":1263:1304   */\n      tag_57\n      jump\t// in\n    tag_76:\n        /* \"#utility.yul\":1155:1310   */\n      swap3\n      swap2\n      pop\n      pop\n      jump\t// out\n        /* \"#utility.yul\":1316:1661   */\n    tag_29:\n        /* \"#utility.yul\":1383:1389   */\n      0x00\n        /* \"#utility.yul\":1432:1434   */\n      0x20\n        /* \"#utility.yul\":1420:1429   */\n      dup3\n        /* \"#utility.yul\":1411:1418   */\n      dup5\n        /* \"#utility.yul\":1407:1430   */\n      sub\n        /* \"#utility.yul\":1403:1435   */\n      slt\n        /* \"#utility.yul\":1400:1519   */\n      iszero\n      tag_78\n      jumpi\n        /* \"#utility.yul\":1438:1517   */\n      tag_79\n      tag_53\n      jump\t// in\n    tag_79:\n        /* \"#utility.yul\":1400:1519   */\n    tag_78:\n        /* \"#utility.yul\":1558:1559   */\n      0x00\n        /* \"#utility.yul\":1583:1644   */\n      tag_80\n        /* \"#utility.yul\":1636:1643   */\n      dup5\n        /* \"#utility.yul\":1627:1633   */\n      dup3\n        /* \"#utility.yul\":1616:1625   */\n      dup6\n        /* \"#utility.yul\":1612:1634   */\n      add\n        /* \"#utility.yul\":1583:1644   */\n      tag_58\n      jump\t// in\n    tag_80:\n        /* \"#utility.yul\":1573:1644   */\n      swap2\n      pop\n        /* \"#utility.yul\":1529:1654   */\n      pop\n        /* \"#utility.yul\":1316:1661   */\n      swap3\n      swap2\n      pop\n      pop\n      jump\t// out\n        /* \"#utility.yul\":1667:1847   */\n    tag_59:\n        /* \"#utility.yul\":1715:1792   */\n      0x4e487b7100000000000000000000000000000000000000000000000000000000\n        /* \"#utility.yul\":1712:1713   */\n      0x00\n        /* \"#utility.yul\":1705:1793   */\n      mstore\n        /* \"#utility.yul\":1812:1816   */\n      0x11\n        /* \"#utility.yul\":1809:1810   */\n      0x04\n        /* \"#utility.yul\":1802:1817   */\n      mstore\n        /* \"#utility.yul\":1836:1840   */\n      0x24\n        /* \"#utility.yul\":1833:1834   */\n      0x00\n        /* \"#utility.yul\":1826:1841   */\n      revert\n        /* \"#utility.yul\":1853:2044   */\n    tag_48:\n        /* \"#utility.yul\":1893:1896   */\n      0x00\n        /* \"#utility.yul\":1912:1932   */\n      tag_83\n        /* \"#utility.yul\":1930:1931   */\n      dup3\n        /* \"#utility.yul\":1912:1932   */\n      tag_50\n      jump\t// in\n    tag_83:\n        /* \"#utility.yul\":1907:1932   */\n      swap2\n      pop\n        /* \"#utility.yul\":1946:1966   */\n      tag_84\n        /* \"#utility.yul\":1964:1965   */\n      dup4\n        /* \"#utility.yul\":1946:1966   */\n      tag_50\n      jump\t// in\n    tag_84:\n        /* \"#utility.yul\":1941:1966   */\n      swap3\n      pop\n        /* \"#utility.yul\":1989:1990   */\n      dup3\n        /* \"#utility.yul\":1986:1987   */\n      dup3\n        /* \"#utility.yul\":1982:1991   */\n      add\n        /* \"#utility.yul\":1975:1991   */\n      swap1\n      pop\n        /* \"#utility.yul\":2010:2013   */\n      dup1\n        /* \"#utility.yul\":2007:2008   */\n      dup3\n        /* \"#utility.yul\":2004:2014   */\n      gt\n        /* \"#utility.yul\":2001:2037   */\n      iszero\n      tag_85\n      jumpi\n        /* \"#utility.yul\":2017:2035   */\n      tag_86\n      tag_59\n      jump\t// in\n    tag_86:\n        /* \"#utility.yul\":2001:2037   */\n    tag_85:\n        /* \"#utility.yul\":1853:2044   */\n      swap3\n      swap2\n      pop\n      pop\n      jump\t// out\n\n    auxdata: 0xa2646970667358221220ce168835fa703fef7f5edb186e89b18469d45085c8f9a3e34ab36b6dff1f492764736f6c63430008180033\n}\n",
				"bytecode": {
					"linkReferences": {},
					"object": "608060405234801561000f575f80fd5b5061038e8061001d5f395ff3fe60806040526004361061006f575f3560e01c8063a3c2c4621161004d578063a3c2c462146100dd578063a92bd72c14610107578063d0e30db01461012f578063da617df9146101395761006f565b806355b153e0146100735780636f9fb98a1461009d578063853828b6146100c7575b5f80fd5b34801561007e575f80fd5b50610087610163565b6040516100949190610256565b60405180910390f35b3480156100a8575f80fd5b506100b1610169565b6040516100be9190610256565b60405180910390f35b3480156100d2575f80fd5b506100db610170565b005b3480156100e8575f80fd5b506100f16101c2565b6040516100fe9190610256565b60405180910390f35b348015610112575f80fd5b5061012d600480360381019061012891906102cd565b6101c7565b005b610137610215565b005b348015610144575f80fd5b5061014d610235565b60405161015a9190610256565b60405180910390f35b60015481565b5f47905090565b5f3390508073ffffffffffffffffffffffffffffffffffffffff166108fc610196610169565b90811502906040515f60405180830381858888f193505050501580156101be573d5f803e3d5ffd5b5050565b5f5481565b8073ffffffffffffffffffffffffffffffffffffffff166108fc6101e9610169565b90811502906040515f60405180830381858888f19350505050158015610211573d5f803e3d5ffd5b5050565b345f808282546102259190610325565b9250508190555034600181905550565b5f600154905090565b5f819050919050565b6102508161023e565b82525050565b5f6020820190506102695f830184610247565b92915050565b5f80fd5b5f73ffffffffffffffffffffffffffffffffffffffff82169050919050565b5f61029c82610273565b9050919050565b6102ac81610292565b81146102b6575f80fd5b50565b5f813590506102c7816102a3565b92915050565b5f602082840312156102e2576102e161026f565b5b5f6102ef848285016102b9565b91505092915050565b7f4e487b71000000000000000000000000000000000000000000000000000000005f52601160045260245ffd5b5f61032f8261023e565b915061033a8361023e565b9250828201905080821115610352576103516102f8565b5b9291505056fea2646970667358221220ce168835fa703fef7f5edb186e89b18469d45085c8f9a3e34ab36b6dff1f492764736f6c63430008180033",
					"opcodes": "PUSH1 0x80 PUSH1 0x40 MSTORE CALLVALUE DUP1 ISZERO PUSH2 0xF JUMPI PUSH0 DUP1 REVERT JUMPDEST POP PUSH2 0x38E DUP1 PUSH2 0x1D PUSH0 CODECOPY PUSH0 RETURN INVALID PUSH1 0x80 PUSH1 0x40 MSTORE PUSH1 0x4 CALLDATASIZE LT PUSH2 0x6F JUMPI PUSH0 CALLDATALOAD PUSH1 0xE0 SHR DUP1 PUSH4 0xA3C2C462 GT PUSH2 0x4D JUMPI DUP1 PUSH4 0xA3C2C462 EQ PUSH2 0xDD JUMPI DUP1 PUSH4 0xA92BD72C EQ PUSH2 0x107 JUMPI DUP1 PUSH4 0xD0E30DB0 EQ PUSH2 0x12F JUMPI DUP1 PUSH4 0xDA617DF9 EQ PUSH2 0x139 JUMPI PUSH2 0x6F JUMP JUMPDEST DUP1 PUSH4 0x55B153E0 EQ PUSH2 0x73 JUMPI DUP1 PUSH4 0x6F9FB98A EQ PUSH2 0x9D JUMPI DUP1 PUSH4 0x853828B6 EQ PUSH2 0xC7 JUMPI JUMPDEST PUSH0 DUP1 REVERT JUMPDEST CALLVALUE DUP1 ISZERO PUSH2 0x7E JUMPI PUSH0 DUP1 REVERT JUMPDEST POP PUSH2 0x87 PUSH2 0x163 JUMP JUMPDEST PUSH1 0x40 MLOAD PUSH2 0x94 SWAP2 SWAP1 PUSH2 0x256 JUMP JUMPDEST PUSH1 0x40 MLOAD DUP1 SWAP2 SUB SWAP1 RETURN JUMPDEST CALLVALUE DUP1 ISZERO PUSH2 0xA8 JUMPI PUSH0 DUP1 REVERT JUMPDEST POP PUSH2 0xB1 PUSH2 0x169 JUMP JUMPDEST PUSH1 0x40 MLOAD PUSH2 0xBE SWAP2 SWAP1 PUSH2 0x256 JUMP JUMPDEST PUSH1 0x40 MLOAD DUP1 SWAP2 SUB SWAP1 RETURN JUMPDEST CALLVALUE DUP1 ISZERO PUSH2 0xD2 JUMPI PUSH0 DUP1 REVERT JUMPDEST POP PUSH2 0xDB PUSH2 0x170 JUMP JUMPDEST STOP JUMPDEST CALLVALUE DUP1 ISZERO PUSH2 0xE8 JUMPI PUSH0 DUP1 REVERT JUMPDEST POP PUSH2 0xF1 PUSH2 0x1C2 JUMP JUMPDEST PUSH1 0x40 MLOAD PUSH2 0xFE SWAP2 SWAP1 PUSH2 0x256 JUMP JUMPDEST PUSH1 0x40 MLOAD DUP1 SWAP2 SUB SWAP1 RETURN JUMPDEST CALLVALUE DUP1 ISZERO PUSH2 0x112 JUMPI PUSH0 DUP1 REVERT JUMPDEST POP PUSH2 0x12D PUSH1 0x4 DUP1 CALLDATASIZE SUB DUP2 ADD SWAP1 PUSH2 0x128 SWAP2 SWAP1 PUSH2 0x2CD JUMP JUMPDEST PUSH2 0x1C7 JUMP JUMPDEST STOP JUMPDEST PUSH2 0x137 PUSH2 0x215 JUMP JUMPDEST STOP JUMPDEST CALLVALUE DUP1 ISZERO PUSH2 0x144 JUMPI PUSH0 DUP1 REVERT JUMPDEST POP PUSH2 0x14D PUSH2 0x235 JUMP JUMPDEST PUSH1 0x40 MLOAD PUSH2 0x15A SWAP2 SWAP1 PUSH2 0x256 JUMP JUMPDEST PUSH1 0x40 MLOAD DUP1 SWAP2 SUB SWAP1 RETURN JUMPDEST PUSH1 0x1 SLOAD DUP2 JUMP JUMPDEST PUSH0 SELFBALANCE SWAP1 POP SWAP1 JUMP JUMPDEST PUSH0 CALLER SWAP1 POP DUP1 PUSH20 0xFFFFFFFFFFFFFFFFFFFFFFFFFFFFFFFFFFFFFFFF AND PUSH2 0x8FC PUSH2 0x196 PUSH2 0x169 JUMP JUMPDEST SWAP1 DUP2 ISZERO MUL SWAP1 PUSH1 0x40 MLOAD PUSH0 PUSH1 0x40 MLOAD DUP1 DUP4 SUB DUP2 DUP6 DUP9 DUP9 CALL SWAP4 POP POP POP POP ISZERO DUP1 ISZERO PUSH2 0x1BE JUMPI RETURNDATASIZE PUSH0 DUP1 RETURNDATACOPY RETURNDATASIZE PUSH0 REVERT JUMPDEST POP POP JUMP JUMPDEST PUSH0 SLOAD DUP2 JUMP JUMPDEST DUP1 PUSH20 0xFFFFFFFFFFFFFFFFFFFFFFFFFFFFFFFFFFFFFFFF AND PUSH2 0x8FC PUSH2 0x1E9 PUSH2 0x169 JUMP JUMPDEST SWAP1 DUP2 ISZERO MUL SWAP1 PUSH1 0x40 MLOAD PUSH0 PUSH1 0x40 MLOAD DUP1 DUP4 SUB DUP2 DUP6 DUP9 DUP9 CALL SWAP4 POP POP POP POP ISZERO DUP1 ISZERO PUSH2 0x211 JUMPI RETURNDATASIZE PUSH0 DUP1 RETURNDATACOPY RETURNDATASIZE PUSH0 REVERT JUMPDEST POP POP JUMP JUMPDEST CALLVALUE PUSH0 DUP1 DUP3 DUP3 SLOAD PUSH2 0x225 SWAP2 SWAP1 PUSH2 0x325 JUMP JUMPDEST SWAP3 POP POP DUP2 SWAP1 SSTORE POP CALLVALUE PUSH1 0x1 DUP2 SWAP1 SSTORE POP JUMP JUMPDEST PUSH0 PUSH1 0x1 SLOAD SWAP1 POP SWAP1 JUMP JUMPDEST PUSH0 DUP2 SWAP1 POP SWAP2 SWAP1 POP JUMP JUMPDEST PUSH2 0x250 DUP2 PUSH2 0x23E JUMP JUMPDEST DUP3 MSTORE POP POP JUMP JUMPDEST PUSH0 PUSH1 0x20 DUP3 ADD SWAP1 POP PUSH2 0x269 PUSH0 DUP4 ADD DUP5 PUSH2 0x247 JUMP JUMPDEST SWAP3 SWAP2 POP POP JUMP JUMPDEST PUSH0 DUP1 REVERT JUMPDEST PUSH0 PUSH20 0xFFFFFFFFFFFFFFFFFFFFFFFFFFFFFFFFFFFFFFFF DUP3 AND SWAP1 POP SWAP2 SWAP1 POP JUMP JUMPDEST PUSH0 PUSH2 0x29C DUP3 PUSH2 0x273 JUMP JUMPDEST SWAP1 POP SWAP2 SWAP1 POP JUMP JUMPDEST PUSH2 0x2AC DUP2 PUSH2 0x292 JUMP JUMPDEST DUP2 EQ PUSH2 0x2B6 JUMPI PUSH0 DUP1 REVERT JUMPDEST POP JUMP JUMPDEST PUSH0 DUP2 CALLDATALOAD SWAP1 POP PUSH2 0x2C7 DUP2 PUSH2 0x2A3 JUMP JUMPDEST SWAP3 SWAP2 POP POP JUMP JUMPDEST PUSH0 PUSH1 0x20 DUP3 DUP5 SUB SLT ISZERO PUSH2 0x2E2 JUMPI PUSH2 0x2E1 PUSH2 0x26F JUMP JUMPDEST JUMPDEST PUSH0 PUSH2 0x2EF DUP5 DUP3 DUP6 ADD PUSH2 0x2B9 JUMP JUMPDEST SWAP2 POP POP SWAP3 SWAP2 POP POP JUMP JUMPDEST PUSH32 0x4E487B7100000000000000000000000000000000000000000000000000000000 PUSH0 MSTORE PUSH1 0x11 PUSH1 0x4 MSTORE PUSH1 0x24 PUSH0 REVERT JUMPDEST PUSH0 PUSH2 0x32F DUP3 PUSH2 0x23E JUMP JUMPDEST SWAP2 POP PUSH2 0x33A DUP4 PUSH2 0x23E JUMP JUMPDEST SWAP3 POP DUP3 DUP3 ADD SWAP1 POP DUP1 DUP3 GT ISZERO PUSH2 0x352 JUMPI PUSH2 0x351 PUSH2 0x2F8 JUMP JUMPDEST JUMPDEST SWAP3 SWAP2 POP POP JUMP INVALID LOG2 PUSH5 0x6970667358 0x22 SLT KECCAK256 0xCE AND DUP9 CALLDATALOAD STATICCALL PUSH17 0x3FEF7F5EDB186E89B18469D45085C8F9A3 0xE3 BLOBBASEFEE 0xB3 PUSH12 0x6DFF1F492764736F6C634300 ADDMOD XOR STOP CALLER "
				},
				"gasEstimates": {
					"creation": {
						"codeDepositCost": "182000",
						"executionCost": "224",
						"totalCost": "182224"
					},
					"external": {
						"deposit()": "infinite",
						"getContractBalance()": "357",
						"getLastDepositInfo()": "2498",
						"lastDepositAmount()": "2426",
						"totalReceived()": "2424",
						"withdrawAll()": "infinite",
						"withdrawToAddress(address)": "infinite"
					}
				},
				"methodIdentifiers": {
					"deposit()": "d0e30db0",
					"getContractBalance()": "6f9fb98a",
					"getLastDepositInfo()": "da617df9",
					"lastDepositAmount()": "55b153e0",
					"totalReceived()": "a3c2c462",
					"withdrawAll()": "853828b6",
					"withdrawToAddress(address)": "a92bd72c"
				}
			},
			"storageLayout": {
				"storage": [
					{
						"astId": 3,
						"contract": "contracts/2-Smart_money/project.sol:SendWithdrawMoney",
						"label": "totalReceived",
						"offset": 0,
						"slot": "0",
						"type": "t_uint256"
					},
					{
						"astId": 5,
						"contract": "contracts/2-Smart_money/project.sol:SendWithdrawMoney",
						"label": "lastDepositAmount",
						"offset": 0,
						"slot": "1",
						"type": "t_uint256"
					}
				],
				"types": {
					"t_uint256": {
						"encoding": "inplace",
						"label": "uint256",
						"numberOfBytes": "32"
					}
				}
			},
			"userdoc": {
				"kind": "user",
				"methods": {},
				"version": 1
			}
		}
	}
}