{
	"contracts/1-blockchain-messenger/1-boolean.sol": {
		"ExampleBoolean": {
			"abi": [
				{
					"inputs": [
						{
							"internalType": "bool",
							"name": "_myBool",
							"type": "bool"
						}
					],
					"name": "changeBool",
					"outputs": [],
					"stateMutability": "nonpayable",
					"type": "function"
				},
				{
					"inputs": [],
					"name": "myBool",
					"outputs": [
						{
							"internalType": "bool",
							"name": "",
							"type": "bool"
						}
					],
					"stateMutability": "view",
					"type": "function"
				},
				{
					"inputs": [],
					"name": "newBool",
					"outputs": [
						{
							"internalType": "bool",
							"name": "",
							"type": "bool"
						}
					],
					"stateMutability": "view",
					"type": "function"
				},
				{
					"inputs": [],
					"name": "newBool2",
					"outputs": [
						{
							"internalType": "bool",
							"name": "",
							"type": "bool"
						}
					],
					"stateMutability": "view",
					"type": "function"
				},
				{
					"inputs": [
						{
							"internalType": "bool",
							"name": "result1",
							"type": "bool"
						},
						{
							"internalType": "bool",
							"name": "result2",
							"type": "bool"
						}
					],
					"name": "operateBool",
					"outputs": [],
					"stateMutability": "nonpayable",
					"type": "function"
				}
			],
			"devdoc": {
				"kind": "dev",
				"methods": {},
				"version": 1
			},
			"evm": {
				"assembly": "    /* \"contracts/1-blockchain-messenger/1-boolean.sol\":108:720  contract ExampleBoolean {... */\n  mstore(0x40, 0x80)\n    /* \"contracts/1-blockchain-messenger/1-boolean.sol\":240:244  true */\n  0x01\n    /* \"contracts/1-blockchain-messenger/1-boolean.sol\":219:244  bool public myBool = true */\n  0x00\n  dup1\n  0x0100\n  exp\n  dup2\n  sload\n  dup2\n  0xff\n  mul\n  not\n  and\n  swap1\n  dup4\n  iszero\n  iszero\n  mul\n  or\n  swap1\n  sstore\n  pop\n    /* \"contracts/1-blockchain-messenger/1-boolean.sol\":108:720  contract ExampleBoolean {... */\n  callvalue\n  dup1\n  iszero\n  tag_1\n  jumpi\n  0x00\n  dup1\n  revert\ntag_1:\n  pop\n  dataSize(sub_0)\n  dup1\n  dataOffset(sub_0)\n  0x00\n  codecopy\n  0x00\n  return\nstop\n\nsub_0: assembly {\n        /* \"contracts/1-blockchain-messenger/1-boolean.sol\":108:720  contract ExampleBoolean {... */\n      mstore(0x40, 0x80)\n      callvalue\n      dup1\n      iszero\n      tag_1\n      jumpi\n      0x00\n      dup1\n      revert\n    tag_1:\n      pop\n      jumpi(tag_2, lt(calldatasize, 0x04))\n      shr(0xe0, calldataload(0x00))\n      dup1\n      0x10ae5638\n      eq\n      tag_3\n      jumpi\n      dup1\n      0x6d689779\n      eq\n      tag_4\n      jumpi\n      dup1\n      0x6deecdbe\n      eq\n      tag_5\n      jumpi\n      dup1\n      0xa2539391\n      eq\n      tag_6\n      jumpi\n      dup1\n      0xd9a01eea\n      eq\n      tag_7\n      jumpi\n    tag_2:\n      0x00\n      dup1\n      revert\n        /* \"contracts/1-blockchain-messenger/1-boolean.sol\":443:462  bool public newBool */\n    tag_3:\n      tag_8\n      tag_9\n      jump\t// in\n    tag_8:\n      mload(0x40)\n      tag_10\n      swap2\n      swap1\n      tag_11\n      jump\t// in\n    tag_10:\n      mload(0x40)\n      dup1\n      swap2\n      sub\n      swap1\n      return\n        /* \"contracts/1-blockchain-messenger/1-boolean.sol\":363:437  function changeBool(bool _myBool) public {... */\n    tag_4:\n      tag_12\n      0x04\n      dup1\n      calldatasize\n      sub\n      dup2\n      add\n      swap1\n      tag_13\n      swap2\n      swap1\n      tag_14\n      jump\t// in\n    tag_13:\n      tag_15\n      jump\t// in\n    tag_12:\n      stop\n        /* \"contracts/1-blockchain-messenger/1-boolean.sol\":219:244  bool public myBool = true */\n    tag_5:\n      tag_16\n      tag_17\n      jump\t// in\n    tag_16:\n      mload(0x40)\n      tag_18\n      swap2\n      swap1\n      tag_11\n      jump\t// in\n    tag_18:\n      mload(0x40)\n      dup1\n      swap2\n      sub\n      swap1\n      return\n        /* \"contracts/1-blockchain-messenger/1-boolean.sol\":550:717  function operateBool(bool result1, bool result2) public { // parameters ... */\n    tag_6:\n      tag_19\n      0x04\n      dup1\n      calldatasize\n      sub\n      dup2\n      add\n      swap1\n      tag_20\n      swap2\n      swap1\n      tag_21\n      jump\t// in\n    tag_20:\n      tag_22\n      jump\t// in\n    tag_19:\n      stop\n        /* \"contracts/1-blockchain-messenger/1-boolean.sol\":468:489  bool public  newBool2 */\n    tag_7:\n      tag_23\n      tag_24\n      jump\t// in\n    tag_23:\n      mload(0x40)\n      tag_25\n      swap2\n      swap1\n      tag_11\n      jump\t// in\n    tag_25:\n      mload(0x40)\n      dup1\n      swap2\n      sub\n      swap1\n      return\n        /* \"contracts/1-blockchain-messenger/1-boolean.sol\":443:462  bool public newBool */\n    tag_9:\n      0x00\n      0x01\n      swap1\n      sload\n      swap1\n      0x0100\n      exp\n      swap1\n      div\n      0xff\n      and\n      dup2\n      jump\t// out\n        /* \"contracts/1-blockchain-messenger/1-boolean.sol\":363:437  function changeBool(bool _myBool) public {... */\n    tag_15:\n        /* \"contracts/1-blockchain-messenger/1-boolean.sol\":423:430  _myBool */\n      dup1\n        /* \"contracts/1-blockchain-messenger/1-boolean.sol\":414:420  myBool */\n      0x00\n      dup1\n        /* \"contracts/1-blockchain-messenger/1-boolean.sol\":414:430  myBool = _myBool */\n      0x0100\n      exp\n      dup2\n      sload\n      dup2\n      0xff\n      mul\n      not\n      and\n      swap1\n      dup4\n      iszero\n      iszero\n      mul\n      or\n      swap1\n      sstore\n      pop\n        /* \"contracts/1-blockchain-messenger/1-boolean.sol\":363:437  function changeBool(bool _myBool) public {... */\n      pop\n      jump\t// out\n        /* \"contracts/1-blockchain-messenger/1-boolean.sol\":219:244  bool public myBool = true */\n    tag_17:\n      0x00\n      dup1\n      sload\n      swap1\n      0x0100\n      exp\n      swap1\n      div\n      0xff\n      and\n      dup2\n      jump\t// out\n        /* \"contracts/1-blockchain-messenger/1-boolean.sol\":550:717  function operateBool(bool result1, bool result2) public { // parameters ... */\n    tag_22:\n        /* \"contracts/1-blockchain-messenger/1-boolean.sol\":650:657  result1 */\n      dup2\n        /* \"contracts/1-blockchain-messenger/1-boolean.sol\":650:668  result1 && result2 */\n      dup1\n      iszero\n      tag_28\n      jumpi\n      pop\n        /* \"contracts/1-blockchain-messenger/1-boolean.sol\":661:668  result2 */\n      dup1\n        /* \"contracts/1-blockchain-messenger/1-boolean.sol\":650:668  result1 && result2 */\n    tag_28:\n        /* \"contracts/1-blockchain-messenger/1-boolean.sol\":640:647  newBool */\n      0x00\n      0x01\n        /* \"contracts/1-blockchain-messenger/1-boolean.sol\":640:668  newBool = result1 && result2 */\n      0x0100\n      exp\n      dup2\n      sload\n      dup2\n      0xff\n      mul\n      not\n      and\n      swap1\n      dup4\n      iszero\n      iszero\n      mul\n      or\n      swap1\n      sstore\n      pop\n        /* \"contracts/1-blockchain-messenger/1-boolean.sol\":691:698  result1 */\n      dup2\n        /* \"contracts/1-blockchain-messenger/1-boolean.sol\":691:709  result1 || result2 */\n      dup1\n      tag_29\n      jumpi\n      pop\n        /* \"contracts/1-blockchain-messenger/1-boolean.sol\":702:709  result2 */\n      dup1\n        /* \"contracts/1-blockchain-messenger/1-boolean.sol\":691:709  result1 || result2 */\n    tag_29:\n        /* \"contracts/1-blockchain-messenger/1-boolean.sol\":689:710  !(result1 || result2) */\n      iszero\n        /* \"contracts/1-blockchain-messenger/1-boolean.sol\":678:686  newBool2 */\n      0x00\n      0x02\n        /* \"contracts/1-blockchain-messenger/1-boolean.sol\":678:710  newBool2 = !(result1 || result2) */\n      0x0100\n      exp\n      dup2\n      sload\n      dup2\n      0xff\n      mul\n      not\n      and\n      swap1\n      dup4\n      iszero\n      iszero\n      mul\n      or\n      swap1\n      sstore\n      pop\n        /* \"contracts/1-blockchain-messenger/1-boolean.sol\":550:717  function operateBool(bool result1, bool result2) public { // parameters ... */\n      pop\n      pop\n      jump\t// out\n        /* \"contracts/1-blockchain-messenger/1-boolean.sol\":468:489  bool public  newBool2 */\n    tag_24:\n      0x00\n      0x02\n      swap1\n      sload\n      swap1\n      0x0100\n      exp\n      swap1\n      div\n      0xff\n      and\n      dup2\n      jump\t// out\n        /* \"#utility.yul\":7:97   */\n    tag_30:\n        /* \"#utility.yul\":41:48   */\n      0x00\n        /* \"#utility.yul\":84:89   */\n      dup2\n        /* \"#utility.yul\":77:90   */\n      iszero\n        /* \"#utility.yul\":70:91   */\n      iszero\n        /* \"#utility.yul\":59:91   */\n      swap1\n      pop\n        /* \"#utility.yul\":7:97   */\n      swap2\n      swap1\n      pop\n      jump\t// out\n        /* \"#utility.yul\":103:212   */\n    tag_31:\n        /* \"#utility.yul\":184:205   */\n      tag_40\n        /* \"#utility.yul\":199:204   */\n      dup2\n        /* \"#utility.yul\":184:205   */\n      tag_30\n      jump\t// in\n    tag_40:\n        /* \"#utility.yul\":179:182   */\n      dup3\n        /* \"#utility.yul\":172:206   */\n      mstore\n        /* \"#utility.yul\":103:212   */\n      pop\n      pop\n      jump\t// out\n        /* \"#utility.yul\":218:428   */\n    tag_11:\n        /* \"#utility.yul\":305:309   */\n      0x00\n        /* \"#utility.yul\":343:345   */\n      0x20\n        /* \"#utility.yul\":332:341   */\n      dup3\n        /* \"#utility.yul\":328:346   */\n      add\n        /* \"#utility.yul\":320:346   */\n      swap1\n      pop\n        /* \"#utility.yul\":356:421   */\n      tag_42\n        /* \"#utility.yul\":418:419   */\n      0x00\n        /* \"#utility.yul\":407:416   */\n      dup4\n        /* \"#utility.yul\":403:420   */\n      add\n        /* \"#utility.yul\":394:400   */\n      dup5\n        /* \"#utility.yul\":356:421   */\n      tag_31\n      jump\t// in\n    tag_42:\n        /* \"#utility.yul\":218:428   */\n      swap3\n      swap2\n      pop\n      pop\n      jump\t// out\n        /* \"#utility.yul\":515:632   */\n    tag_33:\n        /* \"#utility.yul\":624:625   */\n      0x00\n        /* \"#utility.yul\":621:622   */\n      dup1\n        /* \"#utility.yul\":614:626   */\n      revert\n        /* \"#utility.yul\":761:877   */\n    tag_35:\n        /* \"#utility.yul\":831:852   */\n      tag_47\n        /* \"#utility.yul\":846:851   */\n      dup2\n        /* \"#utility.yul\":831:852   */\n      tag_30\n      jump\t// in\n    tag_47:\n        /* \"#utility.yul\":824:829   */\n      dup2\n        /* \"#utility.yul\":821:853   */\n      eq\n        /* \"#utility.yul\":811:871   */\n      tag_48\n      jumpi\n        /* \"#utility.yul\":867:868   */\n      0x00\n        /* \"#utility.yul\":864:865   */\n      dup1\n        /* \"#utility.yul\":857:869   */\n      revert\n        /* \"#utility.yul\":811:871   */\n    tag_48:\n        /* \"#utility.yul\":761:877   */\n      pop\n      jump\t// out\n        /* \"#utility.yul\":883:1016   */\n    tag_36:\n        /* \"#utility.yul\":926:931   */\n      0x00\n        /* \"#utility.yul\":964:970   */\n      dup2\n        /* \"#utility.yul\":951:971   */\n      calldataload\n        /* \"#utility.yul\":942:971   */\n      swap1\n      pop\n        /* \"#utility.yul\":980:1010   */\n      tag_50\n        /* \"#utility.yul\":1004:1009   */\n      dup2\n        /* \"#utility.yul\":980:1010   */\n      tag_35\n      jump\t// in\n    tag_50:\n        /* \"#utility.yul\":883:1016   */\n      swap3\n      swap2\n      pop\n      pop\n      jump\t// out\n        /* \"#utility.yul\":1022:1345   */\n    tag_14:\n        /* \"#utility.yul\":1078:1084   */\n      0x00\n        /* \"#utility.yul\":1127:1129   */\n      0x20\n        /* \"#utility.yul\":1115:1124   */\n      dup3\n        /* \"#utility.yul\":1106:1113   */\n      dup5\n        /* \"#utility.yul\":1102:1125   */\n      sub\n        /* \"#utility.yul\":1098:1130   */\n      slt\n        /* \"#utility.yul\":1095:1214   */\n      iszero\n      tag_52\n      jumpi\n        /* \"#utility.yul\":1133:1212   */\n      tag_53\n      tag_33\n      jump\t// in\n    tag_53:\n        /* \"#utility.yul\":1095:1214   */\n    tag_52:\n        /* \"#utility.yul\":1253:1254   */\n      0x00\n        /* \"#utility.yul\":1278:1328   */\n      tag_54\n        /* \"#utility.yul\":1320:1327   */\n      dup5\n        /* \"#utility.yul\":1311:1317   */\n      dup3\n        /* \"#utility.yul\":1300:1309   */\n      dup6\n        /* \"#utility.yul\":1296:1318   */\n      add\n        /* \"#utility.yul\":1278:1328   */\n      tag_36\n      jump\t// in\n    tag_54:\n        /* \"#utility.yul\":1268:1328   */\n      swap2\n      pop\n        /* \"#utility.yul\":1224:1338   */\n      pop\n        /* \"#utility.yul\":1022:1345   */\n      swap3\n      swap2\n      pop\n      pop\n      jump\t// out\n        /* \"#utility.yul\":1351:1813   */\n    tag_21:\n        /* \"#utility.yul\":1413:1419   */\n      0x00\n        /* \"#utility.yul\":1421:1427   */\n      dup1\n        /* \"#utility.yul\":1470:1472   */\n      0x40\n        /* \"#utility.yul\":1458:1467   */\n      dup4\n        /* \"#utility.yul\":1449:1456   */\n      dup6\n        /* \"#utility.yul\":1445:1468   */\n      sub\n        /* \"#utility.yul\":1441:1473   */\n      slt\n        /* \"#utility.yul\":1438:1557   */\n      iszero\n      tag_56\n      jumpi\n        /* \"#utility.yul\":1476:1555   */\n      tag_57\n      tag_33\n      jump\t// in\n    tag_57:\n        /* \"#utility.yul\":1438:1557   */\n    tag_56:\n        /* \"#utility.yul\":1596:1597   */\n      0x00\n        /* \"#utility.yul\":1621:1671   */\n      tag_58\n        /* \"#utility.yul\":1663:1670   */\n      dup6\n        /* \"#utility.yul\":1654:1660   */\n      dup3\n        /* \"#utility.yul\":1643:1652   */\n      dup7\n        /* \"#utility.yul\":1639:1661   */\n      add\n        /* \"#utility.yul\":1621:1671   */\n      tag_36\n      jump\t// in\n    tag_58:\n        /* \"#utility.yul\":1611:1671   */\n      swap3\n      pop\n        /* \"#utility.yul\":1567:1681   */\n      pop\n        /* \"#utility.yul\":1720:1722   */\n      0x20\n        /* \"#utility.yul\":1746:1796   */\n      tag_59\n        /* \"#utility.yul\":1788:1795   */\n      dup6\n        /* \"#utility.yul\":1779:1785   */\n      dup3\n        /* \"#utility.yul\":1768:1777   */\n      dup7\n        /* \"#utility.yul\":1764:1786   */\n      add\n        /* \"#utility.yul\":1746:1796   */\n      tag_36\n      jump\t// in\n    tag_59:\n        /* \"#utility.yul\":1736:1796   */\n      swap2\n      pop\n        /* \"#utility.yul\":1691:1806   */\n      pop\n        /* \"#utility.yul\":1351:1813   */\n      swap3\n      pop\n      swap3\n      swap1\n      pop\n      jump\t// out\n\n    auxdata: 0xa26469706673582212200f7571e2c44f0ee444450621492ef7754c7b565b374dd28af4f090571d9508a264736f6c63430008180033\n}\n",
				"bytecode": {
					"linkReferences": {},
					"object": "608060405260015f806101000a81548160ff021916908315150217905550348015610028575f80fd5b50610282806100365f395ff3fe608060405234801561000f575f80fd5b5060043610610055575f3560e01c806310ae5638146100595780636d689779146100775780636deecdbe14610093578063a2539391146100b1578063d9a01eea146100cd575b5f80fd5b6100616100eb565b60405161006e919061019c565b60405180910390f35b610091600480360381019061008c91906101e3565b6100fd565b005b61009b610118565b6040516100a8919061019c565b60405180910390f35b6100cb60048036038101906100c6919061020e565b610128565b005b6100d5610170565b6040516100e2919061019c565b60405180910390f35b5f60019054906101000a900460ff1681565b805f806101000a81548160ff02191690831515021790555050565b5f8054906101000a900460ff1681565b8180156101325750805b5f60016101000a81548160ff02191690831515021790555081806101535750805b155f60026101000a81548160ff0219169083151502179055505050565b5f60029054906101000a900460ff1681565b5f8115159050919050565b61019681610182565b82525050565b5f6020820190506101af5f83018461018d565b92915050565b5f80fd5b6101c281610182565b81146101cc575f80fd5b50565b5f813590506101dd816101b9565b92915050565b5f602082840312156101f8576101f76101b5565b5b5f610205848285016101cf565b91505092915050565b5f8060408385031215610224576102236101b5565b5b5f610231858286016101cf565b9250506020610242858286016101cf565b915050925092905056fea26469706673582212200f7571e2c44f0ee444450621492ef7754c7b565b374dd28af4f090571d9508a264736f6c63430008180033",
					"opcodes": "PUSH1 0x80 PUSH1 0x40 MSTORE PUSH1 0x1 PUSH0 DUP1 PUSH2 0x100 EXP DUP2 SLOAD DUP2 PUSH1 0xFF MUL NOT AND SWAP1 DUP4 ISZERO ISZERO MUL OR SWAP1 SSTORE POP CALLVALUE DUP1 ISZERO PUSH2 0x28 JUMPI PUSH0 DUP1 REVERT JUMPDEST POP PUSH2 0x282 DUP1 PUSH2 0x36 PUSH0 CODECOPY PUSH0 RETURN INVALID PUSH1 0x80 PUSH1 0x40 MSTORE CALLVALUE DUP1 ISZERO PUSH2 0xF JUMPI PUSH0 DUP1 REVERT JUMPDEST POP PUSH1 0x4 CALLDATASIZE LT PUSH2 0x55 JUMPI PUSH0 CALLDATALOAD PUSH1 0xE0 SHR DUP1 PUSH4 0x10AE5638 EQ PUSH2 0x59 JUMPI DUP1 PUSH4 0x6D689779 EQ PUSH2 0x77 JUMPI DUP1 PUSH4 0x6DEECDBE EQ PUSH2 0x93 JUMPI DUP1 PUSH4 0xA2539391 EQ PUSH2 0xB1 JUMPI DUP1 PUSH4 0xD9A01EEA EQ PUSH2 0xCD JUMPI JUMPDEST PUSH0 DUP1 REVERT JUMPDEST PUSH2 0x61 PUSH2 0xEB JUMP JUMPDEST PUSH1 0x40 MLOAD PUSH2 0x6E SWAP2 SWAP1 PUSH2 0x19C JUMP JUMPDEST PUSH1 0x40 MLOAD DUP1 SWAP2 SUB SWAP1 RETURN JUMPDEST PUSH2 0x91 PUSH1 0x4 DUP1 CALLDATASIZE SUB DUP2 ADD SWAP1 PUSH2 0x8C SWAP2 SWAP1 PUSH2 0x1E3 JUMP JUMPDEST PUSH2 0xFD JUMP JUMPDEST STOP JUMPDEST PUSH2 0x9B PUSH2 0x118 JUMP JUMPDEST PUSH1 0x40 MLOAD PUSH2 0xA8 SWAP2 SWAP1 PUSH2 0x19C JUMP JUMPDEST PUSH1 0x40 MLOAD DUP1 SWAP2 SUB SWAP1 RETURN JUMPDEST PUSH2 0xCB PUSH1 0x4 DUP1 CALLDATASIZE SUB DUP2 ADD SWAP1 PUSH2 0xC6 SWAP2 SWAP1 PUSH2 0x20E JUMP JUMPDEST PUSH2 0x128 JUMP JUMPDEST STOP JUMPDEST PUSH2 0xD5 PUSH2 0x170 JUMP JUMPDEST PUSH1 0x40 MLOAD PUSH2 0xE2 SWAP2 SWAP1 PUSH2 0x19C JUMP JUMPDEST PUSH1 0x40 MLOAD DUP1 SWAP2 SUB SWAP1 RETURN JUMPDEST PUSH0 PUSH1 0x1 SWAP1 SLOAD SWAP1 PUSH2 0x100 EXP SWAP1 DIV PUSH1 0xFF AND DUP2 JUMP JUMPDEST DUP1 PUSH0 DUP1 PUSH2 0x100 EXP DUP2 SLOAD DUP2 PUSH1 0xFF MUL NOT AND SWAP1 DUP4 ISZERO ISZERO MUL OR SWAP1 SSTORE POP POP JUMP JUMPDEST PUSH0 DUP1 SLOAD SWAP1 PUSH2 0x100 EXP SWAP1 DIV PUSH1 0xFF AND DUP2 JUMP JUMPDEST DUP2 DUP1 ISZERO PUSH2 0x132 JUMPI POP DUP1 JUMPDEST PUSH0 PUSH1 0x1 PUSH2 0x100 EXP DUP2 SLOAD DUP2 PUSH1 0xFF MUL NOT AND SWAP1 DUP4 ISZERO ISZERO MUL OR SWAP1 SSTORE POP DUP2 DUP1 PUSH2 0x153 JUMPI POP DUP1 JUMPDEST ISZERO PUSH0 PUSH1 0x2 PUSH2 0x100 EXP DUP2 SLOAD DUP2 PUSH1 0xFF MUL NOT AND SWAP1 DUP4 ISZERO ISZERO MUL OR SWAP1 SSTORE POP POP POP JUMP JUMPDEST PUSH0 PUSH1 0x2 SWAP1 SLOAD SWAP1 PUSH2 0x100 EXP SWAP1 DIV PUSH1 0xFF AND DUP2 JUMP JUMPDEST PUSH0 DUP2 ISZERO ISZERO SWAP1 POP SWAP2 SWAP1 POP JUMP JUMPDEST PUSH2 0x196 DUP2 PUSH2 0x182 JUMP JUMPDEST DUP3 MSTORE POP POP JUMP JUMPDEST PUSH0 PUSH1 0x20 DUP3 ADD SWAP1 POP PUSH2 0x1AF PUSH0 DUP4 ADD DUP5 PUSH2 0x18D JUMP JUMPDEST SWAP3 SWAP2 POP POP JUMP JUMPDEST PUSH0 DUP1 REVERT JUMPDEST PUSH2 0x1C2 DUP2 PUSH2 0x182 JUMP JUMPDEST DUP2 EQ PUSH2 0x1CC JUMPI PUSH0 DUP1 REVERT JUMPDEST POP JUMP JUMPDEST PUSH0 DUP2 CALLDATALOAD SWAP1 POP PUSH2 0x1DD DUP2 PUSH2 0x1B9 JUMP JUMPDEST SWAP3 SWAP2 POP POP JUMP JUMPDEST PUSH0 PUSH1 0x20 DUP3 DUP5 SUB SLT ISZERO PUSH2 0x1F8 JUMPI PUSH2 0x1F7 PUSH2 0x1B5 JUMP JUMPDEST JUMPDEST PUSH0 PUSH2 0x205 DUP5 DUP3 DUP6 ADD PUSH2 0x1CF JUMP JUMPDEST SWAP2 POP POP SWAP3 SWAP2 POP POP JUMP JUMPDEST PUSH0 DUP1 PUSH1 0x40 DUP4 DUP6 SUB SLT ISZERO PUSH2 0x224 JUMPI PUSH2 0x223 PUSH2 0x1B5 JUMP JUMPDEST JUMPDEST PUSH0 PUSH2 0x231 DUP6 DUP3 DUP7 ADD PUSH2 0x1CF JUMP JUMPDEST SWAP3 POP POP PUSH1 0x20 PUSH2 0x242 DUP6 DUP3 DUP7 ADD PUSH2 0x1CF JUMP JUMPDEST SWAP2 POP POP SWAP3 POP SWAP3 SWAP1 POP JUMP INVALID LOG2 PUSH5 0x6970667358 0x22 SLT KECCAK256 0xF PUSH22 0x71E2C44F0EE444450621492EF7754C7B565B374DD28A DELEGATECALL CREATE SWAP1 JUMPI SAR SWAP6 ADDMOD LOG2 PUSH5 0x736F6C6343 STOP ADDMOD XOR STOP CALLER "
				},
				"gasEstimates": {
					"creation": {
						"codeDepositCost": "128400",
						"executionCost": "24441",
						"totalCost": "152841"
					},
					"external": {
						"changeBool(bool)": "24673",
						"myBool()": "2485",
						"newBool()": "2494",
						"newBool2()": "2582",
						"operateBool(bool,bool)": "infinite"
					}
				},
				"methodIdentifiers": {
					"changeBool(bool)": "6d689779",
					"myBool()": "6deecdbe",
					"newBool()": "10ae5638",
					"newBool2()": "d9a01eea",
					"operateBool(bool,bool)": "a2539391"
				}
			},
			"storageLayout": {
				"storage": [
					{
						"astId": 4,
						"contract": "contracts/1-blockchain-messenger/1-boolean.sol:ExampleBoolean",
						"label": "myBool",
						"offset": 0,
						"slot": "0",
						"type": "t_bool"
					},
					{
						"astId": 16,
						"contract": "contracts/1-blockchain-messenger/1-boolean.sol:ExampleBoolean",
						"label": "newBool",
						"offset": 1,
						"slot": "0",
						"type": "t_bool"
					},
					{
						"astId": 18,
						"contract": "contracts/1-blockchain-messenger/1-boolean.sol:ExampleBoolean",
						"label": "newBool2",
						"offset": 2,
						"slot": "0",
						"type": "t_bool"
					}
				],
				"types": {
					"t_bool": {
						"encoding": "inplace",
						"label": "bool",
						"numberOfBytes": "1"
					}
				}
			},
			"userdoc": {
				"kind": "user",
				"methods": {},
				"version": 1
			}
		}
	}
}