{
	"contracts/1-blockchain-messenger/2-integers.sol": {
		"Integer": {
			"abi": [
				{
					"inputs": [],
					"name": "increaseInt",
					"outputs": [],
					"stateMutability": "nonpayable",
					"type": "function"
				},
				{
					"inputs": [],
					"name": "minusFunc",
					"outputs": [],
					"stateMutability": "nonpayable",
					"type": "function"
				},
				{
					"inputs": [],
					"name": "myInt",
					"outputs": [
						{
							"internalType": "int256",
							"name": "",
							"type": "int256"
						}
					],
					"stateMutability": "view",
					"type": "function"
				},
				{
					"inputs": [
						{
							"internalType": "uint256",
							"name": "_myUnit",
							"type": "uint256"
						},
						{
							"internalType": "int256",
							"name": "_myInt",
							"type": "int256"
						}
					],
					"name": "myInteger",
					"outputs": [],
					"stateMutability": "nonpayable",
					"type": "function"
				},
				{
					"inputs": [],
					"name": "myUint",
					"outputs": [
						{
							"internalType": "uint256",
							"name": "",
							"type": "uint256"
						}
					],
					"stateMutability": "view",
					"type": "function"
				}
			],
			"devdoc": {
				"kind": "dev",
				"methods": {},
				"version": 1
			},
			"evm": {
				"assembly": "    /* \"contracts/1-blockchain-messenger/2-integers.sol\":57:1220  contract Integer {... */\n  mstore(0x40, 0x80)\n  callvalue\n  dup1\n  iszero\n  tag_1\n  jumpi\n  0x00\n  dup1\n  revert\ntag_1:\n  pop\n  dataSize(sub_0)\n  dup1\n  dataOffset(sub_0)\n  0x00\n  codecopy\n  0x00\n  return\nstop\n\nsub_0: assembly {\n        /* \"contracts/1-blockchain-messenger/2-integers.sol\":57:1220  contract Integer {... */\n      mstore(0x40, 0x80)\n      callvalue\n      dup1\n      iszero\n      tag_1\n      jumpi\n      0x00\n      dup1\n      revert\n    tag_1:\n      pop\n      jumpi(tag_2, lt(calldatasize, 0x04))\n      shr(0xe0, calldataload(0x00))\n      dup1\n      0x06540f7e\n      eq\n      tag_3\n      jumpi\n      dup1\n      0x2782354a\n      eq\n      tag_4\n      jumpi\n      dup1\n      0x2cb777a6\n      eq\n      tag_5\n      jumpi\n      dup1\n      0x7e7f61d7\n      eq\n      tag_6\n      jumpi\n      dup1\n      0xdcb9a850\n      eq\n      tag_7\n      jumpi\n    tag_2:\n      0x00\n      dup1\n      revert\n        /* \"contracts/1-blockchain-messenger/2-integers.sol\":81:100  uint public  myUint */\n    tag_3:\n      tag_8\n      tag_9\n      jump\t// in\n    tag_8:\n      mload(0x40)\n      tag_10\n      swap2\n      swap1\n      tag_11\n      jump\t// in\n    tag_10:\n      mload(0x40)\n      dup1\n      swap2\n      sub\n      swap1\n      return\n        /* \"contracts/1-blockchain-messenger/2-integers.sol\":1042:1217  function minusFunc() public {... */\n    tag_4:\n      tag_12\n      tag_13\n      jump\t// in\n    tag_12:\n      stop\n        /* \"contracts/1-blockchain-messenger/2-integers.sol\":173:189  int public myInt */\n    tag_5:\n      tag_14\n      tag_15\n      jump\t// in\n    tag_14:\n      mload(0x40)\n      tag_16\n      swap2\n      swap1\n      tag_17\n      jump\t// in\n    tag_16:\n      mload(0x40)\n      dup1\n      swap2\n      sub\n      swap1\n      return\n        /* \"contracts/1-blockchain-messenger/2-integers.sol\":843:952  function myInteger(uint _myUnit, int _myInt) public {... */\n    tag_6:\n      tag_18\n      0x04\n      dup1\n      calldatasize\n      sub\n      dup2\n      add\n      swap1\n      tag_19\n      swap2\n      swap1\n      tag_20\n      jump\t// in\n    tag_19:\n      tag_21\n      jump\t// in\n    tag_18:\n      stop\n        /* \"contracts/1-blockchain-messenger/2-integers.sol\":958:1036  function increaseInt() public {... */\n    tag_7:\n      tag_22\n      tag_23\n      jump\t// in\n    tag_22:\n      stop\n        /* \"contracts/1-blockchain-messenger/2-integers.sol\":81:100  uint public  myUint */\n    tag_9:\n      sload(0x00)\n      dup2\n      jump\t// out\n        /* \"contracts/1-blockchain-messenger/2-integers.sol\":1042:1217  function minusFunc() public {... */\n    tag_13:\n        /* \"contracts/1-blockchain-messenger/2-integers.sol\":1114:1115  1 */\n      0x01\n        /* \"contracts/1-blockchain-messenger/2-integers.sol\":1104:1110  myUint */\n      0x00\n      dup1\n        /* \"contracts/1-blockchain-messenger/2-integers.sol\":1104:1115  myUint -= 1 */\n      dup3\n      dup3\n      sload\n      sub\n      swap3\n      pop\n      pop\n      dup2\n      swap1\n      sstore\n      pop\n        /* \"contracts/1-blockchain-messenger/2-integers.sol\":1042:1217  function minusFunc() public {... */\n      jump\t// out\n        /* \"contracts/1-blockchain-messenger/2-integers.sol\":173:189  int public myInt */\n    tag_15:\n      sload(0x01)\n      dup2\n      jump\t// out\n        /* \"contracts/1-blockchain-messenger/2-integers.sol\":843:952  function myInteger(uint _myUnit, int _myInt) public {... */\n    tag_21:\n        /* \"contracts/1-blockchain-messenger/2-integers.sol\":913:919  _myInt */\n      dup1\n        /* \"contracts/1-blockchain-messenger/2-integers.sol\":905:910  myInt */\n      0x01\n        /* \"contracts/1-blockchain-messenger/2-integers.sol\":905:919  myInt = _myInt */\n      dup2\n      swap1\n      sstore\n      pop\n        /* \"contracts/1-blockchain-messenger/2-integers.sol\":938:945  _myUnit */\n      dup2\n        /* \"contracts/1-blockchain-messenger/2-integers.sol\":929:935  myUint */\n      0x00\n        /* \"contracts/1-blockchain-messenger/2-integers.sol\":929:945  myUint = _myUnit */\n      dup2\n      swap1\n      sstore\n      pop\n        /* \"contracts/1-blockchain-messenger/2-integers.sol\":843:952  function myInteger(uint _myUnit, int _myInt) public {... */\n      pop\n      pop\n      jump\t// out\n        /* \"contracts/1-blockchain-messenger/2-integers.sol\":958:1036  function increaseInt() public {... */\n    tag_23:\n        /* \"contracts/1-blockchain-messenger/2-integers.sol\":1007:1008  1 */\n      0x01\n        /* \"contracts/1-blockchain-messenger/2-integers.sol\":998:1003  myInt */\n      dup1\n      0x00\n        /* \"contracts/1-blockchain-messenger/2-integers.sol\":998:1008  myInt += 1 */\n      dup3\n      dup3\n      sload\n      tag_27\n      swap2\n      swap1\n      tag_28\n      jump\t// in\n    tag_27:\n      swap3\n      pop\n      pop\n      dup2\n      swap1\n      sstore\n      pop\n        /* \"contracts/1-blockchain-messenger/2-integers.sol\":1028:1029  1 */\n      0x01\n        /* \"contracts/1-blockchain-messenger/2-integers.sol\":1018:1024  myUint */\n      0x00\n      dup1\n        /* \"contracts/1-blockchain-messenger/2-integers.sol\":1018:1029  myUint += 1 */\n      dup3\n      dup3\n      sload\n      tag_29\n      swap2\n      swap1\n      tag_30\n      jump\t// in\n    tag_29:\n      swap3\n      pop\n      pop\n      dup2\n      swap1\n      sstore\n      pop\n        /* \"contracts/1-blockchain-messenger/2-integers.sol\":958:1036  function increaseInt() public {... */\n      jump\t// out\n        /* \"#utility.yul\":7:84   */\n    tag_31:\n        /* \"#utility.yul\":44:51   */\n      0x00\n        /* \"#utility.yul\":73:78   */\n      dup2\n        /* \"#utility.yul\":62:78   */\n      swap1\n      pop\n        /* \"#utility.yul\":7:84   */\n      swap2\n      swap1\n      pop\n      jump\t// out\n        /* \"#utility.yul\":90:208   */\n    tag_32:\n        /* \"#utility.yul\":177:201   */\n      tag_46\n        /* \"#utility.yul\":195:200   */\n      dup2\n        /* \"#utility.yul\":177:201   */\n      tag_31\n      jump\t// in\n    tag_46:\n        /* \"#utility.yul\":172:175   */\n      dup3\n        /* \"#utility.yul\":165:202   */\n      mstore\n        /* \"#utility.yul\":90:208   */\n      pop\n      pop\n      jump\t// out\n        /* \"#utility.yul\":214:436   */\n    tag_11:\n        /* \"#utility.yul\":307:311   */\n      0x00\n        /* \"#utility.yul\":345:347   */\n      0x20\n        /* \"#utility.yul\":334:343   */\n      dup3\n        /* \"#utility.yul\":330:348   */\n      add\n        /* \"#utility.yul\":322:348   */\n      swap1\n      pop\n        /* \"#utility.yul\":358:429   */\n      tag_48\n        /* \"#utility.yul\":426:427   */\n      0x00\n        /* \"#utility.yul\":415:424   */\n      dup4\n        /* \"#utility.yul\":411:428   */\n      add\n        /* \"#utility.yul\":402:408   */\n      dup5\n        /* \"#utility.yul\":358:429   */\n      tag_32\n      jump\t// in\n    tag_48:\n        /* \"#utility.yul\":214:436   */\n      swap3\n      swap2\n      pop\n      pop\n      jump\t// out\n        /* \"#utility.yul\":442:518   */\n    tag_33:\n        /* \"#utility.yul\":478:485   */\n      0x00\n        /* \"#utility.yul\":507:512   */\n      dup2\n        /* \"#utility.yul\":496:512   */\n      swap1\n      pop\n        /* \"#utility.yul\":442:518   */\n      swap2\n      swap1\n      pop\n      jump\t// out\n        /* \"#utility.yul\":524:639   */\n    tag_34:\n        /* \"#utility.yul\":609:632   */\n      tag_51\n        /* \"#utility.yul\":626:631   */\n      dup2\n        /* \"#utility.yul\":609:632   */\n      tag_33\n      jump\t// in\n    tag_51:\n        /* \"#utility.yul\":604:607   */\n      dup3\n        /* \"#utility.yul\":597:633   */\n      mstore\n        /* \"#utility.yul\":524:639   */\n      pop\n      pop\n      jump\t// out\n        /* \"#utility.yul\":645:863   */\n    tag_17:\n        /* \"#utility.yul\":736:740   */\n      0x00\n        /* \"#utility.yul\":774:776   */\n      0x20\n        /* \"#utility.yul\":763:772   */\n      dup3\n        /* \"#utility.yul\":759:777   */\n      add\n        /* \"#utility.yul\":751:777   */\n      swap1\n      pop\n        /* \"#utility.yul\":787:856   */\n      tag_53\n        /* \"#utility.yul\":853:854   */\n      0x00\n        /* \"#utility.yul\":842:851   */\n      dup4\n        /* \"#utility.yul\":838:855   */\n      add\n        /* \"#utility.yul\":829:835   */\n      dup5\n        /* \"#utility.yul\":787:856   */\n      tag_34\n      jump\t// in\n    tag_53:\n        /* \"#utility.yul\":645:863   */\n      swap3\n      swap2\n      pop\n      pop\n      jump\t// out\n        /* \"#utility.yul\":950:1067   */\n    tag_36:\n        /* \"#utility.yul\":1059:1060   */\n      0x00\n        /* \"#utility.yul\":1056:1057   */\n      dup1\n        /* \"#utility.yul\":1049:1061   */\n      revert\n        /* \"#utility.yul\":1196:1318   */\n    tag_38:\n        /* \"#utility.yul\":1269:1293   */\n      tag_58\n        /* \"#utility.yul\":1287:1292   */\n      dup2\n        /* \"#utility.yul\":1269:1293   */\n      tag_31\n      jump\t// in\n    tag_58:\n        /* \"#utility.yul\":1262:1267   */\n      dup2\n        /* \"#utility.yul\":1259:1294   */\n      eq\n        /* \"#utility.yul\":1249:1312   */\n      tag_59\n      jumpi\n        /* \"#utility.yul\":1308:1309   */\n      0x00\n        /* \"#utility.yul\":1305:1306   */\n      dup1\n        /* \"#utility.yul\":1298:1310   */\n      revert\n        /* \"#utility.yul\":1249:1312   */\n    tag_59:\n        /* \"#utility.yul\":1196:1318   */\n      pop\n      jump\t// out\n        /* \"#utility.yul\":1324:1463   */\n    tag_39:\n        /* \"#utility.yul\":1370:1375   */\n      0x00\n        /* \"#utility.yul\":1408:1414   */\n      dup2\n        /* \"#utility.yul\":1395:1415   */\n      calldataload\n        /* \"#utility.yul\":1386:1415   */\n      swap1\n      pop\n        /* \"#utility.yul\":1424:1457   */\n      tag_61\n        /* \"#utility.yul\":1451:1456   */\n      dup2\n        /* \"#utility.yul\":1424:1457   */\n      tag_38\n      jump\t// in\n    tag_61:\n        /* \"#utility.yul\":1324:1463   */\n      swap3\n      swap2\n      pop\n      pop\n      jump\t// out\n        /* \"#utility.yul\":1469:1589   */\n    tag_40:\n        /* \"#utility.yul\":1541:1564   */\n      tag_63\n        /* \"#utility.yul\":1558:1563   */\n      dup2\n        /* \"#utility.yul\":1541:1564   */\n      tag_33\n      jump\t// in\n    tag_63:\n        /* \"#utility.yul\":1534:1539   */\n      dup2\n        /* \"#utility.yul\":1531:1565   */\n      eq\n        /* \"#utility.yul\":1521:1583   */\n      tag_64\n      jumpi\n        /* \"#utility.yul\":1579:1580   */\n      0x00\n        /* \"#utility.yul\":1576:1577   */\n      dup1\n        /* \"#utility.yul\":1569:1581   */\n      revert\n        /* \"#utility.yul\":1521:1583   */\n    tag_64:\n        /* \"#utility.yul\":1469:1589   */\n      pop\n      jump\t// out\n        /* \"#utility.yul\":1595:1732   */\n    tag_41:\n        /* \"#utility.yul\":1640:1645   */\n      0x00\n        /* \"#utility.yul\":1678:1684   */\n      dup2\n        /* \"#utility.yul\":1665:1685   */\n      calldataload\n        /* \"#utility.yul\":1656:1685   */\n      swap1\n      pop\n        /* \"#utility.yul\":1694:1726   */\n      tag_66\n        /* \"#utility.yul\":1720:1725   */\n      dup2\n        /* \"#utility.yul\":1694:1726   */\n      tag_40\n      jump\t// in\n    tag_66:\n        /* \"#utility.yul\":1595:1732   */\n      swap3\n      swap2\n      pop\n      pop\n      jump\t// out\n        /* \"#utility.yul\":1738:2210   */\n    tag_20:\n        /* \"#utility.yul\":1805:1811   */\n      0x00\n        /* \"#utility.yul\":1813:1819   */\n      dup1\n        /* \"#utility.yul\":1862:1864   */\n      0x40\n        /* \"#utility.yul\":1850:1859   */\n      dup4\n        /* \"#utility.yul\":1841:1848   */\n      dup6\n        /* \"#utility.yul\":1837:1860   */\n      sub\n        /* \"#utility.yul\":1833:1865   */\n      slt\n        /* \"#utility.yul\":1830:1949   */\n      iszero\n      tag_68\n      jumpi\n        /* \"#utility.yul\":1868:1947   */\n      tag_69\n      tag_36\n      jump\t// in\n    tag_69:\n        /* \"#utility.yul\":1830:1949   */\n    tag_68:\n        /* \"#utility.yul\":1988:1989   */\n      0x00\n        /* \"#utility.yul\":2013:2066   */\n      tag_70\n        /* \"#utility.yul\":2058:2065   */\n      dup6\n        /* \"#utility.yul\":2049:2055   */\n      dup3\n        /* \"#utility.yul\":2038:2047   */\n      dup7\n        /* \"#utility.yul\":2034:2056   */\n      add\n        /* \"#utility.yul\":2013:2066   */\n      tag_39\n      jump\t// in\n    tag_70:\n        /* \"#utility.yul\":2003:2066   */\n      swap3\n      pop\n        /* \"#utility.yul\":1959:2076   */\n      pop\n        /* \"#utility.yul\":2115:2117   */\n      0x20\n        /* \"#utility.yul\":2141:2193   */\n      tag_71\n        /* \"#utility.yul\":2185:2192   */\n      dup6\n        /* \"#utility.yul\":2176:2182   */\n      dup3\n        /* \"#utility.yul\":2165:2174   */\n      dup7\n        /* \"#utility.yul\":2161:2183   */\n      add\n        /* \"#utility.yul\":2141:2193   */\n      tag_41\n      jump\t// in\n    tag_71:\n        /* \"#utility.yul\":2131:2193   */\n      swap2\n      pop\n        /* \"#utility.yul\":2086:2203   */\n      pop\n        /* \"#utility.yul\":1738:2210   */\n      swap3\n      pop\n      swap3\n      swap1\n      pop\n      jump\t// out\n        /* \"#utility.yul\":2216:2396   */\n    tag_42:\n        /* \"#utility.yul\":2264:2341   */\n      0x4e487b7100000000000000000000000000000000000000000000000000000000\n        /* \"#utility.yul\":2261:2262   */\n      0x00\n        /* \"#utility.yul\":2254:2342   */\n      mstore\n        /* \"#utility.yul\":2361:2365   */\n      0x11\n        /* \"#utility.yul\":2358:2359   */\n      0x04\n        /* \"#utility.yul\":2351:2366   */\n      mstore\n        /* \"#utility.yul\":2385:2389   */\n      0x24\n        /* \"#utility.yul\":2382:2383   */\n      0x00\n        /* \"#utility.yul\":2375:2390   */\n      revert\n        /* \"#utility.yul\":2402:2777   */\n    tag_28:\n        /* \"#utility.yul\":2441:2444   */\n      0x00\n        /* \"#utility.yul\":2460:2479   */\n      tag_74\n        /* \"#utility.yul\":2477:2478   */\n      dup3\n        /* \"#utility.yul\":2460:2479   */\n      tag_33\n      jump\t// in\n    tag_74:\n        /* \"#utility.yul\":2455:2479   */\n      swap2\n      pop\n        /* \"#utility.yul\":2493:2512   */\n      tag_75\n        /* \"#utility.yul\":2510:2511   */\n      dup4\n        /* \"#utility.yul\":2493:2512   */\n      tag_33\n      jump\t// in\n    tag_75:\n        /* \"#utility.yul\":2488:2512   */\n      swap3\n      pop\n        /* \"#utility.yul\":2535:2536   */\n      dup3\n        /* \"#utility.yul\":2532:2533   */\n      dup3\n        /* \"#utility.yul\":2528:2537   */\n      add\n        /* \"#utility.yul\":2521:2537   */\n      swap1\n      pop\n        /* \"#utility.yul\":2733:2734   */\n      dup3\n        /* \"#utility.yul\":2728:2731   */\n      dup2\n        /* \"#utility.yul\":2724:2735   */\n      slt\n        /* \"#utility.yul\":2717:2736   */\n      iszero\n        /* \"#utility.yul\":2713:2714   */\n      0x00\n        /* \"#utility.yul\":2710:2711   */\n      dup4\n        /* \"#utility.yul\":2706:2715   */\n      slt\n        /* \"#utility.yul\":2702:2737   */\n      and\n        /* \"#utility.yul\":2685:2686   */\n      dup4\n        /* \"#utility.yul\":2680:2683   */\n      dup3\n        /* \"#utility.yul\":2676:2687   */\n      slt\n        /* \"#utility.yul\":2671:2672   */\n      0x00\n        /* \"#utility.yul\":2668:2669   */\n      dup5\n        /* \"#utility.yul\":2664:2673   */\n      slt\n        /* \"#utility.yul\":2657:2674   */\n      iszero\n        /* \"#utility.yul\":2653:2688   */\n      and\n        /* \"#utility.yul\":2637:2747   */\n      or\n        /* \"#utility.yul\":2634:2770   */\n      iszero\n      tag_76\n      jumpi\n        /* \"#utility.yul\":2750:2768   */\n      tag_77\n      tag_42\n      jump\t// in\n    tag_77:\n        /* \"#utility.yul\":2634:2770   */\n    tag_76:\n        /* \"#utility.yul\":2402:2777   */\n      swap3\n      swap2\n      pop\n      pop\n      jump\t// out\n        /* \"#utility.yul\":2783:2974   */\n    tag_30:\n        /* \"#utility.yul\":2823:2826   */\n      0x00\n        /* \"#utility.yul\":2842:2862   */\n      tag_79\n        /* \"#utility.yul\":2860:2861   */\n      dup3\n        /* \"#utility.yul\":2842:2862   */\n      tag_31\n      jump\t// in\n    tag_79:\n        /* \"#utility.yul\":2837:2862   */\n      swap2\n      pop\n        /* \"#utility.yul\":2876:2896   */\n      tag_80\n        /* \"#utility.yul\":2894:2895   */\n      dup4\n        /* \"#utility.yul\":2876:2896   */\n      tag_31\n      jump\t// in\n    tag_80:\n        /* \"#utility.yul\":2871:2896   */\n      swap3\n      pop\n        /* \"#utility.yul\":2919:2920   */\n      dup3\n        /* \"#utility.yul\":2916:2917   */\n      dup3\n        /* \"#utility.yul\":2912:2921   */\n      add\n        /* \"#utility.yul\":2905:2921   */\n      swap1\n      pop\n        /* \"#utility.yul\":2940:2943   */\n      dup1\n        /* \"#utility.yul\":2937:2938   */\n      dup3\n        /* \"#utility.yul\":2934:2944   */\n      gt\n        /* \"#utility.yul\":2931:2967   */\n      iszero\n      tag_81\n      jumpi\n        /* \"#utility.yul\":2947:2965   */\n      tag_82\n      tag_42\n      jump\t// in\n    tag_82:\n        /* \"#utility.yul\":2931:2967   */\n    tag_81:\n        /* \"#utility.yul\":2783:2974   */\n      swap3\n      swap2\n      pop\n      pop\n      jump\t// out\n\n    auxdata: 0xa264697066735822122094a92678bcb1f6d31fa3d1bfa986f8b46f785f9bbe11ec618283d9253c73052764736f6c63430008180033\n}\n",
				"bytecode": {
					"linkReferences": {},
					"object": "608060405234801561000f575f80fd5b506102f38061001d5f395ff3fe608060405234801561000f575f80fd5b5060043610610055575f3560e01c806306540f7e146100595780632782354a146100775780632cb777a6146100815780637e7f61d71461009f578063dcb9a850146100bb575b5f80fd5b6100616100c5565b60405161006e919061013c565b60405180910390f35b61007f6100ca565b005b6100896100db565b604051610096919061016d565b60405180910390f35b6100b960048036038101906100b491906101de565b6100e1565b005b6100c36100f2565b005b5f5481565b60015f808282540392505081905550565b60015481565b80600181905550815f819055505050565b6001805f8282546101039190610249565b9250508190555060015f8082825461011b919061028a565b92505081905550565b5f819050919050565b61013681610124565b82525050565b5f60208201905061014f5f83018461012d565b92915050565b5f819050919050565b61016781610155565b82525050565b5f6020820190506101805f83018461015e565b92915050565b5f80fd5b61019381610124565b811461019d575f80fd5b50565b5f813590506101ae8161018a565b92915050565b6101bd81610155565b81146101c7575f80fd5b50565b5f813590506101d8816101b4565b92915050565b5f80604083850312156101f4576101f3610186565b5b5f610201858286016101a0565b9250506020610212858286016101ca565b9150509250929050565b7f4e487b71000000000000000000000000000000000000000000000000000000005f52601160045260245ffd5b5f61025382610155565b915061025e83610155565b92508282019050828112155f8312168382125f8412151617156102845761028361021c565b5b92915050565b5f61029482610124565b915061029f83610124565b92508282019050808211156102b7576102b661021c565b5b9291505056fea264697066735822122094a92678bcb1f6d31fa3d1bfa986f8b46f785f9bbe11ec618283d9253c73052764736f6c63430008180033",
					"opcodes": "PUSH1 0x80 PUSH1 0x40 MSTORE CALLVALUE DUP1 ISZERO PUSH2 0xF JUMPI PUSH0 DUP1 REVERT JUMPDEST POP PUSH2 0x2F3 DUP1 PUSH2 0x1D PUSH0 CODECOPY PUSH0 RETURN INVALID PUSH1 0x80 PUSH1 0x40 MSTORE CALLVALUE DUP1 ISZERO PUSH2 0xF JUMPI PUSH0 DUP1 REVERT JUMPDEST POP PUSH1 0x4 CALLDATASIZE LT PUSH2 0x55 JUMPI PUSH0 CALLDATALOAD PUSH1 0xE0 SHR DUP1 PUSH4 0x6540F7E EQ PUSH2 0x59 JUMPI DUP1 PUSH4 0x2782354A EQ PUSH2 0x77 JUMPI DUP1 PUSH4 0x2CB777A6 EQ PUSH2 0x81 JUMPI DUP1 PUSH4 0x7E7F61D7 EQ PUSH2 0x9F JUMPI DUP1 PUSH4 0xDCB9A850 EQ PUSH2 0xBB JUMPI JUMPDEST PUSH0 DUP1 REVERT JUMPDEST PUSH2 0x61 PUSH2 0xC5 JUMP JUMPDEST PUSH1 0x40 MLOAD PUSH2 0x6E SWAP2 SWAP1 PUSH2 0x13C JUMP JUMPDEST PUSH1 0x40 MLOAD DUP1 SWAP2 SUB SWAP1 RETURN JUMPDEST PUSH2 0x7F PUSH2 0xCA JUMP JUMPDEST STOP JUMPDEST PUSH2 0x89 PUSH2 0xDB JUMP JUMPDEST PUSH1 0x40 MLOAD PUSH2 0x96 SWAP2 SWAP1 PUSH2 0x16D JUMP JUMPDEST PUSH1 0x40 MLOAD DUP1 SWAP2 SUB SWAP1 RETURN JUMPDEST PUSH2 0xB9 PUSH1 0x4 DUP1 CALLDATASIZE SUB DUP2 ADD SWAP1 PUSH2 0xB4 SWAP2 SWAP1 PUSH2 0x1DE JUMP JUMPDEST PUSH2 0xE1 JUMP JUMPDEST STOP JUMPDEST PUSH2 0xC3 PUSH2 0xF2 JUMP JUMPDEST STOP JUMPDEST PUSH0 SLOAD DUP2 JUMP JUMPDEST PUSH1 0x1 PUSH0 DUP1 DUP3 DUP3 SLOAD SUB SWAP3 POP POP DUP2 SWAP1 SSTORE POP JUMP JUMPDEST PUSH1 0x1 SLOAD DUP2 JUMP JUMPDEST DUP1 PUSH1 0x1 DUP2 SWAP1 SSTORE POP DUP2 PUSH0 DUP2 SWAP1 SSTORE POP POP POP JUMP JUMPDEST PUSH1 0x1 DUP1 PUSH0 DUP3 DUP3 SLOAD PUSH2 0x103 SWAP2 SWAP1 PUSH2 0x249 JUMP JUMPDEST SWAP3 POP POP DUP2 SWAP1 SSTORE POP PUSH1 0x1 PUSH0 DUP1 DUP3 DUP3 SLOAD PUSH2 0x11B SWAP2 SWAP1 PUSH2 0x28A JUMP JUMPDEST SWAP3 POP POP DUP2 SWAP1 SSTORE POP JUMP JUMPDEST PUSH0 DUP2 SWAP1 POP SWAP2 SWAP1 POP JUMP JUMPDEST PUSH2 0x136 DUP2 PUSH2 0x124 JUMP JUMPDEST DUP3 MSTORE POP POP JUMP JUMPDEST PUSH0 PUSH1 0x20 DUP3 ADD SWAP1 POP PUSH2 0x14F PUSH0 DUP4 ADD DUP5 PUSH2 0x12D JUMP JUMPDEST SWAP3 SWAP2 POP POP JUMP JUMPDEST PUSH0 DUP2 SWAP1 POP SWAP2 SWAP1 POP JUMP JUMPDEST PUSH2 0x167 DUP2 PUSH2 0x155 JUMP JUMPDEST DUP3 MSTORE POP POP JUMP JUMPDEST PUSH0 PUSH1 0x20 DUP3 ADD SWAP1 POP PUSH2 0x180 PUSH0 DUP4 ADD DUP5 PUSH2 0x15E JUMP JUMPDEST SWAP3 SWAP2 POP POP JUMP JUMPDEST PUSH0 DUP1 REVERT JUMPDEST PUSH2 0x193 DUP2 PUSH2 0x124 JUMP JUMPDEST DUP2 EQ PUSH2 0x19D JUMPI PUSH0 DUP1 REVERT JUMPDEST POP JUMP JUMPDEST PUSH0 DUP2 CALLDATALOAD SWAP1 POP PUSH2 0x1AE DUP2 PUSH2 0x18A JUMP JUMPDEST SWAP3 SWAP2 POP POP JUMP JUMPDEST PUSH2 0x1BD DUP2 PUSH2 0x155 JUMP JUMPDEST DUP2 EQ PUSH2 0x1C7 JUMPI PUSH0 DUP1 REVERT JUMPDEST POP JUMP JUMPDEST PUSH0 DUP2 CALLDATALOAD SWAP1 POP PUSH2 0x1D8 DUP2 PUSH2 0x1B4 JUMP JUMPDEST SWAP3 SWAP2 POP POP JUMP JUMPDEST PUSH0 DUP1 PUSH1 0x40 DUP4 DUP6 SUB SLT ISZERO PUSH2 0x1F4 JUMPI PUSH2 0x1F3 PUSH2 0x186 JUMP JUMPDEST JUMPDEST PUSH0 PUSH2 0x201 DUP6 DUP3 DUP7 ADD PUSH2 0x1A0 JUMP JUMPDEST SWAP3 POP POP PUSH1 0x20 PUSH2 0x212 DUP6 DUP3 DUP7 ADD PUSH2 0x1CA JUMP JUMPDEST SWAP2 POP POP SWAP3 POP SWAP3 SWAP1 POP JUMP JUMPDEST PUSH32 0x4E487B7100000000000000000000000000000000000000000000000000000000 PUSH0 MSTORE PUSH1 0x11 PUSH1 0x4 MSTORE PUSH1 0x24 PUSH0 REVERT JUMPDEST PUSH0 PUSH2 0x253 DUP3 PUSH2 0x155 JUMP JUMPDEST SWAP2 POP PUSH2 0x25E DUP4 PUSH2 0x155 JUMP JUMPDEST SWAP3 POP DUP3 DUP3 ADD SWAP1 POP DUP3 DUP2 SLT ISZERO PUSH0 DUP4 SLT AND DUP4 DUP3 SLT PUSH0 DUP5 SLT ISZERO AND OR ISZERO PUSH2 0x284 JUMPI PUSH2 0x283 PUSH2 0x21C JUMP JUMPDEST JUMPDEST SWAP3 SWAP2 POP POP JUMP JUMPDEST PUSH0 PUSH2 0x294 DUP3 PUSH2 0x124 JUMP JUMPDEST SWAP2 POP PUSH2 0x29F DUP4 PUSH2 0x124 JUMP JUMPDEST SWAP3 POP DUP3 DUP3 ADD SWAP1 POP DUP1 DUP3 GT ISZERO PUSH2 0x2B7 JUMPI PUSH2 0x2B6 PUSH2 0x21C JUMP JUMPDEST JUMPDEST SWAP3 SWAP2 POP POP JUMP INVALID LOG2 PUSH5 0x6970667358 0x22 SLT KECCAK256 SWAP5 0xA9 0x26 PUSH25 0xBCB1F6D31FA3D1BFA986F8B46F785F9BBE11EC618283D9253C PUSH20 0x52764736F6C6343000818003300000000000000 "
				},
				"gasEstimates": {
					"creation": {
						"codeDepositCost": "151000",
						"executionCost": "194",
						"totalCost": "151194"
					},
					"external": {
						"increaseInt()": "infinite",
						"minusFunc()": "24375",
						"myInt()": "2447",
						"myInteger(uint256,int256)": "44843",
						"myUint()": "2402"
					}
				},
				"methodIdentifiers": {
					"increaseInt()": "dcb9a850",
					"minusFunc()": "2782354a",
					"myInt()": "2cb777a6",
					"myInteger(uint256,int256)": "7e7f61d7",
					"myUint()": "06540f7e"
				}
			},
			"storageLayout": {
				"storage": [
					{
						"astId": 3,
						"contract": "contracts/1-blockchain-messenger/2-integers.sol:Integer",
						"label": "myUint",
						"offset": 0,
						"slot": "0",
						"type": "t_uint256"
					},
					{
						"astId": 5,
						"contract": "contracts/1-blockchain-messenger/2-integers.sol:Integer",
						"label": "myInt",
						"offset": 0,
						"slot": "1",
						"type": "t_int256"
					}
				],
				"types": {
					"t_int256": {
						"encoding": "inplace",
						"label": "int256",
						"numberOfBytes": "32"
					},
					"t_uint256": {
						"encoding": "inplace",
						"label": "uint256",
						"numberOfBytes": "32"
					}
				}
			},
			"userdoc": {
				"kind": "user",
				"methods": {},
				"version": 1
			}
		}
	}
}