{
	"contracts/1-blockchain-messenger/functions.sol": {
		"Example": {
			"abi": [
				{
					"inputs": [
						{
							"internalType": "int256",
							"name": "a",
							"type": "int256"
						},
						{
							"internalType": "int256",
							"name": "b",
							"type": "int256"
						}
					],
					"name": "addNumbers",
					"outputs": [
						{
							"internalType": "int256",
							"name": "",
							"type": "int256"
						}
					],
					"stateMutability": "pure",
					"type": "function"
				},
				{
					"inputs": [],
					"name": "getStorage",
					"outputs": [
						{
							"internalType": "uint256",
							"name": "",
							"type": "uint256"
						}
					],
					"stateMutability": "view",
					"type": "function"
				},
				{
					"inputs": [],
					"name": "myStorageVar",
					"outputs": [
						{
							"internalType": "uint256",
							"name": "",
							"type": "uint256"
						}
					],
					"stateMutability": "view",
					"type": "function"
				}
			],
			"devdoc": {
				"kind": "dev",
				"methods": {},
				"version": 1
			},
			"evm": {
				"assembly": "    /* \"contracts/1-blockchain-messenger/functions.sol\":148:539  contract Example {... */\n  mstore(0x40, 0x80)\n    /* \"contracts/1-blockchain-messenger/functions.sol\":199:201  56 */\n  0x38\n    /* \"contracts/1-blockchain-messenger/functions.sol\":172:201  uint public myStorageVar = 56 */\n  0x00\n  sstore\n    /* \"contracts/1-blockchain-messenger/functions.sol\":148:539  contract Example {... */\n  callvalue\n  dup1\n  iszero\n  tag_1\n  jumpi\n  0x00\n  dup1\n  revert\ntag_1:\n  pop\n  dataSize(sub_0)\n  dup1\n  dataOffset(sub_0)\n  0x00\n  codecopy\n  0x00\n  return\nstop\n\nsub_0: assembly {\n        /* \"contracts/1-blockchain-messenger/functions.sol\":148:539  contract Example {... */\n      mstore(0x40, 0x80)\n      callvalue\n      dup1\n      iszero\n      tag_1\n      jumpi\n      0x00\n      dup1\n      revert\n    tag_1:\n      pop\n      jumpi(tag_2, lt(calldatasize, 0x04))\n      shr(0xe0, calldataload(0x00))\n      dup1\n      0x3408f73a\n      eq\n      tag_3\n      jumpi\n      dup1\n      0x87636dd0\n      eq\n      tag_4\n      jumpi\n      dup1\n      0x9400c2e0\n      eq\n      tag_5\n      jumpi\n    tag_2:\n      0x00\n      dup1\n      revert\n        /* \"contracts/1-blockchain-messenger/functions.sol\":208:364  function getStorage() public view returns(uint) { //can access the contract variables and change the state of the contract... */\n    tag_3:\n      tag_6\n      tag_7\n      jump\t// in\n    tag_6:\n      mload(0x40)\n      tag_8\n      swap2\n      swap1\n      tag_9\n      jump\t// in\n    tag_8:\n      mload(0x40)\n      dup1\n      swap2\n      sub\n      swap1\n      return\n        /* \"contracts/1-blockchain-messenger/functions.sol\":172:201  uint public myStorageVar = 56 */\n    tag_4:\n      tag_10\n      tag_11\n      jump\t// in\n    tag_10:\n      mload(0x40)\n      tag_12\n      swap2\n      swap1\n      tag_9\n      jump\t// in\n    tag_12:\n      mload(0x40)\n      dup1\n      swap2\n      sub\n      swap1\n      return\n        /* \"contracts/1-blockchain-messenger/functions.sol\":370:537  function addNumbers(int a, int b) public pure returns(int) { //they are independent of the contract and do not need the contract variable... */\n    tag_5:\n      tag_13\n      0x04\n      dup1\n      calldatasize\n      sub\n      dup2\n      add\n      swap1\n      tag_14\n      swap2\n      swap1\n      tag_15\n      jump\t// in\n    tag_14:\n      tag_16\n      jump\t// in\n    tag_13:\n      mload(0x40)\n      tag_17\n      swap2\n      swap1\n      tag_18\n      jump\t// in\n    tag_17:\n      mload(0x40)\n      dup1\n      swap2\n      sub\n      swap1\n      return\n        /* \"contracts/1-blockchain-messenger/functions.sol\":208:364  function getStorage() public view returns(uint) { //can access the contract variables and change the state of the contract... */\n    tag_7:\n        /* \"contracts/1-blockchain-messenger/functions.sol\":250:254  uint */\n      0x00\n        /* \"contracts/1-blockchain-messenger/functions.sol\":345:357  myStorageVar */\n      dup1\n      sload\n        /* \"contracts/1-blockchain-messenger/functions.sol\":338:357  return myStorageVar */\n      swap1\n      pop\n        /* \"contracts/1-blockchain-messenger/functions.sol\":208:364  function getStorage() public view returns(uint) { //can access the contract variables and change the state of the contract... */\n      swap1\n      jump\t// out\n        /* \"contracts/1-blockchain-messenger/functions.sol\":172:201  uint public myStorageVar = 56 */\n    tag_11:\n      sload(0x00)\n      dup2\n      jump\t// out\n        /* \"contracts/1-blockchain-messenger/functions.sol\":370:537  function addNumbers(int a, int b) public pure returns(int) { //they are independent of the contract and do not need the contract variable... */\n    tag_16:\n        /* \"contracts/1-blockchain-messenger/functions.sol\":424:427  int */\n      0x00\n        /* \"contracts/1-blockchain-messenger/functions.sol\":525:526  b */\n      dup2\n        /* \"contracts/1-blockchain-messenger/functions.sol\":523:524  a */\n      dup4\n        /* \"contracts/1-blockchain-messenger/functions.sol\":523:526  a+b */\n      tag_21\n      swap2\n      swap1\n      tag_22\n      jump\t// in\n    tag_21:\n        /* \"contracts/1-blockchain-messenger/functions.sol\":516:526  return a+b */\n      swap1\n      pop\n        /* \"contracts/1-blockchain-messenger/functions.sol\":370:537  function addNumbers(int a, int b) public pure returns(int) { //they are independent of the contract and do not need the contract variable... */\n      swap3\n      swap2\n      pop\n      pop\n      jump\t// out\n        /* \"#utility.yul\":7:84   */\n    tag_23:\n        /* \"#utility.yul\":44:51   */\n      0x00\n        /* \"#utility.yul\":73:78   */\n      dup2\n        /* \"#utility.yul\":62:78   */\n      swap1\n      pop\n        /* \"#utility.yul\":7:84   */\n      swap2\n      swap1\n      pop\n      jump\t// out\n        /* \"#utility.yul\":90:208   */\n    tag_24:\n        /* \"#utility.yul\":177:201   */\n      tag_36\n        /* \"#utility.yul\":195:200   */\n      dup2\n        /* \"#utility.yul\":177:201   */\n      tag_23\n      jump\t// in\n    tag_36:\n        /* \"#utility.yul\":172:175   */\n      dup3\n        /* \"#utility.yul\":165:202   */\n      mstore\n        /* \"#utility.yul\":90:208   */\n      pop\n      pop\n      jump\t// out\n        /* \"#utility.yul\":214:436   */\n    tag_9:\n        /* \"#utility.yul\":307:311   */\n      0x00\n        /* \"#utility.yul\":345:347   */\n      0x20\n        /* \"#utility.yul\":334:343   */\n      dup3\n        /* \"#utility.yul\":330:348   */\n      add\n        /* \"#utility.yul\":322:348   */\n      swap1\n      pop\n        /* \"#utility.yul\":358:429   */\n      tag_38\n        /* \"#utility.yul\":426:427   */\n      0x00\n        /* \"#utility.yul\":415:424   */\n      dup4\n        /* \"#utility.yul\":411:428   */\n      add\n        /* \"#utility.yul\":402:408   */\n      dup5\n        /* \"#utility.yul\":358:429   */\n      tag_24\n      jump\t// in\n    tag_38:\n        /* \"#utility.yul\":214:436   */\n      swap3\n      swap2\n      pop\n      pop\n      jump\t// out\n        /* \"#utility.yul\":523:640   */\n    tag_26:\n        /* \"#utility.yul\":632:633   */\n      0x00\n        /* \"#utility.yul\":629:630   */\n      dup1\n        /* \"#utility.yul\":622:634   */\n      revert\n        /* \"#utility.yul\":769:845   */\n    tag_28:\n        /* \"#utility.yul\":805:812   */\n      0x00\n        /* \"#utility.yul\":834:839   */\n      dup2\n        /* \"#utility.yul\":823:839   */\n      swap1\n      pop\n        /* \"#utility.yul\":769:845   */\n      swap2\n      swap1\n      pop\n      jump\t// out\n        /* \"#utility.yul\":851:971   */\n    tag_29:\n        /* \"#utility.yul\":923:946   */\n      tag_44\n        /* \"#utility.yul\":940:945   */\n      dup2\n        /* \"#utility.yul\":923:946   */\n      tag_28\n      jump\t// in\n    tag_44:\n        /* \"#utility.yul\":916:921   */\n      dup2\n        /* \"#utility.yul\":913:947   */\n      eq\n        /* \"#utility.yul\":903:965   */\n      tag_45\n      jumpi\n        /* \"#utility.yul\":961:962   */\n      0x00\n        /* \"#utility.yul\":958:959   */\n      dup1\n        /* \"#utility.yul\":951:963   */\n      revert\n        /* \"#utility.yul\":903:965   */\n    tag_45:\n        /* \"#utility.yul\":851:971   */\n      pop\n      jump\t// out\n        /* \"#utility.yul\":977:1114   */\n    tag_30:\n        /* \"#utility.yul\":1022:1027   */\n      0x00\n        /* \"#utility.yul\":1060:1066   */\n      dup2\n        /* \"#utility.yul\":1047:1067   */\n      calldataload\n        /* \"#utility.yul\":1038:1067   */\n      swap1\n      pop\n        /* \"#utility.yul\":1076:1108   */\n      tag_47\n        /* \"#utility.yul\":1102:1107   */\n      dup2\n        /* \"#utility.yul\":1076:1108   */\n      tag_29\n      jump\t// in\n    tag_47:\n        /* \"#utility.yul\":977:1114   */\n      swap3\n      swap2\n      pop\n      pop\n      jump\t// out\n        /* \"#utility.yul\":1120:1590   */\n    tag_15:\n        /* \"#utility.yul\":1186:1192   */\n      0x00\n        /* \"#utility.yul\":1194:1200   */\n      dup1\n        /* \"#utility.yul\":1243:1245   */\n      0x40\n        /* \"#utility.yul\":1231:1240   */\n      dup4\n        /* \"#utility.yul\":1222:1229   */\n      dup6\n        /* \"#utility.yul\":1218:1241   */\n      sub\n        /* \"#utility.yul\":1214:1246   */\n      slt\n        /* \"#utility.yul\":1211:1330   */\n      iszero\n      tag_49\n      jumpi\n        /* \"#utility.yul\":1249:1328   */\n      tag_50\n      tag_26\n      jump\t// in\n    tag_50:\n        /* \"#utility.yul\":1211:1330   */\n    tag_49:\n        /* \"#utility.yul\":1369:1370   */\n      0x00\n        /* \"#utility.yul\":1394:1446   */\n      tag_51\n        /* \"#utility.yul\":1438:1445   */\n      dup6\n        /* \"#utility.yul\":1429:1435   */\n      dup3\n        /* \"#utility.yul\":1418:1427   */\n      dup7\n        /* \"#utility.yul\":1414:1436   */\n      add\n        /* \"#utility.yul\":1394:1446   */\n      tag_30\n      jump\t// in\n    tag_51:\n        /* \"#utility.yul\":1384:1446   */\n      swap3\n      pop\n        /* \"#utility.yul\":1340:1456   */\n      pop\n        /* \"#utility.yul\":1495:1497   */\n      0x20\n        /* \"#utility.yul\":1521:1573   */\n      tag_52\n        /* \"#utility.yul\":1565:1572   */\n      dup6\n        /* \"#utility.yul\":1556:1562   */\n      dup3\n        /* \"#utility.yul\":1545:1554   */\n      dup7\n        /* \"#utility.yul\":1541:1563   */\n      add\n        /* \"#utility.yul\":1521:1573   */\n      tag_30\n      jump\t// in\n    tag_52:\n        /* \"#utility.yul\":1511:1573   */\n      swap2\n      pop\n        /* \"#utility.yul\":1466:1583   */\n      pop\n        /* \"#utility.yul\":1120:1590   */\n      swap3\n      pop\n      swap3\n      swap1\n      pop\n      jump\t// out\n        /* \"#utility.yul\":1596:1711   */\n    tag_31:\n        /* \"#utility.yul\":1681:1704   */\n      tag_54\n        /* \"#utility.yul\":1698:1703   */\n      dup2\n        /* \"#utility.yul\":1681:1704   */\n      tag_28\n      jump\t// in\n    tag_54:\n        /* \"#utility.yul\":1676:1679   */\n      dup3\n        /* \"#utility.yul\":1669:1705   */\n      mstore\n        /* \"#utility.yul\":1596:1711   */\n      pop\n      pop\n      jump\t// out\n        /* \"#utility.yul\":1717:1935   */\n    tag_18:\n        /* \"#utility.yul\":1808:1812   */\n      0x00\n        /* \"#utility.yul\":1846:1848   */\n      0x20\n        /* \"#utility.yul\":1835:1844   */\n      dup3\n        /* \"#utility.yul\":1831:1849   */\n      add\n        /* \"#utility.yul\":1823:1849   */\n      swap1\n      pop\n        /* \"#utility.yul\":1859:1928   */\n      tag_56\n        /* \"#utility.yul\":1925:1926   */\n      0x00\n        /* \"#utility.yul\":1914:1923   */\n      dup4\n        /* \"#utility.yul\":1910:1927   */\n      add\n        /* \"#utility.yul\":1901:1907   */\n      dup5\n        /* \"#utility.yul\":1859:1928   */\n      tag_31\n      jump\t// in\n    tag_56:\n        /* \"#utility.yul\":1717:1935   */\n      swap3\n      swap2\n      pop\n      pop\n      jump\t// out\n        /* \"#utility.yul\":1941:2121   */\n    tag_32:\n        /* \"#utility.yul\":1989:2066   */\n      0x4e487b7100000000000000000000000000000000000000000000000000000000\n        /* \"#utility.yul\":1986:1987   */\n      0x00\n        /* \"#utility.yul\":1979:2067   */\n      mstore\n        /* \"#utility.yul\":2086:2090   */\n      0x11\n        /* \"#utility.yul\":2083:2084   */\n      0x04\n        /* \"#utility.yul\":2076:2091   */\n      mstore\n        /* \"#utility.yul\":2110:2114   */\n      0x24\n        /* \"#utility.yul\":2107:2108   */\n      0x00\n        /* \"#utility.yul\":2100:2115   */\n      revert\n        /* \"#utility.yul\":2127:2502   */\n    tag_22:\n        /* \"#utility.yul\":2166:2169   */\n      0x00\n        /* \"#utility.yul\":2185:2204   */\n      tag_59\n        /* \"#utility.yul\":2202:2203   */\n      dup3\n        /* \"#utility.yul\":2185:2204   */\n      tag_28\n      jump\t// in\n    tag_59:\n        /* \"#utility.yul\":2180:2204   */\n      swap2\n      pop\n        /* \"#utility.yul\":2218:2237   */\n      tag_60\n        /* \"#utility.yul\":2235:2236   */\n      dup4\n        /* \"#utility.yul\":2218:2237   */\n      tag_28\n      jump\t// in\n    tag_60:\n        /* \"#utility.yul\":2213:2237   */\n      swap3\n      pop\n        /* \"#utility.yul\":2260:2261   */\n      dup3\n        /* \"#utility.yul\":2257:2258   */\n      dup3\n        /* \"#utility.yul\":2253:2262   */\n      add\n        /* \"#utility.yul\":2246:2262   */\n      swap1\n      pop\n        /* \"#utility.yul\":2458:2459   */\n      dup3\n        /* \"#utility.yul\":2453:2456   */\n      dup2\n        /* \"#utility.yul\":2449:2460   */\n      slt\n        /* \"#utility.yul\":2442:2461   */\n      iszero\n        /* \"#utility.yul\":2438:2439   */\n      0x00\n        /* \"#utility.yul\":2435:2436   */\n      dup4\n        /* \"#utility.yul\":2431:2440   */\n      slt\n        /* \"#utility.yul\":2427:2462   */\n      and\n        /* \"#utility.yul\":2410:2411   */\n      dup4\n        /* \"#utility.yul\":2405:2408   */\n      dup3\n        /* \"#utility.yul\":2401:2412   */\n      slt\n        /* \"#utility.yul\":2396:2397   */\n      0x00\n        /* \"#utility.yul\":2393:2394   */\n      dup5\n        /* \"#utility.yul\":2389:2398   */\n      slt\n        /* \"#utility.yul\":2382:2399   */\n      iszero\n        /* \"#utility.yul\":2378:2413   */\n      and\n        /* \"#utility.yul\":2362:2472   */\n      or\n        /* \"#utility.yul\":2359:2495   */\n      iszero\n      tag_61\n      jumpi\n        /* \"#utility.yul\":2475:2493   */\n      tag_62\n      tag_32\n      jump\t// in\n    tag_62:\n        /* \"#utility.yul\":2359:2495   */\n    tag_61:\n        /* \"#utility.yul\":2127:2502   */\n      swap3\n      swap2\n      pop\n      pop\n      jump\t// out\n\n    auxdata: 0xa26469706673582212202d4a1262b97ffd042e9ea7544701f449c7dee1805802aa1875891bee158d302b64736f6c63430008180033\n}\n",
				"bytecode": {
					"linkReferences": {},
					"object": "608060405260385f55348015610013575f80fd5b50610243806100215f395ff3fe608060405234801561000f575f80fd5b506004361061003f575f3560e01c80633408f73a1461004357806387636dd0146100615780639400c2e01461007f575b5f80fd5b61004b6100af565b60405161005891906100e9565b60405180910390f35b6100696100b7565b60405161007691906100e9565b60405180910390f35b61009960048036038101906100949190610139565b6100bc565b6040516100a69190610186565b60405180910390f35b5f8054905090565b5f5481565b5f81836100c991906101cc565b905092915050565b5f819050919050565b6100e3816100d1565b82525050565b5f6020820190506100fc5f8301846100da565b92915050565b5f80fd5b5f819050919050565b61011881610106565b8114610122575f80fd5b50565b5f813590506101338161010f565b92915050565b5f806040838503121561014f5761014e610102565b5b5f61015c85828601610125565b925050602061016d85828601610125565b9150509250929050565b61018081610106565b82525050565b5f6020820190506101995f830184610177565b92915050565b7f4e487b71000000000000000000000000000000000000000000000000000000005f52601160045260245ffd5b5f6101d682610106565b91506101e183610106565b92508282019050828112155f8312168382125f8412151617156102075761020661019f565b5b9291505056fea26469706673582212202d4a1262b97ffd042e9ea7544701f449c7dee1805802aa1875891bee158d302b64736f6c63430008180033",
					"opcodes": "PUSH1 0x80 PUSH1 0x40 MSTORE PUSH1 0x38 PUSH0 SSTORE CALLVALUE DUP1 ISZERO PUSH2 0x13 JUMPI PUSH0 DUP1 REVERT JUMPDEST POP PUSH2 0x243 DUP1 PUSH2 0x21 PUSH0 CODECOPY PUSH0 RETURN INVALID PUSH1 0x80 PUSH1 0x40 MSTORE CALLVALUE DUP1 ISZERO PUSH2 0xF JUMPI PUSH0 DUP1 REVERT JUMPDEST POP PUSH1 0x4 CALLDATASIZE LT PUSH2 0x3F JUMPI PUSH0 CALLDATALOAD PUSH1 0xE0 SHR DUP1 PUSH4 0x3408F73A EQ PUSH2 0x43 JUMPI DUP1 PUSH4 0x87636DD0 EQ PUSH2 0x61 JUMPI DUP1 PUSH4 0x9400C2E0 EQ PUSH2 0x7F JUMPI JUMPDEST PUSH0 DUP1 REVERT JUMPDEST PUSH2 0x4B PUSH2 0xAF JUMP JUMPDEST PUSH1 0x40 MLOAD PUSH2 0x58 SWAP2 SWAP1 PUSH2 0xE9 JUMP JUMPDEST PUSH1 0x40 MLOAD DUP1 SWAP2 SUB SWAP1 RETURN JUMPDEST PUSH2 0x69 PUSH2 0xB7 JUMP JUMPDEST PUSH1 0x40 MLOAD PUSH2 0x76 SWAP2 SWAP1 PUSH2 0xE9 JUMP JUMPDEST PUSH1 0x40 MLOAD DUP1 SWAP2 SUB SWAP1 RETURN JUMPDEST PUSH2 0x99 PUSH1 0x4 DUP1 CALLDATASIZE SUB DUP2 ADD SWAP1 PUSH2 0x94 SWAP2 SWAP1 PUSH2 0x139 JUMP JUMPDEST PUSH2 0xBC JUMP JUMPDEST PUSH1 0x40 MLOAD PUSH2 0xA6 SWAP2 SWAP1 PUSH2 0x186 JUMP JUMPDEST PUSH1 0x40 MLOAD DUP1 SWAP2 SUB SWAP1 RETURN JUMPDEST PUSH0 DUP1 SLOAD SWAP1 POP SWAP1 JUMP JUMPDEST PUSH0 SLOAD DUP2 JUMP JUMPDEST PUSH0 DUP2 DUP4 PUSH2 0xC9 SWAP2 SWAP1 PUSH2 0x1CC JUMP JUMPDEST SWAP1 POP SWAP3 SWAP2 POP POP JUMP JUMPDEST PUSH0 DUP2 SWAP1 POP SWAP2 SWAP1 POP JUMP JUMPDEST PUSH2 0xE3 DUP2 PUSH2 0xD1 JUMP JUMPDEST DUP3 MSTORE POP POP JUMP JUMPDEST PUSH0 PUSH1 0x20 DUP3 ADD SWAP1 POP PUSH2 0xFC PUSH0 DUP4 ADD DUP5 PUSH2 0xDA JUMP JUMPDEST SWAP3 SWAP2 POP POP JUMP JUMPDEST PUSH0 DUP1 REVERT JUMPDEST PUSH0 DUP2 SWAP1 POP SWAP2 SWAP1 POP JUMP JUMPDEST PUSH2 0x118 DUP2 PUSH2 0x106 JUMP JUMPDEST DUP2 EQ PUSH2 0x122 JUMPI PUSH0 DUP1 REVERT JUMPDEST POP JUMP JUMPDEST PUSH0 DUP2 CALLDATALOAD SWAP1 POP PUSH2 0x133 DUP2 PUSH2 0x10F JUMP JUMPDEST SWAP3 SWAP2 POP POP JUMP JUMPDEST PUSH0 DUP1 PUSH1 0x40 DUP4 DUP6 SUB SLT ISZERO PUSH2 0x14F JUMPI PUSH2 0x14E PUSH2 0x102 JUMP JUMPDEST JUMPDEST PUSH0 PUSH2 0x15C DUP6 DUP3 DUP7 ADD PUSH2 0x125 JUMP JUMPDEST SWAP3 POP POP PUSH1 0x20 PUSH2 0x16D DUP6 DUP3 DUP7 ADD PUSH2 0x125 JUMP JUMPDEST SWAP2 POP POP SWAP3 POP SWAP3 SWAP1 POP JUMP JUMPDEST PUSH2 0x180 DUP2 PUSH2 0x106 JUMP JUMPDEST DUP3 MSTORE POP POP JUMP JUMPDEST PUSH0 PUSH1 0x20 DUP3 ADD SWAP1 POP PUSH2 0x199 PUSH0 DUP4 ADD DUP5 PUSH2 0x177 JUMP JUMPDEST SWAP3 SWAP2 POP POP JUMP JUMPDEST PUSH32 0x4E487B7100000000000000000000000000000000000000000000000000000000 PUSH0 MSTORE PUSH1 0x11 PUSH1 0x4 MSTORE PUSH1 0x24 PUSH0 REVERT JUMPDEST PUSH0 PUSH2 0x1D6 DUP3 PUSH2 0x106 JUMP JUMPDEST SWAP2 POP PUSH2 0x1E1 DUP4 PUSH2 0x106 JUMP JUMPDEST SWAP3 POP DUP3 DUP3 ADD SWAP1 POP DUP3 DUP2 SLT ISZERO PUSH0 DUP4 SLT AND DUP4 DUP3 SLT PUSH0 DUP5 SLT ISZERO AND OR ISZERO PUSH2 0x207 JUMPI PUSH2 0x206 PUSH2 0x19F JUMP JUMPDEST JUMPDEST SWAP3 SWAP2 POP POP JUMP INVALID LOG2 PUSH5 0x6970667358 0x22 SLT KECCAK256 0x2D BLOBBASEFEE SLT PUSH3 0xB97FFD DIV 0x2E SWAP15 0xA7 SLOAD SELFBALANCE ADD DELEGATECALL BLOBHASH 0xC7 0xDE 0xE1 DUP1 PC MUL 0xAA XOR PUSH22 0x891BEE158D302B64736F6C6343000818003300000000 "
				},
				"gasEstimates": {
					"creation": {
						"codeDepositCost": "115800",
						"executionCost": "22268",
						"totalCost": "138068"
					},
					"external": {
						"addNumbers(int256,int256)": "infinite",
						"getStorage()": "2410",
						"myStorageVar()": "2424"
					}
				},
				"methodIdentifiers": {
					"addNumbers(int256,int256)": "9400c2e0",
					"getStorage()": "3408f73a",
					"myStorageVar()": "87636dd0"
				}
			},
			"storageLayout": {
				"storage": [
					{
						"astId": 4,
						"contract": "contracts/1-blockchain-messenger/functions.sol:Example",
						"label": "myStorageVar",
						"offset": 0,
						"slot": "0",
						"type": "t_uint256"
					}
				],
				"types": {
					"t_uint256": {
						"encoding": "inplace",
						"label": "uint256",
						"numberOfBytes": "32"
					}
				}
			},
			"userdoc": {
				"kind": "user",
				"methods": {},
				"version": 1
			}
		}
	}
}