{
	"contracts/3-smart_wallet/1-mapping.sol": {
		"MappingExample": {
			"abi": [
				{
					"inputs": [
						{
							"internalType": "address",
							"name": "",
							"type": "address"
						},
						{
							"internalType": "bool",
							"name": "",
							"type": "bool"
						}
					],
					"name": "mapMap",
					"outputs": [
						{
							"internalType": "uint256",
							"name": "",
							"type": "uint256"
						}
					],
					"stateMutability": "view",
					"type": "function"
				},
				{
					"inputs": [
						{
							"internalType": "address",
							"name": "_key1",
							"type": "address"
						},
						{
							"internalType": "bool",
							"name": "_key2",
							"type": "bool"
						},
						{
							"internalType": "uint256",
							"name": "_val",
							"type": "uint256"
						}
					],
					"name": "mapsMap",
					"outputs": [],
					"stateMutability": "nonpayable",
					"type": "function"
				},
				{
					"inputs": [
						{
							"internalType": "address",
							"name": "",
							"type": "address"
						}
					],
					"name": "myAddMapping",
					"outputs": [
						{
							"internalType": "bool",
							"name": "",
							"type": "bool"
						}
					],
					"stateMutability": "view",
					"type": "function"
				},
				{
					"inputs": [
						{
							"internalType": "uint256",
							"name": "",
							"type": "uint256"
						}
					],
					"name": "myMapping",
					"outputs": [
						{
							"internalType": "bool",
							"name": "",
							"type": "bool"
						}
					],
					"stateMutability": "view",
					"type": "function"
				},
				{
					"inputs": [],
					"name": "setAddSelf",
					"outputs": [],
					"stateMutability": "nonpayable",
					"type": "function"
				},
				{
					"inputs": [
						{
							"internalType": "uint256",
							"name": "_index",
							"type": "uint256"
						}
					],
					"name": "setValue",
					"outputs": [],
					"stateMutability": "nonpayable",
					"type": "function"
				},
				{
					"inputs": [
						{
							"internalType": "address",
							"name": "_add",
							"type": "address"
						}
					],
					"name": "setValueAdd",
					"outputs": [],
					"stateMutability": "nonpayable",
					"type": "function"
				}
			],
			"devdoc": {
				"kind": "dev",
				"methods": {},
				"version": 1
			},
			"evm": {
				"assembly": "    /* \"contracts/3-smart_wallet/1-mapping.sol\":57:677  contract MappingExample {... */\n  mstore(0x40, 0x80)\n  callvalue\n  dup1\n  iszero\n  tag_1\n  jumpi\n  0x00\n  dup1\n  revert\ntag_1:\n  pop\n  dataSize(sub_0)\n  dup1\n  dataOffset(sub_0)\n  0x00\n  codecopy\n  0x00\n  return\nstop\n\nsub_0: assembly {\n        /* \"contracts/3-smart_wallet/1-mapping.sol\":57:677  contract MappingExample {... */\n      mstore(0x40, 0x80)\n      callvalue\n      dup1\n      iszero\n      tag_1\n      jumpi\n      0x00\n      dup1\n      revert\n    tag_1:\n      pop\n      jumpi(tag_2, lt(calldatasize, 0x04))\n      shr(0xe0, calldataload(0x00))\n      dup1\n      0x555697bb\n      gt\n      tag_10\n      jumpi\n      dup1\n      0x555697bb\n      eq\n      tag_6\n      jumpi\n      dup1\n      0x7c668844\n      eq\n      tag_7\n      jumpi\n      dup1\n      0xbaaf3ba1\n      eq\n      tag_8\n      jumpi\n      dup1\n      0xe4fd4ee1\n      eq\n      tag_9\n      jumpi\n      jump(tag_2)\n    tag_10:\n      dup1\n      0x1bc0458c\n      eq\n      tag_3\n      jumpi\n      dup1\n      0x4ba48e85\n      eq\n      tag_4\n      jumpi\n      dup1\n      0x55241077\n      eq\n      tag_5\n      jumpi\n    tag_2:\n      0x00\n      dup1\n      revert\n        /* \"contracts/3-smart_wallet/1-mapping.sol\":569:675  function mapsMap(address _key1, bool _key2, uint _val) public {... */\n    tag_3:\n      tag_11\n      0x04\n      dup1\n      calldatasize\n      sub\n      dup2\n      add\n      swap1\n      tag_12\n      swap2\n      swap1\n      tag_13\n      jump\t// in\n    tag_12:\n      tag_14\n      jump\t// in\n    tag_11:\n      stop\n        /* \"contracts/3-smart_wallet/1-mapping.sol\":507:562  mapping(address => mapping(bool => uint)) public mapMap */\n    tag_4:\n      tag_15\n      0x04\n      dup1\n      calldatasize\n      sub\n      dup2\n      add\n      swap1\n      tag_16\n      swap2\n      swap1\n      tag_17\n      jump\t// in\n    tag_16:\n      tag_18\n      jump\t// in\n    tag_15:\n      mload(0x40)\n      tag_19\n      swap2\n      swap1\n      tag_20\n      jump\t// in\n    tag_19:\n      mload(0x40)\n      dup1\n      swap2\n      sub\n      swap1\n      return\n        /* \"contracts/3-smart_wallet/1-mapping.sol\":222:301  function setValue(uint _index) public {... */\n    tag_5:\n      tag_21\n      0x04\n      dup1\n      calldatasize\n      sub\n      dup2\n      add\n      swap1\n      tag_22\n      swap2\n      swap1\n      tag_23\n      jump\t// in\n    tag_22:\n      tag_24\n      jump\t// in\n    tag_21:\n      stop\n        /* \"contracts/3-smart_wallet/1-mapping.sol\":307:391  function setValueAdd(address _add) public {... */\n    tag_6:\n      tag_25\n      0x04\n      dup1\n      calldatasize\n      sub\n      dup2\n      add\n      swap1\n      tag_26\n      swap2\n      swap1\n      tag_27\n      jump\t// in\n    tag_26:\n      tag_28\n      jump\t// in\n    tag_25:\n      stop\n        /* \"contracts/3-smart_wallet/1-mapping.sol\":87:125  mapping(uint => bool) public myMapping */\n    tag_7:\n      tag_29\n      0x04\n      dup1\n      calldatasize\n      sub\n      dup2\n      add\n      swap1\n      tag_30\n      swap2\n      swap1\n      tag_23\n      jump\t// in\n    tag_30:\n      tag_31\n      jump\t// in\n    tag_29:\n      mload(0x40)\n      tag_32\n      swap2\n      swap1\n      tag_33\n      jump\t// in\n    tag_32:\n      mload(0x40)\n      dup1\n      swap2\n      sub\n      swap1\n      return\n        /* \"contracts/3-smart_wallet/1-mapping.sol\":171:215  mapping(address => bool) public myAddMapping */\n    tag_8:\n      tag_34\n      0x04\n      dup1\n      calldatasize\n      sub\n      dup2\n      add\n      swap1\n      tag_35\n      swap2\n      swap1\n      tag_27\n      jump\t// in\n    tag_35:\n      tag_36\n      jump\t// in\n    tag_34:\n      mload(0x40)\n      tag_37\n      swap2\n      swap1\n      tag_33\n      jump\t// in\n    tag_37:\n      mload(0x40)\n      dup1\n      swap2\n      sub\n      swap1\n      return\n        /* \"contracts/3-smart_wallet/1-mapping.sol\":397:474  function setAddSelf() public {... */\n    tag_9:\n      tag_38\n      tag_39\n      jump\t// in\n    tag_38:\n      stop\n        /* \"contracts/3-smart_wallet/1-mapping.sol\":569:675  function mapsMap(address _key1, bool _key2, uint _val) public {... */\n    tag_14:\n        /* \"contracts/3-smart_wallet/1-mapping.sol\":664:668  _val */\n      dup1\n        /* \"contracts/3-smart_wallet/1-mapping.sol\":641:647  mapMap */\n      0x02\n        /* \"contracts/3-smart_wallet/1-mapping.sol\":641:654  mapMap[_key1] */\n      0x00\n        /* \"contracts/3-smart_wallet/1-mapping.sol\":648:653  _key1 */\n      dup6\n        /* \"contracts/3-smart_wallet/1-mapping.sol\":641:654  mapMap[_key1] */\n      0xffffffffffffffffffffffffffffffffffffffff\n      and\n      0xffffffffffffffffffffffffffffffffffffffff\n      and\n      dup2\n      mstore\n      0x20\n      add\n      swap1\n      dup2\n      mstore\n      0x20\n      add\n      0x00\n      keccak256\n        /* \"contracts/3-smart_wallet/1-mapping.sol\":641:661  mapMap[_key1][_key2] */\n      0x00\n        /* \"contracts/3-smart_wallet/1-mapping.sol\":655:660  _key2 */\n      dup5\n        /* \"contracts/3-smart_wallet/1-mapping.sol\":641:661  mapMap[_key1][_key2] */\n      iszero\n      iszero\n      iszero\n      iszero\n      dup2\n      mstore\n      0x20\n      add\n      swap1\n      dup2\n      mstore\n      0x20\n      add\n      0x00\n      keccak256\n        /* \"contracts/3-smart_wallet/1-mapping.sol\":641:668  mapMap[_key1][_key2] = _val */\n      dup2\n      swap1\n      sstore\n      pop\n        /* \"contracts/3-smart_wallet/1-mapping.sol\":569:675  function mapsMap(address _key1, bool _key2, uint _val) public {... */\n      pop\n      pop\n      pop\n      jump\t// out\n        /* \"contracts/3-smart_wallet/1-mapping.sol\":507:562  mapping(address => mapping(bool => uint)) public mapMap */\n    tag_18:\n      mstore(0x20, 0x02)\n      dup2\n      0x00\n      mstore\n      mstore(0x20, keccak256(0x00, 0x40))\n      dup1\n      0x00\n      mstore\n      keccak256(0x00, 0x40)\n      0x00\n      swap2\n      pop\n      swap2\n      pop\n      pop\n      sload\n      dup2\n      jump\t// out\n        /* \"contracts/3-smart_wallet/1-mapping.sol\":222:301  function setValue(uint _index) public {... */\n    tag_24:\n        /* \"contracts/3-smart_wallet/1-mapping.sol\":290:294  true */\n      0x01\n        /* \"contracts/3-smart_wallet/1-mapping.sol\":270:279  myMapping */\n      0x00\n        /* \"contracts/3-smart_wallet/1-mapping.sol\":270:287  myMapping[_index] */\n      dup1\n        /* \"contracts/3-smart_wallet/1-mapping.sol\":280:286  _index */\n      dup4\n        /* \"contracts/3-smart_wallet/1-mapping.sol\":270:287  myMapping[_index] */\n      dup2\n      mstore\n      0x20\n      add\n      swap1\n      dup2\n      mstore\n      0x20\n      add\n      0x00\n      keccak256\n      0x00\n        /* \"contracts/3-smart_wallet/1-mapping.sol\":270:294  myMapping[_index] = true */\n      0x0100\n      exp\n      dup2\n      sload\n      dup2\n      0xff\n      mul\n      not\n      and\n      swap1\n      dup4\n      iszero\n      iszero\n      mul\n      or\n      swap1\n      sstore\n      pop\n        /* \"contracts/3-smart_wallet/1-mapping.sol\":222:301  function setValue(uint _index) public {... */\n      pop\n      jump\t// out\n        /* \"contracts/3-smart_wallet/1-mapping.sol\":307:391  function setValueAdd(address _add) public {... */\n    tag_28:\n        /* \"contracts/3-smart_wallet/1-mapping.sol\":380:384  true */\n      0x01\n        /* \"contracts/3-smart_wallet/1-mapping.sol\":359:371  myAddMapping */\n      dup1\n        /* \"contracts/3-smart_wallet/1-mapping.sol\":359:377  myAddMapping[_add] */\n      0x00\n        /* \"contracts/3-smart_wallet/1-mapping.sol\":372:376  _add */\n      dup4\n        /* \"contracts/3-smart_wallet/1-mapping.sol\":359:377  myAddMapping[_add] */\n      0xffffffffffffffffffffffffffffffffffffffff\n      and\n      0xffffffffffffffffffffffffffffffffffffffff\n      and\n      dup2\n      mstore\n      0x20\n      add\n      swap1\n      dup2\n      mstore\n      0x20\n      add\n      0x00\n      keccak256\n      0x00\n        /* \"contracts/3-smart_wallet/1-mapping.sol\":359:384  myAddMapping[_add] = true */\n      0x0100\n      exp\n      dup2\n      sload\n      dup2\n      0xff\n      mul\n      not\n      and\n      swap1\n      dup4\n      iszero\n      iszero\n      mul\n      or\n      swap1\n      sstore\n      pop\n        /* \"contracts/3-smart_wallet/1-mapping.sol\":307:391  function setValueAdd(address _add) public {... */\n      pop\n      jump\t// out\n        /* \"contracts/3-smart_wallet/1-mapping.sol\":87:125  mapping(uint => bool) public myMapping */\n    tag_31:\n      mstore(0x20, 0x00)\n      dup1\n      0x00\n      mstore\n      keccak256(0x00, 0x40)\n      0x00\n      swap2\n      pop\n      sload\n      swap1\n      0x0100\n      exp\n      swap1\n      div\n      0xff\n      and\n      dup2\n      jump\t// out\n        /* \"contracts/3-smart_wallet/1-mapping.sol\":171:215  mapping(address => bool) public myAddMapping */\n    tag_36:\n      mstore(0x20, 0x01)\n      dup1\n      0x00\n      mstore\n      keccak256(0x00, 0x40)\n      0x00\n      swap2\n      pop\n      sload\n      swap1\n      0x0100\n      exp\n      swap1\n      div\n      0xff\n      and\n      dup2\n      jump\t// out\n        /* \"contracts/3-smart_wallet/1-mapping.sol\":397:474  function setAddSelf() public {... */\n    tag_39:\n        /* \"contracts/3-smart_wallet/1-mapping.sol\":463:467  true */\n      0x01\n        /* \"contracts/3-smart_wallet/1-mapping.sol\":436:448  myAddMapping */\n      dup1\n        /* \"contracts/3-smart_wallet/1-mapping.sol\":436:460  myAddMapping[msg.sender] */\n      0x00\n        /* \"contracts/3-smart_wallet/1-mapping.sol\":449:459  msg.sender */\n      caller\n        /* \"contracts/3-smart_wallet/1-mapping.sol\":436:460  myAddMapping[msg.sender] */\n      0xffffffffffffffffffffffffffffffffffffffff\n      and\n      0xffffffffffffffffffffffffffffffffffffffff\n      and\n      dup2\n      mstore\n      0x20\n      add\n      swap1\n      dup2\n      mstore\n      0x20\n      add\n      0x00\n      keccak256\n      0x00\n        /* \"contracts/3-smart_wallet/1-mapping.sol\":436:467  myAddMapping[msg.sender] = true */\n      0x0100\n      exp\n      dup2\n      sload\n      dup2\n      0xff\n      mul\n      not\n      and\n      swap1\n      dup4\n      iszero\n      iszero\n      mul\n      or\n      swap1\n      sstore\n      pop\n        /* \"contracts/3-smart_wallet/1-mapping.sol\":397:474  function setAddSelf() public {... */\n      jump\t// out\n        /* \"#utility.yul\":88:205   */\n    tag_45:\n        /* \"#utility.yul\":197:198   */\n      0x00\n        /* \"#utility.yul\":194:195   */\n      dup1\n        /* \"#utility.yul\":187:199   */\n      revert\n        /* \"#utility.yul\":334:460   */\n    tag_47:\n        /* \"#utility.yul\":371:378   */\n      0x00\n        /* \"#utility.yul\":411:453   */\n      0xffffffffffffffffffffffffffffffffffffffff\n        /* \"#utility.yul\":404:409   */\n      dup3\n        /* \"#utility.yul\":400:454   */\n      and\n        /* \"#utility.yul\":389:454   */\n      swap1\n      pop\n        /* \"#utility.yul\":334:460   */\n      swap2\n      swap1\n      pop\n      jump\t// out\n        /* \"#utility.yul\":466:562   */\n    tag_48:\n        /* \"#utility.yul\":503:510   */\n      0x00\n        /* \"#utility.yul\":532:556   */\n      tag_65\n        /* \"#utility.yul\":550:555   */\n      dup3\n        /* \"#utility.yul\":532:556   */\n      tag_47\n      jump\t// in\n    tag_65:\n        /* \"#utility.yul\":521:556   */\n      swap1\n      pop\n        /* \"#utility.yul\":466:562   */\n      swap2\n      swap1\n      pop\n      jump\t// out\n        /* \"#utility.yul\":568:690   */\n    tag_49:\n        /* \"#utility.yul\":641:665   */\n      tag_67\n        /* \"#utility.yul\":659:664   */\n      dup2\n        /* \"#utility.yul\":641:665   */\n      tag_48\n      jump\t// in\n    tag_67:\n        /* \"#utility.yul\":634:639   */\n      dup2\n        /* \"#utility.yul\":631:666   */\n      eq\n        /* \"#utility.yul\":621:684   */\n      tag_68\n      jumpi\n        /* \"#utility.yul\":680:681   */\n      0x00\n        /* \"#utility.yul\":677:678   */\n      dup1\n        /* \"#utility.yul\":670:682   */\n      revert\n        /* \"#utility.yul\":621:684   */\n    tag_68:\n        /* \"#utility.yul\":568:690   */\n      pop\n      jump\t// out\n        /* \"#utility.yul\":696:835   */\n    tag_50:\n        /* \"#utility.yul\":742:747   */\n      0x00\n        /* \"#utility.yul\":780:786   */\n      dup2\n        /* \"#utility.yul\":767:787   */\n      calldataload\n        /* \"#utility.yul\":758:787   */\n      swap1\n      pop\n        /* \"#utility.yul\":796:829   */\n      tag_70\n        /* \"#utility.yul\":823:828   */\n      dup2\n        /* \"#utility.yul\":796:829   */\n      tag_49\n      jump\t// in\n    tag_70:\n        /* \"#utility.yul\":696:835   */\n      swap3\n      swap2\n      pop\n      pop\n      jump\t// out\n        /* \"#utility.yul\":841:931   */\n    tag_51:\n        /* \"#utility.yul\":875:882   */\n      0x00\n        /* \"#utility.yul\":918:923   */\n      dup2\n        /* \"#utility.yul\":911:924   */\n      iszero\n        /* \"#utility.yul\":904:925   */\n      iszero\n        /* \"#utility.yul\":893:925   */\n      swap1\n      pop\n        /* \"#utility.yul\":841:931   */\n      swap2\n      swap1\n      pop\n      jump\t// out\n        /* \"#utility.yul\":937:1053   */\n    tag_52:\n        /* \"#utility.yul\":1007:1028   */\n      tag_73\n        /* \"#utility.yul\":1022:1027   */\n      dup2\n        /* \"#utility.yul\":1007:1028   */\n      tag_51\n      jump\t// in\n    tag_73:\n        /* \"#utility.yul\":1000:1005   */\n      dup2\n        /* \"#utility.yul\":997:1029   */\n      eq\n        /* \"#utility.yul\":987:1047   */\n      tag_74\n      jumpi\n        /* \"#utility.yul\":1043:1044   */\n      0x00\n        /* \"#utility.yul\":1040:1041   */\n      dup1\n        /* \"#utility.yul\":1033:1045   */\n      revert\n        /* \"#utility.yul\":987:1047   */\n    tag_74:\n        /* \"#utility.yul\":937:1053   */\n      pop\n      jump\t// out\n        /* \"#utility.yul\":1059:1192   */\n    tag_53:\n        /* \"#utility.yul\":1102:1107   */\n      0x00\n        /* \"#utility.yul\":1140:1146   */\n      dup2\n        /* \"#utility.yul\":1127:1147   */\n      calldataload\n        /* \"#utility.yul\":1118:1147   */\n      swap1\n      pop\n        /* \"#utility.yul\":1156:1186   */\n      tag_76\n        /* \"#utility.yul\":1180:1185   */\n      dup2\n        /* \"#utility.yul\":1156:1186   */\n      tag_52\n      jump\t// in\n    tag_76:\n        /* \"#utility.yul\":1059:1192   */\n      swap3\n      swap2\n      pop\n      pop\n      jump\t// out\n        /* \"#utility.yul\":1198:1275   */\n    tag_54:\n        /* \"#utility.yul\":1235:1242   */\n      0x00\n        /* \"#utility.yul\":1264:1269   */\n      dup2\n        /* \"#utility.yul\":1253:1269   */\n      swap1\n      pop\n        /* \"#utility.yul\":1198:1275   */\n      swap2\n      swap1\n      pop\n      jump\t// out\n        /* \"#utility.yul\":1281:1403   */\n    tag_55:\n        /* \"#utility.yul\":1354:1378   */\n      tag_79\n        /* \"#utility.yul\":1372:1377   */\n      dup2\n        /* \"#utility.yul\":1354:1378   */\n      tag_54\n      jump\t// in\n    tag_79:\n        /* \"#utility.yul\":1347:1352   */\n      dup2\n        /* \"#utility.yul\":1344:1379   */\n      eq\n        /* \"#utility.yul\":1334:1397   */\n      tag_80\n      jumpi\n        /* \"#utility.yul\":1393:1394   */\n      0x00\n        /* \"#utility.yul\":1390:1391   */\n      dup1\n        /* \"#utility.yul\":1383:1395   */\n      revert\n        /* \"#utility.yul\":1334:1397   */\n    tag_80:\n        /* \"#utility.yul\":1281:1403   */\n      pop\n      jump\t// out\n        /* \"#utility.yul\":1409:1548   */\n    tag_56:\n        /* \"#utility.yul\":1455:1460   */\n      0x00\n        /* \"#utility.yul\":1493:1499   */\n      dup2\n        /* \"#utility.yul\":1480:1500   */\n      calldataload\n        /* \"#utility.yul\":1471:1500   */\n      swap1\n      pop\n        /* \"#utility.yul\":1509:1542   */\n      tag_82\n        /* \"#utility.yul\":1536:1541   */\n      dup2\n        /* \"#utility.yul\":1509:1542   */\n      tag_55\n      jump\t// in\n    tag_82:\n        /* \"#utility.yul\":1409:1548   */\n      swap3\n      swap2\n      pop\n      pop\n      jump\t// out\n        /* \"#utility.yul\":1554:2167   */\n    tag_13:\n        /* \"#utility.yul\":1628:1634   */\n      0x00\n        /* \"#utility.yul\":1636:1642   */\n      dup1\n        /* \"#utility.yul\":1644:1650   */\n      0x00\n        /* \"#utility.yul\":1693:1695   */\n      0x60\n        /* \"#utility.yul\":1681:1690   */\n      dup5\n        /* \"#utility.yul\":1672:1679   */\n      dup7\n        /* \"#utility.yul\":1668:1691   */\n      sub\n        /* \"#utility.yul\":1664:1696   */\n      slt\n        /* \"#utility.yul\":1661:1780   */\n      iszero\n      tag_84\n      jumpi\n        /* \"#utility.yul\":1699:1778   */\n      tag_85\n      tag_45\n      jump\t// in\n    tag_85:\n        /* \"#utility.yul\":1661:1780   */\n    tag_84:\n        /* \"#utility.yul\":1819:1820   */\n      0x00\n        /* \"#utility.yul\":1844:1897   */\n      tag_86\n        /* \"#utility.yul\":1889:1896   */\n      dup7\n        /* \"#utility.yul\":1880:1886   */\n      dup3\n        /* \"#utility.yul\":1869:1878   */\n      dup8\n        /* \"#utility.yul\":1865:1887   */\n      add\n        /* \"#utility.yul\":1844:1897   */\n      tag_50\n      jump\t// in\n    tag_86:\n        /* \"#utility.yul\":1834:1897   */\n      swap4\n      pop\n        /* \"#utility.yul\":1790:1907   */\n      pop\n        /* \"#utility.yul\":1946:1948   */\n      0x20\n        /* \"#utility.yul\":1972:2022   */\n      tag_87\n        /* \"#utility.yul\":2014:2021   */\n      dup7\n        /* \"#utility.yul\":2005:2011   */\n      dup3\n        /* \"#utility.yul\":1994:2003   */\n      dup8\n        /* \"#utility.yul\":1990:2012   */\n      add\n        /* \"#utility.yul\":1972:2022   */\n      tag_53\n      jump\t// in\n    tag_87:\n        /* \"#utility.yul\":1962:2022   */\n      swap3\n      pop\n        /* \"#utility.yul\":1917:2032   */\n      pop\n        /* \"#utility.yul\":2071:2073   */\n      0x40\n        /* \"#utility.yul\":2097:2150   */\n      tag_88\n        /* \"#utility.yul\":2142:2149   */\n      dup7\n        /* \"#utility.yul\":2133:2139   */\n      dup3\n        /* \"#utility.yul\":2122:2131   */\n      dup8\n        /* \"#utility.yul\":2118:2140   */\n      add\n        /* \"#utility.yul\":2097:2150   */\n      tag_56\n      jump\t// in\n    tag_88:\n        /* \"#utility.yul\":2087:2150   */\n      swap2\n      pop\n        /* \"#utility.yul\":2042:2160   */\n      pop\n        /* \"#utility.yul\":1554:2167   */\n      swap3\n      pop\n      swap3\n      pop\n      swap3\n      jump\t// out\n        /* \"#utility.yul\":2173:2641   */\n    tag_17:\n        /* \"#utility.yul\":2238:2244   */\n      0x00\n        /* \"#utility.yul\":2246:2252   */\n      dup1\n        /* \"#utility.yul\":2295:2297   */\n      0x40\n        /* \"#utility.yul\":2283:2292   */\n      dup4\n        /* \"#utility.yul\":2274:2281   */\n      dup6\n        /* \"#utility.yul\":2270:2293   */\n      sub\n        /* \"#utility.yul\":2266:2298   */\n      slt\n        /* \"#utility.yul\":2263:2382   */\n      iszero\n      tag_90\n      jumpi\n        /* \"#utility.yul\":2301:2380   */\n      tag_91\n      tag_45\n      jump\t// in\n    tag_91:\n        /* \"#utility.yul\":2263:2382   */\n    tag_90:\n        /* \"#utility.yul\":2421:2422   */\n      0x00\n        /* \"#utility.yul\":2446:2499   */\n      tag_92\n        /* \"#utility.yul\":2491:2498   */\n      dup6\n        /* \"#utility.yul\":2482:2488   */\n      dup3\n        /* \"#utility.yul\":2471:2480   */\n      dup7\n        /* \"#utility.yul\":2467:2489   */\n      add\n        /* \"#utility.yul\":2446:2499   */\n      tag_50\n      jump\t// in\n    tag_92:\n        /* \"#utility.yul\":2436:2499   */\n      swap3\n      pop\n        /* \"#utility.yul\":2392:2509   */\n      pop\n        /* \"#utility.yul\":2548:2550   */\n      0x20\n        /* \"#utility.yul\":2574:2624   */\n      tag_93\n        /* \"#utility.yul\":2616:2623   */\n      dup6\n        /* \"#utility.yul\":2607:2613   */\n      dup3\n        /* \"#utility.yul\":2596:2605   */\n      dup7\n        /* \"#utility.yul\":2592:2614   */\n      add\n        /* \"#utility.yul\":2574:2624   */\n      tag_53\n      jump\t// in\n    tag_93:\n        /* \"#utility.yul\":2564:2624   */\n      swap2\n      pop\n        /* \"#utility.yul\":2519:2634   */\n      pop\n        /* \"#utility.yul\":2173:2641   */\n      swap3\n      pop\n      swap3\n      swap1\n      pop\n      jump\t// out\n        /* \"#utility.yul\":2647:2765   */\n    tag_57:\n        /* \"#utility.yul\":2734:2758   */\n      tag_95\n        /* \"#utility.yul\":2752:2757   */\n      dup2\n        /* \"#utility.yul\":2734:2758   */\n      tag_54\n      jump\t// in\n    tag_95:\n        /* \"#utility.yul\":2729:2732   */\n      dup3\n        /* \"#utility.yul\":2722:2759   */\n      mstore\n        /* \"#utility.yul\":2647:2765   */\n      pop\n      pop\n      jump\t// out\n        /* \"#utility.yul\":2771:2993   */\n    tag_20:\n        /* \"#utility.yul\":2864:2868   */\n      0x00\n        /* \"#utility.yul\":2902:2904   */\n      0x20\n        /* \"#utility.yul\":2891:2900   */\n      dup3\n        /* \"#utility.yul\":2887:2905   */\n      add\n        /* \"#utility.yul\":2879:2905   */\n      swap1\n      pop\n        /* \"#utility.yul\":2915:2986   */\n      tag_97\n        /* \"#utility.yul\":2983:2984   */\n      0x00\n        /* \"#utility.yul\":2972:2981   */\n      dup4\n        /* \"#utility.yul\":2968:2985   */\n      add\n        /* \"#utility.yul\":2959:2965   */\n      dup5\n        /* \"#utility.yul\":2915:2986   */\n      tag_57\n      jump\t// in\n    tag_97:\n        /* \"#utility.yul\":2771:2993   */\n      swap3\n      swap2\n      pop\n      pop\n      jump\t// out\n        /* \"#utility.yul\":2999:3328   */\n    tag_23:\n        /* \"#utility.yul\":3058:3064   */\n      0x00\n        /* \"#utility.yul\":3107:3109   */\n      0x20\n        /* \"#utility.yul\":3095:3104   */\n      dup3\n        /* \"#utility.yul\":3086:3093   */\n      dup5\n        /* \"#utility.yul\":3082:3105   */\n      sub\n        /* \"#utility.yul\":3078:3110   */\n      slt\n        /* \"#utility.yul\":3075:3194   */\n      iszero\n      tag_99\n      jumpi\n        /* \"#utility.yul\":3113:3192   */\n      tag_100\n      tag_45\n      jump\t// in\n    tag_100:\n        /* \"#utility.yul\":3075:3194   */\n    tag_99:\n        /* \"#utility.yul\":3233:3234   */\n      0x00\n        /* \"#utility.yul\":3258:3311   */\n      tag_101\n        /* \"#utility.yul\":3303:3310   */\n      dup5\n        /* \"#utility.yul\":3294:3300   */\n      dup3\n        /* \"#utility.yul\":3283:3292   */\n      dup6\n        /* \"#utility.yul\":3279:3301   */\n      add\n        /* \"#utility.yul\":3258:3311   */\n      tag_56\n      jump\t// in\n    tag_101:\n        /* \"#utility.yul\":3248:3311   */\n      swap2\n      pop\n        /* \"#utility.yul\":3204:3321   */\n      pop\n        /* \"#utility.yul\":2999:3328   */\n      swap3\n      swap2\n      pop\n      pop\n      jump\t// out\n        /* \"#utility.yul\":3334:3663   */\n    tag_27:\n        /* \"#utility.yul\":3393:3399   */\n      0x00\n        /* \"#utility.yul\":3442:3444   */\n      0x20\n        /* \"#utility.yul\":3430:3439   */\n      dup3\n        /* \"#utility.yul\":3421:3428   */\n      dup5\n        /* \"#utility.yul\":3417:3440   */\n      sub\n        /* \"#utility.yul\":3413:3445   */\n      slt\n        /* \"#utility.yul\":3410:3529   */\n      iszero\n      tag_103\n      jumpi\n        /* \"#utility.yul\":3448:3527   */\n      tag_104\n      tag_45\n      jump\t// in\n    tag_104:\n        /* \"#utility.yul\":3410:3529   */\n    tag_103:\n        /* \"#utility.yul\":3568:3569   */\n      0x00\n        /* \"#utility.yul\":3593:3646   */\n      tag_105\n        /* \"#utility.yul\":3638:3645   */\n      dup5\n        /* \"#utility.yul\":3629:3635   */\n      dup3\n        /* \"#utility.yul\":3618:3627   */\n      dup6\n        /* \"#utility.yul\":3614:3636   */\n      add\n        /* \"#utility.yul\":3593:3646   */\n      tag_50\n      jump\t// in\n    tag_105:\n        /* \"#utility.yul\":3583:3646   */\n      swap2\n      pop\n        /* \"#utility.yul\":3539:3656   */\n      pop\n        /* \"#utility.yul\":3334:3663   */\n      swap3\n      swap2\n      pop\n      pop\n      jump\t// out\n        /* \"#utility.yul\":3669:3778   */\n    tag_58:\n        /* \"#utility.yul\":3750:3771   */\n      tag_107\n        /* \"#utility.yul\":3765:3770   */\n      dup2\n        /* \"#utility.yul\":3750:3771   */\n      tag_51\n      jump\t// in\n    tag_107:\n        /* \"#utility.yul\":3745:3748   */\n      dup3\n        /* \"#utility.yul\":3738:3772   */\n      mstore\n        /* \"#utility.yul\":3669:3778   */\n      pop\n      pop\n      jump\t// out\n        /* \"#utility.yul\":3784:3994   */\n    tag_33:\n        /* \"#utility.yul\":3871:3875   */\n      0x00\n        /* \"#utility.yul\":3909:3911   */\n      0x20\n        /* \"#utility.yul\":3898:3907   */\n      dup3\n        /* \"#utility.yul\":3894:3912   */\n      add\n        /* \"#utility.yul\":3886:3912   */\n      swap1\n      pop\n        /* \"#utility.yul\":3922:3987   */\n      tag_109\n        /* \"#utility.yul\":3984:3985   */\n      0x00\n        /* \"#utility.yul\":3973:3982   */\n      dup4\n        /* \"#utility.yul\":3969:3986   */\n      add\n        /* \"#utility.yul\":3960:3966   */\n      dup5\n        /* \"#utility.yul\":3922:3987   */\n      tag_58\n      jump\t// in\n    tag_109:\n        /* \"#utility.yul\":3784:3994   */\n      swap3\n      swap2\n      pop\n      pop\n      jump\t// out\n\n    auxdata: 0xa2646970667358221220921b0e12361928a70e9aa2b9192830b5407c917f33f23aad3f13deb3986cdc0464736f6c63430008180033\n}\n",
				"bytecode": {
					"linkReferences": {},
					"object": "608060405234801561000f575f80fd5b506105288061001d5f395ff3fe608060405234801561000f575f80fd5b506004361061007b575f3560e01c8063555697bb11610059578063555697bb146100e75780637c66884414610103578063baaf3ba114610133578063e4fd4ee1146101635761007b565b80631bc0458c1461007f5780634ba48e851461009b57806355241077146100cb575b5f80fd5b610099600480360381019061009491906103be565b61016d565b005b6100b560048036038101906100b0919061040e565b6101c7565b6040516100c2919061045b565b60405180910390f35b6100e560048036038101906100e09190610474565b6101e7565b005b61010160048036038101906100fc919061049f565b610212565b005b61011d60048036038101906101189190610474565b610269565b60405161012a91906104d9565b60405180910390f35b61014d6004803603810190610148919061049f565b610285565b60405161015a91906104d9565b60405180910390f35b61016b6102a2565b005b8060025f8573ffffffffffffffffffffffffffffffffffffffff1673ffffffffffffffffffffffffffffffffffffffff1681526020019081526020015f205f841515151581526020019081526020015f2081905550505050565b6002602052815f5260405f20602052805f5260405f205f91509150505481565b60015f808381526020019081526020015f205f6101000a81548160ff02191690831515021790555050565b6001805f8373ffffffffffffffffffffffffffffffffffffffff1673ffffffffffffffffffffffffffffffffffffffff1681526020019081526020015f205f6101000a81548160ff02191690831515021790555050565b5f602052805f5260405f205f915054906101000a900460ff1681565b6001602052805f5260405f205f915054906101000a900460ff1681565b6001805f3373ffffffffffffffffffffffffffffffffffffffff1673ffffffffffffffffffffffffffffffffffffffff1681526020019081526020015f205f6101000a81548160ff021916908315150217905550565b5f80fd5b5f73ffffffffffffffffffffffffffffffffffffffff82169050919050565b5f610325826102fc565b9050919050565b6103358161031b565b811461033f575f80fd5b50565b5f813590506103508161032c565b92915050565b5f8115159050919050565b61036a81610356565b8114610374575f80fd5b50565b5f8135905061038581610361565b92915050565b5f819050919050565b61039d8161038b565b81146103a7575f80fd5b50565b5f813590506103b881610394565b92915050565b5f805f606084860312156103d5576103d46102f8565b5b5f6103e286828701610342565b93505060206103f386828701610377565b9250506040610404868287016103aa565b9150509250925092565b5f8060408385031215610424576104236102f8565b5b5f61043185828601610342565b925050602061044285828601610377565b9150509250929050565b6104558161038b565b82525050565b5f60208201905061046e5f83018461044c565b92915050565b5f60208284031215610489576104886102f8565b5b5f610496848285016103aa565b91505092915050565b5f602082840312156104b4576104b36102f8565b5b5f6104c184828501610342565b91505092915050565b6104d381610356565b82525050565b5f6020820190506104ec5f8301846104ca565b9291505056fea2646970667358221220921b0e12361928a70e9aa2b9192830b5407c917f33f23aad3f13deb3986cdc0464736f6c63430008180033",
					"opcodes": "PUSH1 0x80 PUSH1 0x40 MSTORE CALLVALUE DUP1 ISZERO PUSH2 0xF JUMPI PUSH0 DUP1 REVERT JUMPDEST POP PUSH2 0x528 DUP1 PUSH2 0x1D PUSH0 CODECOPY PUSH0 RETURN INVALID PUSH1 0x80 PUSH1 0x40 MSTORE CALLVALUE DUP1 ISZERO PUSH2 0xF JUMPI PUSH0 DUP1 REVERT JUMPDEST POP PUSH1 0x4 CALLDATASIZE LT PUSH2 0x7B JUMPI PUSH0 CALLDATALOAD PUSH1 0xE0 SHR DUP1 PUSH4 0x555697BB GT PUSH2 0x59 JUMPI DUP1 PUSH4 0x555697BB EQ PUSH2 0xE7 JUMPI DUP1 PUSH4 0x7C668844 EQ PUSH2 0x103 JUMPI DUP1 PUSH4 0xBAAF3BA1 EQ PUSH2 0x133 JUMPI DUP1 PUSH4 0xE4FD4EE1 EQ PUSH2 0x163 JUMPI PUSH2 0x7B JUMP JUMPDEST DUP1 PUSH4 0x1BC0458C EQ PUSH2 0x7F JUMPI DUP1 PUSH4 0x4BA48E85 EQ PUSH2 0x9B JUMPI DUP1 PUSH4 0x55241077 EQ PUSH2 0xCB JUMPI JUMPDEST PUSH0 DUP1 REVERT JUMPDEST PUSH2 0x99 PUSH1 0x4 DUP1 CALLDATASIZE SUB DUP2 ADD SWAP1 PUSH2 0x94 SWAP2 SWAP1 PUSH2 0x3BE JUMP JUMPDEST PUSH2 0x16D JUMP JUMPDEST STOP JUMPDEST PUSH2 0xB5 PUSH1 0x4 DUP1 CALLDATASIZE SUB DUP2 ADD SWAP1 PUSH2 0xB0 SWAP2 SWAP1 PUSH2 0x40E JUMP JUMPDEST PUSH2 0x1C7 JUMP JUMPDEST PUSH1 0x40 MLOAD PUSH2 0xC2 SWAP2 SWAP1 PUSH2 0x45B JUMP JUMPDEST PUSH1 0x40 MLOAD DUP1 SWAP2 SUB SWAP1 RETURN JUMPDEST PUSH2 0xE5 PUSH1 0x4 DUP1 CALLDATASIZE SUB DUP2 ADD SWAP1 PUSH2 0xE0 SWAP2 SWAP1 PUSH2 0x474 JUMP JUMPDEST PUSH2 0x1E7 JUMP JUMPDEST STOP JUMPDEST PUSH2 0x101 PUSH1 0x4 DUP1 CALLDATASIZE SUB DUP2 ADD SWAP1 PUSH2 0xFC SWAP2 SWAP1 PUSH2 0x49F JUMP JUMPDEST PUSH2 0x212 JUMP JUMPDEST STOP JUMPDEST PUSH2 0x11D PUSH1 0x4 DUP1 CALLDATASIZE SUB DUP2 ADD SWAP1 PUSH2 0x118 SWAP2 SWAP1 PUSH2 0x474 JUMP JUMPDEST PUSH2 0x269 JUMP JUMPDEST PUSH1 0x40 MLOAD PUSH2 0x12A SWAP2 SWAP1 PUSH2 0x4D9 JUMP JUMPDEST PUSH1 0x40 MLOAD DUP1 SWAP2 SUB SWAP1 RETURN JUMPDEST PUSH2 0x14D PUSH1 0x4 DUP1 CALLDATASIZE SUB DUP2 ADD SWAP1 PUSH2 0x148 SWAP2 SWAP1 PUSH2 0x49F JUMP JUMPDEST PUSH2 0x285 JUMP JUMPDEST PUSH1 0x40 MLOAD PUSH2 0x15A SWAP2 SWAP1 PUSH2 0x4D9 JUMP JUMPDEST PUSH1 0x40 MLOAD DUP1 SWAP2 SUB SWAP1 RETURN JUMPDEST PUSH2 0x16B PUSH2 0x2A2 JUMP JUMPDEST STOP JUMPDEST DUP1 PUSH1 0x2 PUSH0 DUP6 PUSH20 0xFFFFFFFFFFFFFFFFFFFFFFFFFFFFFFFFFFFFFFFF AND PUSH20 0xFFFFFFFFFFFFFFFFFFFFFFFFFFFFFFFFFFFFFFFF AND DUP2 MSTORE PUSH1 0x20 ADD SWAP1 DUP2 MSTORE PUSH1 0x20 ADD PUSH0 KECCAK256 PUSH0 DUP5 ISZERO ISZERO ISZERO ISZERO DUP2 MSTORE PUSH1 0x20 ADD SWAP1 DUP2 MSTORE PUSH1 0x20 ADD PUSH0 KECCAK256 DUP2 SWAP1 SSTORE POP POP POP POP JUMP JUMPDEST PUSH1 0x2 PUSH1 0x20 MSTORE DUP2 PUSH0 MSTORE PUSH1 0x40 PUSH0 KECCAK256 PUSH1 0x20 MSTORE DUP1 PUSH0 MSTORE PUSH1 0x40 PUSH0 KECCAK256 PUSH0 SWAP2 POP SWAP2 POP POP SLOAD DUP2 JUMP JUMPDEST PUSH1 0x1 PUSH0 DUP1 DUP4 DUP2 MSTORE PUSH1 0x20 ADD SWAP1 DUP2 MSTORE PUSH1 0x20 ADD PUSH0 KECCAK256 PUSH0 PUSH2 0x100 EXP DUP2 SLOAD DUP2 PUSH1 0xFF MUL NOT AND SWAP1 DUP4 ISZERO ISZERO MUL OR SWAP1 SSTORE POP POP JUMP JUMPDEST PUSH1 0x1 DUP1 PUSH0 DUP4 PUSH20 0xFFFFFFFFFFFFFFFFFFFFFFFFFFFFFFFFFFFFFFFF AND PUSH20 0xFFFFFFFFFFFFFFFFFFFFFFFFFFFFFFFFFFFFFFFF AND DUP2 MSTORE PUSH1 0x20 ADD SWAP1 DUP2 MSTORE PUSH1 0x20 ADD PUSH0 KECCAK256 PUSH0 PUSH2 0x100 EXP DUP2 SLOAD DUP2 PUSH1 0xFF MUL NOT AND SWAP1 DUP4 ISZERO ISZERO MUL OR SWAP1 SSTORE POP POP JUMP JUMPDEST PUSH0 PUSH1 0x20 MSTORE DUP1 PUSH0 MSTORE PUSH1 0x40 PUSH0 KECCAK256 PUSH0 SWAP2 POP SLOAD SWAP1 PUSH2 0x100 EXP SWAP1 DIV PUSH1 0xFF AND DUP2 JUMP JUMPDEST PUSH1 0x1 PUSH1 0x20 MSTORE DUP1 PUSH0 MSTORE PUSH1 0x40 PUSH0 KECCAK256 PUSH0 SWAP2 POP SLOAD SWAP1 PUSH2 0x100 EXP SWAP1 DIV PUSH1 0xFF AND DUP2 JUMP JUMPDEST PUSH1 0x1 DUP1 PUSH0 CALLER PUSH20 0xFFFFFFFFFFFFFFFFFFFFFFFFFFFFFFFFFFFFFFFF AND PUSH20 0xFFFFFFFFFFFFFFFFFFFFFFFFFFFFFFFFFFFFFFFF AND DUP2 MSTORE PUSH1 0x20 ADD SWAP1 DUP2 MSTORE PUSH1 0x20 ADD PUSH0 KECCAK256 PUSH0 PUSH2 0x100 EXP DUP2 SLOAD DUP2 PUSH1 0xFF MUL NOT AND SWAP1 DUP4 ISZERO ISZERO MUL OR SWAP1 SSTORE POP JUMP JUMPDEST PUSH0 DUP1 REVERT JUMPDEST PUSH0 PUSH20 0xFFFFFFFFFFFFFFFFFFFFFFFFFFFFFFFFFFFFFFFF DUP3 AND SWAP1 POP SWAP2 SWAP1 POP JUMP JUMPDEST PUSH0 PUSH2 0x325 DUP3 PUSH2 0x2FC JUMP JUMPDEST SWAP1 POP SWAP2 SWAP1 POP JUMP JUMPDEST PUSH2 0x335 DUP2 PUSH2 0x31B JUMP JUMPDEST DUP2 EQ PUSH2 0x33F JUMPI PUSH0 DUP1 REVERT JUMPDEST POP JUMP JUMPDEST PUSH0 DUP2 CALLDATALOAD SWAP1 POP PUSH2 0x350 DUP2 PUSH2 0x32C JUMP JUMPDEST SWAP3 SWAP2 POP POP JUMP JUMPDEST PUSH0 DUP2 ISZERO ISZERO SWAP1 POP SWAP2 SWAP1 POP JUMP JUMPDEST PUSH2 0x36A DUP2 PUSH2 0x356 JUMP JUMPDEST DUP2 EQ PUSH2 0x374 JUMPI PUSH0 DUP1 REVERT JUMPDEST POP JUMP JUMPDEST PUSH0 DUP2 CALLDATALOAD SWAP1 POP PUSH2 0x385 DUP2 PUSH2 0x361 JUMP JUMPDEST SWAP3 SWAP2 POP POP JUMP JUMPDEST PUSH0 DUP2 SWAP1 POP SWAP2 SWAP1 POP JUMP JUMPDEST PUSH2 0x39D DUP2 PUSH2 0x38B JUMP JUMPDEST DUP2 EQ PUSH2 0x3A7 JUMPI PUSH0 DUP1 REVERT JUMPDEST POP JUMP JUMPDEST PUSH0 DUP2 CALLDATALOAD SWAP1 POP PUSH2 0x3B8 DUP2 PUSH2 0x394 JUMP JUMPDEST SWAP3 SWAP2 POP POP JUMP JUMPDEST PUSH0 DUP1 PUSH0 PUSH1 0x60 DUP5 DUP7 SUB SLT ISZERO PUSH2 0x3D5 JUMPI PUSH2 0x3D4 PUSH2 0x2F8 JUMP JUMPDEST JUMPDEST PUSH0 PUSH2 0x3E2 DUP7 DUP3 DUP8 ADD PUSH2 0x342 JUMP JUMPDEST SWAP4 POP POP PUSH1 0x20 PUSH2 0x3F3 DUP7 DUP3 DUP8 ADD PUSH2 0x377 JUMP JUMPDEST SWAP3 POP POP PUSH1 0x40 PUSH2 0x404 DUP7 DUP3 DUP8 ADD PUSH2 0x3AA JUMP JUMPDEST SWAP2 POP POP SWAP3 POP SWAP3 POP SWAP3 JUMP JUMPDEST PUSH0 DUP1 PUSH1 0x40 DUP4 DUP6 SUB SLT ISZERO PUSH2 0x424 JUMPI PUSH2 0x423 PUSH2 0x2F8 JUMP JUMPDEST JUMPDEST PUSH0 PUSH2 0x431 DUP6 DUP3 DUP7 ADD PUSH2 0x342 JUMP JUMPDEST SWAP3 POP POP PUSH1 0x20 PUSH2 0x442 DUP6 DUP3 DUP7 ADD PUSH2 0x377 JUMP JUMPDEST SWAP2 POP POP SWAP3 POP SWAP3 SWAP1 POP JUMP JUMPDEST PUSH2 0x455 DUP2 PUSH2 0x38B JUMP JUMPDEST DUP3 MSTORE POP POP JUMP JUMPDEST PUSH0 PUSH1 0x20 DUP3 ADD SWAP1 POP PUSH2 0x46E PUSH0 DUP4 ADD DUP5 PUSH2 0x44C JUMP JUMPDEST SWAP3 SWAP2 POP POP JUMP JUMPDEST PUSH0 PUSH1 0x20 DUP3 DUP5 SUB SLT ISZERO PUSH2 0x489 JUMPI PUSH2 0x488 PUSH2 0x2F8 JUMP JUMPDEST JUMPDEST PUSH0 PUSH2 0x496 DUP5 DUP3 DUP6 ADD PUSH2 0x3AA JUMP JUMPDEST SWAP2 POP POP SWAP3 SWAP2 POP POP JUMP JUMPDEST PUSH0 PUSH1 0x20 DUP3 DUP5 SUB SLT ISZERO PUSH2 0x4B4 JUMPI PUSH2 0x4B3 PUSH2 0x2F8 JUMP JUMPDEST JUMPDEST PUSH0 PUSH2 0x4C1 DUP5 DUP3 DUP6 ADD PUSH2 0x342 JUMP JUMPDEST SWAP2 POP POP SWAP3 SWAP2 POP POP JUMP JUMPDEST PUSH2 0x4D3 DUP2 PUSH2 0x356 JUMP JUMPDEST DUP3 MSTORE POP POP JUMP JUMPDEST PUSH0 PUSH1 0x20 DUP3 ADD SWAP1 POP PUSH2 0x4EC PUSH0 DUP4 ADD DUP5 PUSH2 0x4CA JUMP JUMPDEST SWAP3 SWAP2 POP POP JUMP INVALID LOG2 PUSH5 0x6970667358 0x22 SLT KECCAK256 SWAP3 SHL 0xE SLT CALLDATASIZE NOT 0x28 0xA7 0xE SWAP11 LOG2 0xB9 NOT 0x28 ADDRESS 0xB5 BLOCKHASH PUSH29 0x917F33F23AAD3F13DEB3986CDC0464736F6C6343000818003300000000 "
				},
				"gasEstimates": {
					"creation": {
						"codeDepositCost": "264000",
						"executionCost": "304",
						"totalCost": "264304"
					},
					"external": {
						"mapMap(address,bool)": "3063",
						"mapsMap(address,bool,uint256)": "23084",
						"myAddMapping(address)": "2877",
						"myMapping(uint256)": "2806",
						"setAddSelf()": "24562",
						"setValue(uint256)": "24788",
						"setValueAdd(address)": "24803"
					}
				},
				"methodIdentifiers": {
					"mapMap(address,bool)": "4ba48e85",
					"mapsMap(address,bool,uint256)": "1bc0458c",
					"myAddMapping(address)": "baaf3ba1",
					"myMapping(uint256)": "7c668844",
					"setAddSelf()": "e4fd4ee1",
					"setValue(uint256)": "55241077",
					"setValueAdd(address)": "555697bb"
				}
			},
			"storageLayout": {
				"storage": [
					{
						"astId": 5,
						"contract": "contracts/3-smart_wallet/1-mapping.sol:MappingExample",
						"label": "myMapping",
						"offset": 0,
						"slot": "0",
						"type": "t_mapping(t_uint256,t_bool)"
					},
					{
						"astId": 9,
						"contract": "contracts/3-smart_wallet/1-mapping.sol:MappingExample",
						"label": "myAddMapping",
						"offset": 0,
						"slot": "1",
						"type": "t_mapping(t_address,t_bool)"
					},
					{
						"astId": 50,
						"contract": "contracts/3-smart_wallet/1-mapping.sol:MappingExample",
						"label": "mapMap",
						"offset": 0,
						"slot": "2",
						"type": "t_mapping(t_address,t_mapping(t_bool,t_uint256))"
					}
				],
				"types": {
					"t_address": {
						"encoding": "inplace",
						"label": "address",
						"numberOfBytes": "20"
					},
					"t_bool": {
						"encoding": "inplace",
						"label": "bool",
						"numberOfBytes": "1"
					},
					"t_mapping(t_address,t_bool)": {
						"encoding": "mapping",
						"key": "t_address",
						"label": "mapping(address => bool)",
						"numberOfBytes": "32",
						"value": "t_bool"
					},
					"t_mapping(t_address,t_mapping(t_bool,t_uint256))": {
						"encoding": "mapping",
						"key": "t_address",
						"label": "mapping(address => mapping(bool => uint256))",
						"numberOfBytes": "32",
						"value": "t_mapping(t_bool,t_uint256)"
					},
					"t_mapping(t_bool,t_uint256)": {
						"encoding": "mapping",
						"key": "t_bool",
						"label": "mapping(bool => uint256)",
						"numberOfBytes": "32",
						"value": "t_uint256"
					},
					"t_mapping(t_uint256,t_bool)": {
						"encoding": "mapping",
						"key": "t_uint256",
						"label": "mapping(uint256 => bool)",
						"numberOfBytes": "32",
						"value": "t_bool"
					},
					"t_uint256": {
						"encoding": "inplace",
						"label": "uint256",
						"numberOfBytes": "32"
					}
				}
			},
			"userdoc": {
				"kind": "user",
				"methods": {},
				"version": 1
			}
		}
	}
}