{
	"data": {
		"bytecode": {
			"linkReferences": {},
			"object": "60806040526040518060400160405280600b81526020017f48656c6c6f205368696e610000000000000000000000000000000000000000008152505f9081620000499190620002c1565b5034801562000056575f80fd5b50620003a5565b5f81519050919050565b7f4e487b71000000000000000000000000000000000000000000000000000000005f52604160045260245ffd5b7f4e487b71000000000000000000000000000000000000000000000000000000005f52602260045260245ffd5b5f6002820490506001821680620000d957607f821691505b602082108103620000ef57620000ee62000094565b5b50919050565b5f819050815f5260205f209050919050565b5f6020601f8301049050919050565b5f82821b905092915050565b5f60088302620001537fffffffffffffffffffffffffffffffffffffffffffffffffffffffffffffffff8262000116565b6200015f868362000116565b95508019841693508086168417925050509392505050565b5f819050919050565b5f819050919050565b5f620001a9620001a36200019d8462000177565b62000180565b62000177565b9050919050565b5f819050919050565b620001c48362000189565b620001dc620001d382620001b0565b84845462000122565b825550505050565b5f90565b620001f2620001e4565b620001ff818484620001b9565b505050565b5b8181101562000226576200021a5f82620001e8565b60018101905062000205565b5050565b601f82111562000275576200023f81620000f5565b6200024a8462000107565b810160208510156200025a578190505b62000272620002698562000107565b83018262000204565b50505b505050565b5f82821c905092915050565b5f620002975f19846008026200027a565b1980831691505092915050565b5f620002b1838362000286565b9150826002028217905092915050565b620002cc826200005d565b67ffffffffffffffff811115620002e857620002e762000067565b5b620002f48254620000c1565b620003018282856200022a565b5f60209050601f83116001811462000337575f841562000322578287015190505b6200032e8582620002a4565b8655506200039d565b601f1984166200034786620000f5565b5f5b82811015620003705784890151825560018201915060208501945060208101905062000349565b868310156200039057848901516200038c601f89168262000286565b8355505b6001600288020188555050505b505050505050565b6107f080620003b35f395ff3fe608060405234801561000f575f80fd5b506004361061003f575f3560e01c8063492bfa18146100435780635ce25353146100615780638218056814610091575b5f80fd5b61004b6100ad565b604051610058919061022b565b60405180910390f35b61007b60048036038101906100769190610388565b610138565b60405161008891906103e9565b60405180910390f35b6100ab60048036038101906100a69190610388565b61018f565b005b5f80546100b99061042f565b80601f01602080910402602001604051908101604052809291908181526020018280546100e59061042f565b80156101305780601f1061010757610100808354040283529160200191610130565b820191905f5260205f20905b81548152906001019060200180831161011357829003601f168201915b505050505081565b5f8160405160200161014a9190610499565b604051602081830303815290604052805190602001205f6040516020016101719190610541565b60405160208183030381529060405280519060200120149050919050565b805f908161019d91906106eb565b5050565b5f81519050919050565b5f82825260208201905092915050565b5f5b838110156101d85780820151818401526020810190506101bd565b5f8484015250505050565b5f601f19601f8301169050919050565b5f6101fd826101a1565b61020781856101ab565b93506102178185602086016101bb565b610220816101e3565b840191505092915050565b5f6020820190508181035f83015261024381846101f3565b905092915050565b5f604051905090565b5f80fd5b5f80fd5b5f80fd5b5f80fd5b7f4e487b71000000000000000000000000000000000000000000000000000000005f52604160045260245ffd5b61029a826101e3565b810181811067ffffffffffffffff821117156102b9576102b8610264565b5b80604052505050565b5f6102cb61024b565b90506102d78282610291565b919050565b5f67ffffffffffffffff8211156102f6576102f5610264565b5b6102ff826101e3565b9050602081019050919050565b828183375f83830152505050565b5f61032c610327846102dc565b6102c2565b90508281526020810184848401111561034857610347610260565b5b61035384828561030c565b509392505050565b5f82601f83011261036f5761036e61025c565b5b813561037f84826020860161031a565b91505092915050565b5f6020828403121561039d5761039c610254565b5b5f82013567ffffffffffffffff8111156103ba576103b9610258565b5b6103c68482850161035b565b91505092915050565b5f8115159050919050565b6103e3816103cf565b82525050565b5f6020820190506103fc5f8301846103da565b92915050565b7f4e487b71000000000000000000000000000000000000000000000000000000005f52602260045260245ffd5b5f600282049050600182168061044657607f821691505b60208210810361045957610458610402565b5b50919050565b5f81905092915050565b5f610473826101a1565b61047d818561045f565b935061048d8185602086016101bb565b80840191505092915050565b5f6104a48284610469565b915081905092915050565b5f819050815f5260205f209050919050565b5f81546104cd8161042f565b6104d7818661045f565b9450600182165f81146104f1576001811461050657610538565b60ff1983168652811515820286019350610538565b61050f856104af565b5f5b8381101561053057815481890152600182019150602081019050610511565b838801955050505b50505092915050565b5f61054c82846104c1565b915081905092915050565b5f6020601f8301049050919050565b5f82821b905092915050565b5f600883026105a17fffffffffffffffffffffffffffffffffffffffffffffffffffffffffffffffff82610566565b6105ab8683610566565b95508019841693508086168417925050509392505050565b5f819050919050565b5f819050919050565b5f6105ef6105ea6105e5846105c3565b6105cc565b6105c3565b9050919050565b5f819050919050565b610608836105d5565b61061c610614826105f6565b848454610572565b825550505050565b5f90565b610630610624565b61063b8184846105ff565b505050565b5b8181101561065e576106535f82610628565b600181019050610641565b5050565b601f8211156106a357610674816104af565b61067d84610557565b8101602085101561068c578190505b6106a061069885610557565b830182610640565b50505b505050565b5f82821c905092915050565b5f6106c35f19846008026106a8565b1980831691505092915050565b5f6106db83836106b4565b9150826002028217905092915050565b6106f4826101a1565b67ffffffffffffffff81111561070d5761070c610264565b5b610717825461042f565b610722828285610662565b5f60209050601f831160018114610753575f8415610741578287015190505b61074b85826106d0565b8655506107b2565b601f198416610761866104af565b5f5b8281101561078857848901518255600182019150602085019450602081019050610763565b868310156107a557848901516107a1601f8916826106b4565b8355505b6001600288020188555050505b50505050505056fea26469706673582212208b2616c1114febb905cd9f5dd084f8d97d672c5186763286bd3e1a6dce54ba7364736f6c63430008180033",
			"opcodes": "PUSH1 0x80 PUSH1 0x40 MSTORE PUSH1 0x40 MLOAD DUP1 PUSH1 0x40 ADD PUSH1 0x40 MSTORE DUP1 PUSH1 0xB DUP2 MSTORE PUSH1 0x20 ADD PUSH32 0x48656C6C6F205368696E61000000000000000000000000000000000000000000 DUP2 MSTORE POP PUSH0 SWAP1 DUP2 PUSH3 0x49 SWAP2 SWAP1 PUSH3 0x2C1 JUMP JUMPDEST POP CALLVALUE DUP1 ISZERO PUSH3 0x56 JUMPI PUSH0 DUP1 REVERT JUMPDEST POP PUSH3 0x3A5 JUMP JUMPDEST PUSH0 DUP2 MLOAD SWAP1 POP SWAP2 SWAP1 POP JUMP JUMPDEST PUSH32 0x4E487B7100000000000000000000000000000000000000000000000000000000 PUSH0 MSTORE PUSH1 0x41 PUSH1 0x4 MSTORE PUSH1 0x24 PUSH0 REVERT JUMPDEST PUSH32 0x4E487B7100000000000000000000000000000000000000000000000000000000 PUSH0 MSTORE PUSH1 0x22 PUSH1 0x4 MSTORE PUSH1 0x24 PUSH0 REVERT JUMPDEST PUSH0 PUSH1 0x2 DUP3 DIV SWAP1 POP PUSH1 0x1 DUP3 AND DUP1 PUSH3 0xD9 JUMPI PUSH1 0x7F DUP3 AND SWAP2 POP JUMPDEST PUSH1 0x20 DUP3 LT DUP2 SUB PUSH3 0xEF JUMPI PUSH3 0xEE PUSH3 0x94 JUMP JUMPDEST JUMPDEST POP SWAP2 SWAP1 POP JUMP JUMPDEST PUSH0 DUP2 SWAP1 POP DUP2 PUSH0 MSTORE PUSH1 0x20 PUSH0 KECCAK256 SWAP1 POP SWAP2 SWAP1 POP JUMP JUMPDEST PUSH0 PUSH1 0x20 PUSH1 0x1F DUP4 ADD DIV SWAP1 POP SWAP2 SWAP1 POP JUMP JUMPDEST PUSH0 DUP3 DUP3 SHL SWAP1 POP SWAP3 SWAP2 POP POP JUMP JUMPDEST PUSH0 PUSH1 0x8 DUP4 MUL PUSH3 0x153 PUSH32 0xFFFFFFFFFFFFFFFFFFFFFFFFFFFFFFFFFFFFFFFFFFFFFFFFFFFFFFFFFFFFFFFF DUP3 PUSH3 0x116 JUMP JUMPDEST PUSH3 0x15F DUP7 DUP4 PUSH3 0x116 JUMP JUMPDEST SWAP6 POP DUP1 NOT DUP5 AND SWAP4 POP DUP1 DUP7 AND DUP5 OR SWAP3 POP POP POP SWAP4 SWAP3 POP POP POP JUMP JUMPDEST PUSH0 DUP2 SWAP1 POP SWAP2 SWAP1 POP JUMP JUMPDEST PUSH0 DUP2 SWAP1 POP SWAP2 SWAP1 POP JUMP JUMPDEST PUSH0 PUSH3 0x1A9 PUSH3 0x1A3 PUSH3 0x19D DUP5 PUSH3 0x177 JUMP JUMPDEST PUSH3 0x180 JUMP JUMPDEST PUSH3 0x177 JUMP JUMPDEST SWAP1 POP SWAP2 SWAP1 POP JUMP JUMPDEST PUSH0 DUP2 SWAP1 POP SWAP2 SWAP1 POP JUMP JUMPDEST PUSH3 0x1C4 DUP4 PUSH3 0x189 JUMP JUMPDEST PUSH3 0x1DC PUSH3 0x1D3 DUP3 PUSH3 0x1B0 JUMP JUMPDEST DUP5 DUP5 SLOAD PUSH3 0x122 JUMP JUMPDEST DUP3 SSTORE POP POP POP POP JUMP JUMPDEST PUSH0 SWAP1 JUMP JUMPDEST PUSH3 0x1F2 PUSH3 0x1E4 JUMP JUMPDEST PUSH3 0x1FF DUP2 DUP5 DUP5 PUSH3 0x1B9 JUMP JUMPDEST POP POP POP JUMP JUMPDEST JUMPDEST DUP2 DUP2 LT ISZERO PUSH3 0x226 JUMPI PUSH3 0x21A PUSH0 DUP3 PUSH3 0x1E8 JUMP JUMPDEST PUSH1 0x1 DUP2 ADD SWAP1 POP PUSH3 0x205 JUMP JUMPDEST POP POP JUMP JUMPDEST PUSH1 0x1F DUP3 GT ISZERO PUSH3 0x275 JUMPI PUSH3 0x23F DUP2 PUSH3 0xF5 JUMP JUMPDEST PUSH3 0x24A DUP5 PUSH3 0x107 JUMP JUMPDEST DUP2 ADD PUSH1 0x20 DUP6 LT ISZERO PUSH3 0x25A JUMPI DUP2 SWAP1 POP JUMPDEST PUSH3 0x272 PUSH3 0x269 DUP6 PUSH3 0x107 JUMP JUMPDEST DUP4 ADD DUP3 PUSH3 0x204 JUMP JUMPDEST POP POP JUMPDEST POP POP POP JUMP JUMPDEST PUSH0 DUP3 DUP3 SHR SWAP1 POP SWAP3 SWAP2 POP POP JUMP JUMPDEST PUSH0 PUSH3 0x297 PUSH0 NOT DUP5 PUSH1 0x8 MUL PUSH3 0x27A JUMP JUMPDEST NOT DUP1 DUP4 AND SWAP2 POP POP SWAP3 SWAP2 POP POP JUMP JUMPDEST PUSH0 PUSH3 0x2B1 DUP4 DUP4 PUSH3 0x286 JUMP JUMPDEST SWAP2 POP DUP3 PUSH1 0x2 MUL DUP3 OR SWAP1 POP SWAP3 SWAP2 POP POP JUMP JUMPDEST PUSH3 0x2CC DUP3 PUSH3 0x5D JUMP JUMPDEST PUSH8 0xFFFFFFFFFFFFFFFF DUP2 GT ISZERO PUSH3 0x2E8 JUMPI PUSH3 0x2E7 PUSH3 0x67 JUMP JUMPDEST JUMPDEST PUSH3 0x2F4 DUP3 SLOAD PUSH3 0xC1 JUMP JUMPDEST PUSH3 0x301 DUP3 DUP3 DUP6 PUSH3 0x22A JUMP JUMPDEST PUSH0 PUSH1 0x20 SWAP1 POP PUSH1 0x1F DUP4 GT PUSH1 0x1 DUP2 EQ PUSH3 0x337 JUMPI PUSH0 DUP5 ISZERO PUSH3 0x322 JUMPI DUP3 DUP8 ADD MLOAD SWAP1 POP JUMPDEST PUSH3 0x32E DUP6 DUP3 PUSH3 0x2A4 JUMP JUMPDEST DUP7 SSTORE POP PUSH3 0x39D JUMP JUMPDEST PUSH1 0x1F NOT DUP5 AND PUSH3 0x347 DUP7 PUSH3 0xF5 JUMP JUMPDEST PUSH0 JUMPDEST DUP3 DUP2 LT ISZERO PUSH3 0x370 JUMPI DUP5 DUP10 ADD MLOAD DUP3 SSTORE PUSH1 0x1 DUP3 ADD SWAP2 POP PUSH1 0x20 DUP6 ADD SWAP5 POP PUSH1 0x20 DUP2 ADD SWAP1 POP PUSH3 0x349 JUMP JUMPDEST DUP7 DUP4 LT ISZERO PUSH3 0x390 JUMPI DUP5 DUP10 ADD MLOAD PUSH3 0x38C PUSH1 0x1F DUP10 AND DUP3 PUSH3 0x286 JUMP JUMPDEST DUP4 SSTORE POP JUMPDEST PUSH1 0x1 PUSH1 0x2 DUP9 MUL ADD DUP9 SSTORE POP POP POP JUMPDEST POP POP POP POP POP POP JUMP JUMPDEST PUSH2 0x7F0 DUP1 PUSH3 0x3B3 PUSH0 CODECOPY PUSH0 RETURN INVALID PUSH1 0x80 PUSH1 0x40 MSTORE CALLVALUE DUP1 ISZERO PUSH2 0xF JUMPI PUSH0 DUP1 REVERT JUMPDEST POP PUSH1 0x4 CALLDATASIZE LT PUSH2 0x3F JUMPI PUSH0 CALLDATALOAD PUSH1 0xE0 SHR DUP1 PUSH4 0x492BFA18 EQ PUSH2 0x43 JUMPI DUP1 PUSH4 0x5CE25353 EQ PUSH2 0x61 JUMPI DUP1 PUSH4 0x82180568 EQ PUSH2 0x91 JUMPI JUMPDEST PUSH0 DUP1 REVERT JUMPDEST PUSH2 0x4B PUSH2 0xAD JUMP JUMPDEST PUSH1 0x40 MLOAD PUSH2 0x58 SWAP2 SWAP1 PUSH2 0x22B JUMP JUMPDEST PUSH1 0x40 MLOAD DUP1 SWAP2 SUB SWAP1 RETURN JUMPDEST PUSH2 0x7B PUSH1 0x4 DUP1 CALLDATASIZE SUB DUP2 ADD SWAP1 PUSH2 0x76 SWAP2 SWAP1 PUSH2 0x388 JUMP JUMPDEST PUSH2 0x138 JUMP JUMPDEST PUSH1 0x40 MLOAD PUSH2 0x88 SWAP2 SWAP1 PUSH2 0x3E9 JUMP JUMPDEST PUSH1 0x40 MLOAD DUP1 SWAP2 SUB SWAP1 RETURN JUMPDEST PUSH2 0xAB PUSH1 0x4 DUP1 CALLDATASIZE SUB DUP2 ADD SWAP1 PUSH2 0xA6 SWAP2 SWAP1 PUSH2 0x388 JUMP JUMPDEST PUSH2 0x18F JUMP JUMPDEST STOP JUMPDEST PUSH0 DUP1 SLOAD PUSH2 0xB9 SWAP1 PUSH2 0x42F JUMP JUMPDEST DUP1 PUSH1 0x1F ADD PUSH1 0x20 DUP1 SWAP2 DIV MUL PUSH1 0x20 ADD PUSH1 0x40 MLOAD SWAP1 DUP2 ADD PUSH1 0x40 MSTORE DUP1 SWAP3 SWAP2 SWAP1 DUP2 DUP2 MSTORE PUSH1 0x20 ADD DUP3 DUP1 SLOAD PUSH2 0xE5 SWAP1 PUSH2 0x42F JUMP JUMPDEST DUP1 ISZERO PUSH2 0x130 JUMPI DUP1 PUSH1 0x1F LT PUSH2 0x107 JUMPI PUSH2 0x100 DUP1 DUP4 SLOAD DIV MUL DUP4 MSTORE SWAP2 PUSH1 0x20 ADD SWAP2 PUSH2 0x130 JUMP JUMPDEST DUP3 ADD SWAP2 SWAP1 PUSH0 MSTORE PUSH1 0x20 PUSH0 KECCAK256 SWAP1 JUMPDEST DUP2 SLOAD DUP2 MSTORE SWAP1 PUSH1 0x1 ADD SWAP1 PUSH1 0x20 ADD DUP1 DUP4 GT PUSH2 0x113 JUMPI DUP3 SWAP1 SUB PUSH1 0x1F AND DUP3 ADD SWAP2 JUMPDEST POP POP POP POP POP DUP2 JUMP JUMPDEST PUSH0 DUP2 PUSH1 0x40 MLOAD PUSH1 0x20 ADD PUSH2 0x14A SWAP2 SWAP1 PUSH2 0x499 JUMP JUMPDEST PUSH1 0x40 MLOAD PUSH1 0x20 DUP2 DUP4 SUB SUB DUP2 MSTORE SWAP1 PUSH1 0x40 MSTORE DUP1 MLOAD SWAP1 PUSH1 0x20 ADD KECCAK256 PUSH0 PUSH1 0x40 MLOAD PUSH1 0x20 ADD PUSH2 0x171 SWAP2 SWAP1 PUSH2 0x541 JUMP JUMPDEST PUSH1 0x40 MLOAD PUSH1 0x20 DUP2 DUP4 SUB SUB DUP2 MSTORE SWAP1 PUSH1 0x40 MSTORE DUP1 MLOAD SWAP1 PUSH1 0x20 ADD KECCAK256 EQ SWAP1 POP SWAP2 SWAP1 POP JUMP JUMPDEST DUP1 PUSH0 SWAP1 DUP2 PUSH2 0x19D SWAP2 SWAP1 PUSH2 0x6EB JUMP JUMPDEST POP POP JUMP JUMPDEST PUSH0 DUP2 MLOAD SWAP1 POP SWAP2 SWAP1 POP JUMP JUMPDEST PUSH0 DUP3 DUP3 MSTORE PUSH1 0x20 DUP3 ADD SWAP1 POP SWAP3 SWAP2 POP POP JUMP JUMPDEST PUSH0 JUMPDEST DUP4 DUP2 LT ISZERO PUSH2 0x1D8 JUMPI DUP1 DUP3 ADD MLOAD DUP2 DUP5 ADD MSTORE PUSH1 0x20 DUP2 ADD SWAP1 POP PUSH2 0x1BD JUMP JUMPDEST PUSH0 DUP5 DUP5 ADD MSTORE POP POP POP POP JUMP JUMPDEST PUSH0 PUSH1 0x1F NOT PUSH1 0x1F DUP4 ADD AND SWAP1 POP SWAP2 SWAP1 POP JUMP JUMPDEST PUSH0 PUSH2 0x1FD DUP3 PUSH2 0x1A1 JUMP JUMPDEST PUSH2 0x207 DUP2 DUP6 PUSH2 0x1AB JUMP JUMPDEST SWAP4 POP PUSH2 0x217 DUP2 DUP6 PUSH1 0x20 DUP7 ADD PUSH2 0x1BB JUMP JUMPDEST PUSH2 0x220 DUP2 PUSH2 0x1E3 JUMP JUMPDEST DUP5 ADD SWAP2 POP POP SWAP3 SWAP2 POP POP JUMP JUMPDEST PUSH0 PUSH1 0x20 DUP3 ADD SWAP1 POP DUP2 DUP2 SUB PUSH0 DUP4 ADD MSTORE PUSH2 0x243 DUP2 DUP5 PUSH2 0x1F3 JUMP JUMPDEST SWAP1 POP SWAP3 SWAP2 POP POP JUMP JUMPDEST PUSH0 PUSH1 0x40 MLOAD SWAP1 POP SWAP1 JUMP JUMPDEST PUSH0 DUP1 REVERT JUMPDEST PUSH0 DUP1 REVERT JUMPDEST PUSH0 DUP1 REVERT JUMPDEST PUSH0 DUP1 REVERT JUMPDEST PUSH32 0x4E487B7100000000000000000000000000000000000000000000000000000000 PUSH0 MSTORE PUSH1 0x41 PUSH1 0x4 MSTORE PUSH1 0x24 PUSH0 REVERT JUMPDEST PUSH2 0x29A DUP3 PUSH2 0x1E3 JUMP JUMPDEST DUP2 ADD DUP2 DUP2 LT PUSH8 0xFFFFFFFFFFFFFFFF DUP3 GT OR ISZERO PUSH2 0x2B9 JUMPI PUSH2 0x2B8 PUSH2 0x264 JUMP JUMPDEST JUMPDEST DUP1 PUSH1 0x40 MSTORE POP POP POP JUMP JUMPDEST PUSH0 PUSH2 0x2CB PUSH2 0x24B JUMP JUMPDEST SWAP1 POP PUSH2 0x2D7 DUP3 DUP3 PUSH2 0x291 JUMP JUMPDEST SWAP2 SWAP1 POP JUMP JUMPDEST PUSH0 PUSH8 0xFFFFFFFFFFFFFFFF DUP3 GT ISZERO PUSH2 0x2F6 JUMPI PUSH2 0x2F5 PUSH2 0x264 JUMP JUMPDEST JUMPDEST PUSH2 0x2FF DUP3 PUSH2 0x1E3 JUMP JUMPDEST SWAP1 POP PUSH1 0x20 DUP2 ADD SWAP1 POP SWAP2 SWAP1 POP JUMP JUMPDEST DUP3 DUP2 DUP4 CALLDATACOPY PUSH0 DUP4 DUP4 ADD MSTORE POP POP POP JUMP JUMPDEST PUSH0 PUSH2 0x32C PUSH2 0x327 DUP5 PUSH2 0x2DC JUMP JUMPDEST PUSH2 0x2C2 JUMP JUMPDEST SWAP1 POP DUP3 DUP2 MSTORE PUSH1 0x20 DUP2 ADD DUP5 DUP5 DUP5 ADD GT ISZERO PUSH2 0x348 JUMPI PUSH2 0x347 PUSH2 0x260 JUMP JUMPDEST JUMPDEST PUSH2 0x353 DUP5 DUP3 DUP6 PUSH2 0x30C JUMP JUMPDEST POP SWAP4 SWAP3 POP POP POP JUMP JUMPDEST PUSH0 DUP3 PUSH1 0x1F DUP4 ADD SLT PUSH2 0x36F JUMPI PUSH2 0x36E PUSH2 0x25C JUMP JUMPDEST JUMPDEST DUP2 CALLDATALOAD PUSH2 0x37F DUP5 DUP3 PUSH1 0x20 DUP7 ADD PUSH2 0x31A JUMP JUMPDEST SWAP2 POP POP SWAP3 SWAP2 POP POP JUMP JUMPDEST PUSH0 PUSH1 0x20 DUP3 DUP5 SUB SLT ISZERO PUSH2 0x39D JUMPI PUSH2 0x39C PUSH2 0x254 JUMP JUMPDEST JUMPDEST PUSH0 DUP3 ADD CALLDATALOAD PUSH8 0xFFFFFFFFFFFFFFFF DUP2 GT ISZERO PUSH2 0x3BA JUMPI PUSH2 0x3B9 PUSH2 0x258 JUMP JUMPDEST JUMPDEST PUSH2 0x3C6 DUP5 DUP3 DUP6 ADD PUSH2 0x35B JUMP JUMPDEST SWAP2 POP POP SWAP3 SWAP2 POP POP JUMP JUMPDEST PUSH0 DUP2 ISZERO ISZERO SWAP1 POP SWAP2 SWAP1 POP JUMP JUMPDEST PUSH2 0x3E3 DUP2 PUSH2 0x3CF JUMP JUMPDEST DUP3 MSTORE POP POP JUMP JUMPDEST PUSH0 PUSH1 0x20 DUP3 ADD SWAP1 POP PUSH2 0x3FC PUSH0 DUP4 ADD DUP5 PUSH2 0x3DA JUMP JUMPDEST SWAP3 SWAP2 POP POP JUMP JUMPDEST PUSH32 0x4E487B7100000000000000000000000000000000000000000000000000000000 PUSH0 MSTORE PUSH1 0x22 PUSH1 0x4 MSTORE PUSH1 0x24 PUSH0 REVERT JUMPDEST PUSH0 PUSH1 0x2 DUP3 DIV SWAP1 POP PUSH1 0x1 DUP3 AND DUP1 PUSH2 0x446 JUMPI PUSH1 0x7F DUP3 AND SWAP2 POP JUMPDEST PUSH1 0x20 DUP3 LT DUP2 SUB PUSH2 0x459 JUMPI PUSH2 0x458 PUSH2 0x402 JUMP JUMPDEST JUMPDEST POP SWAP2 SWAP1 POP JUMP JUMPDEST PUSH0 DUP2 SWAP1 POP SWAP3 SWAP2 POP POP JUMP JUMPDEST PUSH0 PUSH2 0x473 DUP3 PUSH2 0x1A1 JUMP JUMPDEST PUSH2 0x47D DUP2 DUP6 PUSH2 0x45F JUMP JUMPDEST SWAP4 POP PUSH2 0x48D DUP2 DUP6 PUSH1 0x20 DUP7 ADD PUSH2 0x1BB JUMP JUMPDEST DUP1 DUP5 ADD SWAP2 POP POP SWAP3 SWAP2 POP POP JUMP JUMPDEST PUSH0 PUSH2 0x4A4 DUP3 DUP5 PUSH2 0x469 JUMP JUMPDEST SWAP2 POP DUP2 SWAP1 POP SWAP3 SWAP2 POP POP JUMP JUMPDEST PUSH0 DUP2 SWAP1 POP DUP2 PUSH0 MSTORE PUSH1 0x20 PUSH0 KECCAK256 SWAP1 POP SWAP2 SWAP1 POP JUMP JUMPDEST PUSH0 DUP2 SLOAD PUSH2 0x4CD DUP2 PUSH2 0x42F JUMP JUMPDEST PUSH2 0x4D7 DUP2 DUP7 PUSH2 0x45F JUMP JUMPDEST SWAP5 POP PUSH1 0x1 DUP3 AND PUSH0 DUP2 EQ PUSH2 0x4F1 JUMPI PUSH1 0x1 DUP2 EQ PUSH2 0x506 JUMPI PUSH2 0x538 JUMP JUMPDEST PUSH1 0xFF NOT DUP4 AND DUP7 MSTORE DUP2 ISZERO ISZERO DUP3 MUL DUP7 ADD SWAP4 POP PUSH2 0x538 JUMP JUMPDEST PUSH2 0x50F DUP6 PUSH2 0x4AF JUMP JUMPDEST PUSH0 JUMPDEST DUP4 DUP2 LT ISZERO PUSH2 0x530 JUMPI DUP2 SLOAD DUP2 DUP10 ADD MSTORE PUSH1 0x1 DUP3 ADD SWAP2 POP PUSH1 0x20 DUP2 ADD SWAP1 POP PUSH2 0x511 JUMP JUMPDEST DUP4 DUP9 ADD SWAP6 POP POP POP JUMPDEST POP POP POP SWAP3 SWAP2 POP POP JUMP JUMPDEST PUSH0 PUSH2 0x54C DUP3 DUP5 PUSH2 0x4C1 JUMP JUMPDEST SWAP2 POP DUP2 SWAP1 POP SWAP3 SWAP2 POP POP JUMP JUMPDEST PUSH0 PUSH1 0x20 PUSH1 0x1F DUP4 ADD DIV SWAP1 POP SWAP2 SWAP1 POP JUMP JUMPDEST PUSH0 DUP3 DUP3 SHL SWAP1 POP SWAP3 SWAP2 POP POP JUMP JUMPDEST PUSH0 PUSH1 0x8 DUP4 MUL PUSH2 0x5A1 PUSH32 0xFFFFFFFFFFFFFFFFFFFFFFFFFFFFFFFFFFFFFFFFFFFFFFFFFFFFFFFFFFFFFFFF DUP3 PUSH2 0x566 JUMP JUMPDEST PUSH2 0x5AB DUP7 DUP4 PUSH2 0x566 JUMP JUMPDEST SWAP6 POP DUP1 NOT DUP5 AND SWAP4 POP DUP1 DUP7 AND DUP5 OR SWAP3 POP POP POP SWAP4 SWAP3 POP POP POP JUMP JUMPDEST PUSH0 DUP2 SWAP1 POP SWAP2 SWAP1 POP JUMP JUMPDEST PUSH0 DUP2 SWAP1 POP SWAP2 SWAP1 POP JUMP JUMPDEST PUSH0 PUSH2 0x5EF PUSH2 0x5EA PUSH2 0x5E5 DUP5 PUSH2 0x5C3 JUMP JUMPDEST PUSH2 0x5CC JUMP JUMPDEST PUSH2 0x5C3 JUMP JUMPDEST SWAP1 POP SWAP2 SWAP1 POP JUMP JUMPDEST PUSH0 DUP2 SWAP1 POP SWAP2 SWAP1 POP JUMP JUMPDEST PUSH2 0x608 DUP4 PUSH2 0x5D5 JUMP JUMPDEST PUSH2 0x61C PUSH2 0x614 DUP3 PUSH2 0x5F6 JUMP JUMPDEST DUP5 DUP5 SLOAD PUSH2 0x572 JUMP JUMPDEST DUP3 SSTORE POP POP POP POP JUMP JUMPDEST PUSH0 SWAP1 JUMP JUMPDEST PUSH2 0x630 PUSH2 0x624 JUMP JUMPDEST PUSH2 0x63B DUP2 DUP5 DUP5 PUSH2 0x5FF JUMP JUMPDEST POP POP POP JUMP JUMPDEST JUMPDEST DUP2 DUP2 LT ISZERO PUSH2 0x65E JUMPI PUSH2 0x653 PUSH0 DUP3 PUSH2 0x628 JUMP JUMPDEST PUSH1 0x1 DUP2 ADD SWAP1 POP PUSH2 0x641 JUMP JUMPDEST POP POP JUMP JUMPDEST PUSH1 0x1F DUP3 GT ISZERO PUSH2 0x6A3 JUMPI PUSH2 0x674 DUP2 PUSH2 0x4AF JUMP JUMPDEST PUSH2 0x67D DUP5 PUSH2 0x557 JUMP JUMPDEST DUP2 ADD PUSH1 0x20 DUP6 LT ISZERO PUSH2 0x68C JUMPI DUP2 SWAP1 POP JUMPDEST PUSH2 0x6A0 PUSH2 0x698 DUP6 PUSH2 0x557 JUMP JUMPDEST DUP4 ADD DUP3 PUSH2 0x640 JUMP JUMPDEST POP POP JUMPDEST POP POP POP JUMP JUMPDEST PUSH0 DUP3 DUP3 SHR SWAP1 POP SWAP3 SWAP2 POP POP JUMP JUMPDEST PUSH0 PUSH2 0x6C3 PUSH0 NOT DUP5 PUSH1 0x8 MUL PUSH2 0x6A8 JUMP JUMPDEST NOT DUP1 DUP4 AND SWAP2 POP POP SWAP3 SWAP2 POP POP JUMP JUMPDEST PUSH0 PUSH2 0x6DB DUP4 DUP4 PUSH2 0x6B4 JUMP JUMPDEST SWAP2 POP DUP3 PUSH1 0x2 MUL DUP3 OR SWAP1 POP SWAP3 SWAP2 POP POP JUMP JUMPDEST PUSH2 0x6F4 DUP3 PUSH2 0x1A1 JUMP JUMPDEST PUSH8 0xFFFFFFFFFFFFFFFF DUP2 GT ISZERO PUSH2 0x70D JUMPI PUSH2 0x70C PUSH2 0x264 JUMP JUMPDEST JUMPDEST PUSH2 0x717 DUP3 SLOAD PUSH2 0x42F JUMP JUMPDEST PUSH2 0x722 DUP3 DUP3 DUP6 PUSH2 0x662 JUMP JUMPDEST PUSH0 PUSH1 0x20 SWAP1 POP PUSH1 0x1F DUP4 GT PUSH1 0x1 DUP2 EQ PUSH2 0x753 JUMPI PUSH0 DUP5 ISZERO PUSH2 0x741 JUMPI DUP3 DUP8 ADD MLOAD SWAP1 POP JUMPDEST PUSH2 0x74B DUP6 DUP3 PUSH2 0x6D0 JUMP JUMPDEST DUP7 SSTORE POP PUSH2 0x7B2 JUMP JUMPDEST PUSH1 0x1F NOT DUP5 AND PUSH2 0x761 DUP7 PUSH2 0x4AF JUMP JUMPDEST PUSH0 JUMPDEST DUP3 DUP2 LT ISZERO PUSH2 0x788 JUMPI DUP5 DUP10 ADD MLOAD DUP3 SSTORE PUSH1 0x1 DUP3 ADD SWAP2 POP PUSH1 0x20 DUP6 ADD SWAP5 POP PUSH1 0x20 DUP2 ADD SWAP1 POP PUSH2 0x763 JUMP JUMPDEST DUP7 DUP4 LT ISZERO PUSH2 0x7A5 JUMPI DUP5 DUP10 ADD MLOAD PUSH2 0x7A1 PUSH1 0x1F DUP10 AND DUP3 PUSH2 0x6B4 JUMP JUMPDEST DUP4 SSTORE POP JUMPDEST PUSH1 0x1 PUSH1 0x2 DUP9 MUL ADD DUP9 SSTORE POP POP POP JUMPDEST POP POP POP POP POP POP JUMP INVALID LOG2 PUSH5 0x6970667358 0x22 SLT KECCAK256 DUP12 0x26 AND 0xC1 GT 0x4F 0xEB 0xB9 SDIV 0xCD SWAP16 TSTORE 0xD0 DUP5 0xF8 0xD9 PUSH30 0x672C5186763286BD3E1A6DCE54BA7364736F6C6343000818003300000000 "
		},
		"gasEstimates": {
			"creation": {
				"codeDepositCost": "406400",
				"executionCost": "infinite",
				"totalCost": "infinite"
			},
			"external": {
				"compareTwoStrings(string)": "infinite",
				"myString()": "infinite",
				"setMyString(string)": "infinite"
			}
		},
		"methodIdentifiers": {
			"compareTwoStrings(string)": "5ce25353",
			"myString()": "492bfa18",
			"setMyString(string)": "82180568"
		}
	},
	"abi": [
		{
			"inputs": [
				{
					"internalType": "string",
					"name": "_myString",
					"type": "string"
				}
			],
			"name": "compareTwoStrings",
			"outputs": [
				{
					"internalType": "bool",
					"name": "",
					"type": "bool"
				}
			],
			"stateMutability": "view",
			"type": "function"
		},
		{
			"inputs": [],
			"name": "myString",
			"outputs": [
				{
					"internalType": "string",
					"name": "",
					"type": "string"
				}
			],
			"stateMutability": "view",
			"type": "function"
		},
		{
			"inputs": [
				{
					"internalType": "string",
					"name": "_myString",
					"type": "string"
				}
			],
			"name": "setMyString",
			"outputs": [],
			"stateMutability": "nonpayable",
			"type": "function"
		}
	]
}